{"contracts/Main.sol":{"Contract":{"abi":[{"inputs":[{"internalType":"contract IWorldID","name":"_worldId","type":"address"},{"internalType":"address payable","name":"_tellorAddress","type":"address"}],"stateMutability":"nonpayable","type":"constructor"},{"inputs":[],"name":"InvalidNullifier","type":"error"},{"inputs":[{"internalType":"bytes32","name":"_queryId","type":"bytes32"},{"internalType":"uint256","name":"_timestamp","type":"uint256"}],"name":"getDataAfter","outputs":[{"internalType":"bytes","name":"_value","type":"bytes"},{"internalType":"uint256","name":"_timestampRetrieved","type":"uint256"}],"stateMutability":"view","type":"function"},{"inputs":[{"internalType":"bytes32","name":"_queryId","type":"bytes32"},{"internalType":"uint256","name":"_timestamp","type":"uint256"}],"name":"getDataBefore","outputs":[{"internalType":"bytes","name":"_value","type":"bytes"},{"internalType":"uint256","name":"_timestampRetrieved","type":"uint256"}],"stateMutability":"view","type":"function"},{"inputs":[{"internalType":"bytes32","name":"_queryId","type":"bytes32"},{"internalType":"uint256","name":"_timestamp","type":"uint256"}],"name":"getIndexForDataAfter","outputs":[{"internalType":"bool","name":"_found","type":"bool"},{"internalType":"uint256","name":"_index","type":"uint256"}],"stateMutability":"view","type":"function"},{"inputs":[{"internalType":"bytes32","name":"_queryId","type":"bytes32"},{"internalType":"uint256","name":"_timestamp","type":"uint256"}],"name":"getIndexForDataBefore","outputs":[{"internalType":"bool","name":"_found","type":"bool"},{"internalType":"uint256","name":"_index","type":"uint256"}],"stateMutability":"view","type":"function"},{"inputs":[{"internalType":"bytes32","name":"_queryId","type":"bytes32"},{"internalType":"uint256","name":"_timestamp","type":"uint256"},{"internalType":"uint256","name":"_maxAge","type":"uint256"},{"internalType":"uint256","name":"_maxCount","type":"uint256"}],"name":"getMultipleValuesBefore","outputs":[{"internalType":"bytes[]","name":"_values","type":"bytes[]"},{"internalType":"uint256[]","name":"_timestamps","type":"uint256[]"}],"stateMutability":"view","type":"function"},{"inputs":[{"internalType":"bytes32","name":"_queryId","type":"bytes32"}],"name":"getNewValueCountbyQueryId","outputs":[{"internalType":"uint256","name":"","type":"uint256"}],"stateMutability":"view","type":"function"},{"inputs":[{"internalType":"bytes32","name":"_queryId","type":"bytes32"},{"internalType":"uint256","name":"_timestamp","type":"uint256"}],"name":"getReporterByTimestamp","outputs":[{"internalType":"address","name":"","type":"address"}],"stateMutability":"view","type":"function"},{"inputs":[{"internalType":"bytes32","name":"_queryId","type":"bytes32"},{"internalType":"uint256","name":"_index","type":"uint256"}],"name":"getTimestampbyQueryIdandIndex","outputs":[{"internalType":"uint256","name":"","type":"uint256"}],"stateMutability":"view","type":"function"},{"inputs":[],"name":"idMappingContract","outputs":[{"internalType":"contract IMappingContract","name":"","type":"address"}],"stateMutability":"view","type":"function"},{"inputs":[{"internalType":"bytes32","name":"_queryId","type":"bytes32"},{"internalType":"uint256","name":"_timestamp","type":"uint256"}],"name":"isInDispute","outputs":[{"internalType":"bool","name":"","type":"bool"}],"stateMutability":"view","type":"function"},{"inputs":[{"internalType":"address","name":"","type":"address"}],"name":"isUserVerified","outputs":[{"internalType":"bool","name":"","type":"bool"}],"stateMutability":"view","type":"function"},{"inputs":[{"internalType":"uint256","name":"","type":"uint256"}],"name":"nullifierHashes","outputs":[{"internalType":"string","name":"name","type":"string"},{"internalType":"address","name":"owner","type":"address"}],"stateMutability":"view","type":"function"},{"inputs":[],"name":"readValue","outputs":[{"internalType":"uint256","name":"","type":"uint256"}],"stateMutability":"view","type":"function"},{"inputs":[{"internalType":"bytes32","name":"_queryId","type":"bytes32"},{"internalType":"uint256","name":"_timestamp","type":"uint256"}],"name":"retrieveData","outputs":[{"internalType":"bytes","name":"","type":"bytes"}],"stateMutability":"view","type":"function"},{"inputs":[{"internalType":"address","name":"_addy","type":"address"}],"name":"setIdMappingContract","outputs":[],"stateMutability":"nonpayable","type":"function"},{"inputs":[],"name":"tellor","outputs":[{"internalType":"contract ITellor","name":"","type":"address"}],"stateMutability":"view","type":"function"},{"inputs":[{"internalType":"bytes","name":"data","type":"bytes"}],"name":"toString","outputs":[{"internalType":"string","name":"","type":"string"}],"stateMutability":"pure","type":"function"},{"inputs":[{"internalType":"bytes32","name":"_id","type":"bytes32"}],"name":"valueFor","outputs":[{"internalType":"int256","name":"_value","type":"int256"},{"internalType":"uint256","name":"_timestamp","type":"uint256"},{"internalType":"uint256","name":"_statusCode","type":"uint256"}],"stateMutability":"view","type":"function"},{"inputs":[{"internalType":"address","name":"signal","type":"address"},{"internalType":"uint256","name":"root","type":"uint256"},{"internalType":"uint256","name":"nullifierHash","type":"uint256"},{"internalType":"uint256[8]","name":"proof","type":"uint256[8]"},{"internalType":"string","name":"_ens","type":"string"}],"name":"verifyAndExecute","outputs":[],"stateMutability":"nonpayable","type":"function"}],"evm":{"bytecode":{"linkReferences":{},"object":"60c0604052600160a0908152503480156200001957600080fd5b50604051620030423803806200304283398181016040528101906200003f919062000180565b80806000806101000a81548173ffffffffffffffffffffffffffffffffffffffff021916908373ffffffffffffffffffffffffffffffffffffffff160217905550508173ffffffffffffffffffffffffffffffffffffffff1660808173ffffffffffffffffffffffffffffffffffffffff16815250505050620001c7565b600080fd5b600073ffffffffffffffffffffffffffffffffffffffff82169050919050565b6000620000ef82620000c2565b9050919050565b60006200010382620000e2565b9050919050565b6200011581620000f6565b81146200012157600080fd5b50565b60008151905062000135816200010a565b92915050565b60006200014882620000c2565b9050919050565b6200015a816200013b565b81146200016657600080fd5b50565b6000815190506200017a816200014f565b92915050565b600080604083850312156200019a5762000199620000bd565b5b6000620001aa8582860162000124565b9250506020620001bd8582860162000169565b9150509250929050565b60805160a051612e55620001ed6000396000610840015260006108030152612e556000f3fe608060405234801561001057600080fd5b50600436106101215760003560e01c806377b03e0d116100ad578063ce5e11bf11610071578063ce5e11bf1461036c578063e07c54861461039c578063f66f49c3146103cc578063f78eea83146103fd578063fcd4a5461461042f57610121565b806377b03e0d1461028d57806382da2e57146102bd578063a792765f146102db578063ace417e01461030c578063c5958af91461033c57610121565b80632af8aae0116100f45780632af8aae0146101c257806344e87f91146101e057806359dca71f1461021057806364ee3c6d1461022c57806371aad10d1461025d57610121565b8063193b505b146101265780631959ad5b146101425780631f79a1e9146101605780632944908514610191575b600080fd5b610140600480360381019061013b91906119e4565b610460565b005b61014a6104ff565b6040516101579190611a70565b60405180910390f35b61017a60048036038101906101759190611ac1565b610523565b604051610188929190611b8d565b60405180910390f35b6101ab60048036038101906101a69190611bf3565b6105ef565b6040516101b9929190611c5d565b60405180910390f35b6101ca610698565b6040516101d79190611ca7565b60405180910390f35b6101fa60048036038101906101f59190611bf3565b6106be565b6040516102079190611cc2565b60405180910390f35b61022a60048036038101906102259190611e39565b610765565b005b61024660048036038101906102419190611bf3565b6109ff565b604051610254929190611f27565b60405180910390f35b61027760048036038101906102729190611ff8565b610a59565b6040516102849190612041565b60405180910390f35b6102a760048036038101906102a29190612063565b610d53565b6040516102b49190612090565b60405180910390f35b6102c5610df7565b6040516102d29190612090565b60405180910390f35b6102f560048036038101906102f09190611bf3565b610ec8565b604051610303929190611f27565b60405180910390f35b610326600480360381019061032191906119e4565b610f80565b6040516103339190611cc2565b60405180910390f35b61035660048036038101906103519190611bf3565b610fa0565b60405161036391906120ab565b60405180910390f35b61038660048036038101906103819190611bf3565b61104b565b6040516103939190612090565b60405180910390f35b6103b660048036038101906103b19190611bf3565b6110f2565b6040516103c391906120cd565b60405180910390f35b6103e660048036038101906103e19190611bf3565b611199565b6040516103f4929190611c5d565b60405180910390f35b61041760048036038101906104129190612063565b61148a565b60405161042693929190612101565b60405180910390f35b61044960048036038101906104449190612138565b6115bb565b604051610457929190612369565b60405180910390f35b600073ffffffffffffffffffffffffffffffffffffffff16600160009054906101000a900473ffffffffffffffffffffffffffffffffffffffff1673ffffffffffffffffffffffffffffffffffffffff16146104bb57600080fd5b80600160006101000a81548173ffffffffffffffffffffffffffffffffffffffff021916908373ffffffffffffffffffffffffffffffffffffffff16021790555050565b60008054906101000a900473ffffffffffffffffffffffffffffffffffffffff1681565b6003602052806000526040600020600091509050806000018054610546906123cf565b80601f0160208091040260200160405190810160405280929190818152602001828054610572906123cf565b80156105bf5780601f10610594576101008083540402835291602001916105bf565b820191906000526020600020905b8154815290600101906020018083116105a257829003601f168201915b5050505050908060010160009054906101000a900473ffffffffffffffffffffffffffffffffffffffff16905082565b60008060008054906101000a900473ffffffffffffffffffffffffffffffffffffffff1673ffffffffffffffffffffffffffffffffffffffff16632944908585856040518363ffffffff1660e01b815260040161064d92919061240f565b6040805180830381865afa158015610669573d6000803e3d6000fd5b505050506040513d601f19601f8201168201806040525081019061068d9190612479565b915091509250929050565b600160009054906101000a900473ffffffffffffffffffffffffffffffffffffffff1681565b60008060009054906101000a900473ffffffffffffffffffffffffffffffffffffffff1673ffffffffffffffffffffffffffffffffffffffff166344e87f9184846040518363ffffffff1660e01b815260040161071c92919061240f565b602060405180830381865afa158015610739573d6000803e3d6000fd5b505050506040513d601f19601f8201168201806040525081019061075d91906124b9565b905092915050565b600073ffffffffffffffffffffffffffffffffffffffff166003600085815260200190815260200160002060010160009054906101000a900473ffffffffffffffffffffffffffffffffffffffff1673ffffffffffffffffffffffffffffffffffffffff1614610801576040517f5d904cb200000000000000000000000000000000000000000000000000000000815260040160405180910390fd5b7f000000000000000000000000000000000000000000000000000000000000000073ffffffffffffffffffffffffffffffffffffffff16633bc778e3857f000000000000000000000000000000000000000000000000000000000000000061088789604051602001610873919061252e565b6040516020818303038152906040526118d3565b876108b03060405160200161089c919061252e565b6040516020818303038152906040526118d3565b886040518763ffffffff1660e01b81526004016108d296959493929190612563565b60006040518083038186803b1580156108ea57600080fd5b505afa1580156108fe573d6000803e3d6000fd5b5050505060405180604001604052808281526020013373ffffffffffffffffffffffffffffffffffffffff168152506003600085815260200190815260200160002060008201518160000190816109559190612767565b5060208201518160010160006101000a81548173ffffffffffffffffffffffffffffffffffffffff021916908373ffffffffffffffffffffffffffffffffffffffff1602179055509050506001600260003373ffffffffffffffffffffffffffffffffffffffff1673ffffffffffffffffffffffffffffffffffffffff16815260200190815260200160002060006101000a81548160ff0219169083151502179055505050505050565b60606000806000610a108686611199565b9150915081610a375760006040518060200160405280600081525090935093505050610a52565b610a41868261104b565b9250610a4d8684610fa0565b935050505b9250929050565b606060006040518060400160405280601081526020017f30313233343536373839616263646566000000000000000000000000000000008152509050600060028451610aa59190612868565b6002610ab191906128aa565b67ffffffffffffffff811115610aca57610ac9611d0e565b5b6040519080825280601f01601f191660200182016040528015610afc5781602001600182028036833780820191505090505b5090507f300000000000000000000000000000000000000000000000000000000000000081600081518110610b3457610b336128de565b5b60200101907effffffffffffffffffffffffffffffffffffffffffffffffffffffffffffff1916908160001a9053507f780000000000000000000000000000000000000000000000000000000000000081600181518110610b9857610b976128de565b5b60200101907effffffffffffffffffffffffffffffffffffffffffffffffffffffffffffff1916908160001a90535060005b8451811015610d4857826004868381518110610be957610be86128de565b5b602001015160f81c60f81b7effffffffffffffffffffffffffffffffffffffffffffffffffffffffffffff1916901c60f81c60ff1681518110610c2f57610c2e6128de565b5b602001015160f81c60f81b82600283610c489190612868565b6002610c5491906128aa565b81518110610c6557610c646128de565b5b60200101907effffffffffffffffffffffffffffffffffffffffffffffffffffffffffffff1916908160001a90535082600f60f81b868381518110610cad57610cac6128de565b5b602001015160f81c60f81b1660f81c60ff1681518110610cd057610ccf6128de565b5b602001015160f81c60f81b82600283610ce99190612868565b6003610cf591906128aa565b81518110610d0657610d056128de565b5b60200101907effffffffffffffffffffffffffffffffffffffffffffffffffffffffffffff1916908160001a9053508080610d409061290d565b915050610bca565b508092505050919050565b60008060009054906101000a900473ffffffffffffffffffffffffffffffffffffffff1673ffffffffffffffffffffffffffffffffffffffff166377b03e0d836040518263ffffffff1660e01b8152600401610daf9190612955565b602060405180830381865afa158015610dcc573d6000803e3d6000fd5b505050506040513d601f19601f82011682018060405250810190610df09190612970565b9050919050565b600080610e2233604051602001610e0e919061252e565b604051602081830303815290604052610a59565b604051602001610e329190612b2f565b604051602081830303815290604052604051602001610e519190612041565b604051602081830303815290604052604051602001610e709190612bb7565b6040516020818303038152906040529050600081805190602001209050600080610ea78361038442610ea29190612bec565b610ec8565b9150915081806020019051810190610ebf9190612970565b94505050505090565b606060008060009054906101000a900473ffffffffffffffffffffffffffffffffffffffff1673ffffffffffffffffffffffffffffffffffffffff1663a792765f85856040518363ffffffff1660e01b8152600401610f2892919061240f565b600060405180830381865afa158015610f45573d6000803e3d6000fd5b505050506040513d6000823e3d601f19601f82011682018060405250810190610f6e9190612c90565b90915080925081935050509250929050565b60026020528060005260406000206000915054906101000a900460ff1681565b606060008054906101000a900473ffffffffffffffffffffffffffffffffffffffff1673ffffffffffffffffffffffffffffffffffffffff1663c5958af984846040518363ffffffff1660e01b8152600401610ffd92919061240f565b600060405180830381865afa15801561101a573d6000803e3d6000fd5b505050506040513d6000823e3d601f19601f820116820180604052508101906110439190612cff565b905092915050565b60008060009054906101000a900473ffffffffffffffffffffffffffffffffffffffff1673ffffffffffffffffffffffffffffffffffffffff1663ce5e11bf84846040518363ffffffff1660e01b81526004016110a992919061240f565b602060405180830381865afa1580156110c6573d6000803e3d6000fd5b505050506040513d601f19601f820116820180604052508101906110ea9190612970565b905092915050565b60008060009054906101000a900473ffffffffffffffffffffffffffffffffffffffff1673ffffffffffffffffffffffffffffffffffffffff1663e07c548684846040518363ffffffff1660e01b815260040161115092919061240f565b602060405180830381865afa15801561116d573d6000803e3d6000fd5b505050506040513d601f19601f820116820180604052508101906111919190612d5d565b905092915050565b60008060008054906101000a900473ffffffffffffffffffffffffffffffffffffffff1673ffffffffffffffffffffffffffffffffffffffff16632944908585856040518363ffffffff1660e01b81526004016111f792919061240f565b6040805180830381865afa158015611213573d6000803e3d6000fd5b505050506040513d601f19601f820116820180604052508101906112379190612479565b809250819350505081156112545780806112509061290d565b9150505b60008060009054906101000a900473ffffffffffffffffffffffffffffffffffffffff1673ffffffffffffffffffffffffffffffffffffffff166377b03e0d866040518263ffffffff1660e01b81526004016112b09190612955565b602060405180830381865afa1580156112cd573d6000803e3d6000fd5b505050506040513d601f19601f820116820180604052508101906112f19190612970565b9050818111611307576000809250925050611483565b60008060009054906101000a900473ffffffffffffffffffffffffffffffffffffffff1673ffffffffffffffffffffffffffffffffffffffff1663ce5e11bf87856040518363ffffffff1660e01b815260040161136592919061240f565b602060405180830381865afa158015611382573d6000803e3d6000fd5b505050506040513d601f19601f820116820180604052508101906113a69190612970565b9050848111156113bb57600193505050611483565b82806113c69061290d565b9350508282116113de57600080935093505050611483565b60008054906101000a900473ffffffffffffffffffffffffffffffffffffffff1673ffffffffffffffffffffffffffffffffffffffff1663ce5e11bf87856040518363ffffffff1660e01b815260040161143992919061240f565b602060405180830381865afa158015611456573d6000803e3d6000fd5b505050506040513d601f19601f8201168201806040525081019061147a9190612970565b90506001935050505b9250929050565b6000806000600160009054906101000a900473ffffffffffffffffffffffffffffffffffffffff1673ffffffffffffffffffffffffffffffffffffffff166387a475fd856040518263ffffffff1660e01b81526004016114ea9190612955565b602060405180830381865afa158015611507573d6000803e3d6000fd5b505050506040513d601f19601f8201168201806040525081019061152b9190612d9f565b9350600061153885610d53565b90506000810361155457600080610194935093509350506115b4565b61156a856001836115659190612bec565b61104b565b925060006115788685610fa0565b905060008151036115965760008061019494509450945050506115b4565b60006115a18261190a565b9050809550858560c89550955095505050505b9193909250565b6060806000806115d68887896115d19190612bec565b611199565b915091508161168357600067ffffffffffffffff8111156115fa576115f9611d0e565b5b60405190808252806020026020018201604052801561162d57816020015b60608152602001906001900390816116185790505b50600067ffffffffffffffff81111561164957611648611d0e565b5b6040519080825280602002602001820160405280156116775781602001602082028036833780820191505090505b509350935050506118ca565b600061168f89896105ef565b80925081945050508261174157600067ffffffffffffffff8111156116b7576116b6611d0e565b5b6040519080825280602002602001820160405280156116ea57816020015b60608152602001906001900390816116d55790505b50600067ffffffffffffffff81111561170657611705611d0e565b5b6040519080825280602002602001820160405280156117345781602001602082028036833780820191505090505b50945094505050506118ca565b6000600183836117519190612bec565b61175b91906128aa565b90508681111561178357600187836117739190612bec565b61177d91906128aa565b92508690505b60008167ffffffffffffffff81111561179f5761179e611d0e565b5b6040519080825280602002602001820160405280156117d257816020015b60608152602001906001900390816117bd5790505b50905060008267ffffffffffffffff8111156117f1576117f0611d0e565b5b60405190808252806020026020018201604052801561181f5781602001602082028036833780820191505090505b509050606060005b848110156118bb576118448e828961183f91906128aa565b61104b565b838281518110611857576118566128de565b5b6020026020010181815250506118878e84838151811061187a576118796128de565b5b6020026020010151610fa0565b91508184828151811061189d5761189c6128de565b5b602002602001018190525080806118b39061290d565b915050611827565b50828298509850505050505050505b94509492505050565b60006008826040516020016118e89190612e08565b6040516020818303038152906040528051906020012060001c901c9050919050565b600080600090505b825181101561196c5782818151811061192e5761192d6128de565b5b602001015160f81c60f81b60f81c60ff166101008361194d9190612868565b61195791906128aa565b915080806119649061290d565b915050611912565b50919050565b6000604051905090565b600080fd5b600080fd5b600073ffffffffffffffffffffffffffffffffffffffff82169050919050565b60006119b182611986565b9050919050565b6119c1816119a6565b81146119cc57600080fd5b50565b6000813590506119de816119b8565b92915050565b6000602082840312156119fa576119f961197c565b5b6000611a08848285016119cf565b91505092915050565b6000819050919050565b6000611a36611a31611a2c84611986565b611a11565b611986565b9050919050565b6000611a4882611a1b565b9050919050565b6000611a5a82611a3d565b9050919050565b611a6a81611a4f565b82525050565b6000602082019050611a856000830184611a61565b92915050565b6000819050919050565b611a9e81611a8b565b8114611aa957600080fd5b50565b600081359050611abb81611a95565b92915050565b600060208284031215611ad757611ad661197c565b5b6000611ae584828501611aac565b91505092915050565b600081519050919050565b600082825260208201905092915050565b60005b83811015611b28578082015181840152602081019050611b0d565b60008484015250505050565b6000601f19601f8301169050919050565b6000611b5082611aee565b611b5a8185611af9565b9350611b6a818560208601611b0a565b611b7381611b34565b840191505092915050565b611b87816119a6565b82525050565b60006040820190508181036000830152611ba78185611b45565b9050611bb66020830184611b7e565b9392505050565b6000819050919050565b611bd081611bbd565b8114611bdb57600080fd5b50565b600081359050611bed81611bc7565b92915050565b60008060408385031215611c0a57611c0961197c565b5b6000611c1885828601611bde565b9250506020611c2985828601611aac565b9150509250929050565b60008115159050919050565b611c4881611c33565b82525050565b611c5781611a8b565b82525050565b6000604082019050611c726000830185611c3f565b611c7f6020830184611c4e565b9392505050565b6000611c9182611a3d565b9050919050565b611ca181611c86565b82525050565b6000602082019050611cbc6000830184611c98565b92915050565b6000602082019050611cd76000830184611c3f565b92915050565b600080fd5b600081905082602060080282011115611cfe57611cfd611cdd565b5b92915050565b600080fd5b600080fd5b7f4e487b7100000000000000000000000000000000000000000000000000000000600052604160045260246000fd5b611d4682611b34565b810181811067ffffffffffffffff82111715611d6557611d64611d0e565b5b80604052505050565b6000611d78611972565b9050611d848282611d3d565b919050565b600067ffffffffffffffff821115611da457611da3611d0e565b5b611dad82611b34565b9050602081019050919050565b82818337600083830152505050565b6000611ddc611dd784611d89565b611d6e565b905082815260208101848484011115611df857611df7611d09565b5b611e03848285611dba565b509392505050565b600082601f830112611e2057611e1f611d04565b5b8135611e30848260208601611dc9565b91505092915050565b60008060008060006101808688031215611e5657611e5561197c565b5b6000611e64888289016119cf565b9550506020611e7588828901611aac565b9450506040611e8688828901611aac565b9350506060611e9788828901611ce2565b92505061016086013567ffffffffffffffff811115611eb957611eb8611981565b5b611ec588828901611e0b565b9150509295509295909350565b600081519050919050565b600082825260208201905092915050565b6000611ef982611ed2565b611f038185611edd565b9350611f13818560208601611b0a565b611f1c81611b34565b840191505092915050565b60006040820190508181036000830152611f418185611eee565b9050611f506020830184611c4e565b9392505050565b600067ffffffffffffffff821115611f7257611f71611d0e565b5b611f7b82611b34565b9050602081019050919050565b6000611f9b611f9684611f57565b611d6e565b905082815260208101848484011115611fb757611fb6611d09565b5b611fc2848285611dba565b509392505050565b600082601f830112611fdf57611fde611d04565b5b8135611fef848260208601611f88565b91505092915050565b60006020828403121561200e5761200d61197c565b5b600082013567ffffffffffffffff81111561202c5761202b611981565b5b61203884828501611fca565b91505092915050565b6000602082019050818103600083015261205b8184611b45565b905092915050565b6000602082840312156120795761207861197c565b5b600061208784828501611bde565b91505092915050565b60006020820190506120a56000830184611c4e565b92915050565b600060208201905081810360008301526120c58184611eee565b905092915050565b60006020820190506120e26000830184611b7e565b92915050565b6000819050919050565b6120fb816120e8565b82525050565b600060608201905061211660008301866120f2565b6121236020830185611c4e565b6121306040830184611c4e565b949350505050565b600080600080608085870312156121525761215161197c565b5b600061216087828801611bde565b945050602061217187828801611aac565b935050604061218287828801611aac565b925050606061219387828801611aac565b91505092959194509250565b600081519050919050565b600082825260208201905092915050565b6000819050602082019050919050565b600082825260208201905092915050565b60006121e782611ed2565b6121f181856121cb565b9350612201818560208601611b0a565b61220a81611b34565b840191505092915050565b600061222183836121dc565b905092915050565b6000602082019050919050565b60006122418261219f565b61224b81856121aa565b93508360208202850161225d856121bb565b8060005b85811015612299578484038952815161227a8582612215565b945061228583612229565b925060208a01995050600181019050612261565b50829750879550505050505092915050565b600081519050919050565b600082825260208201905092915050565b6000819050602082019050919050565b6122e081611a8b565b82525050565b60006122f283836122d7565b60208301905092915050565b6000602082019050919050565b6000612316826122ab565b61232081856122b6565b935061232b836122c7565b8060005b8381101561235c57815161234388826122e6565b975061234e836122fe565b92505060018101905061232f565b5085935050505092915050565b600060408201905081810360008301526123838185612236565b90508181036020830152612397818461230b565b90509392505050565b7f4e487b7100000000000000000000000000000000000000000000000000000000600052602260045260246000fd5b600060028204905060018216806123e757607f821691505b6020821081036123fa576123f96123a0565b5b50919050565b61240981611bbd565b82525050565b60006040820190506124246000830185612400565b6124316020830184611c4e565b9392505050565b61244181611c33565b811461244c57600080fd5b50565b60008151905061245e81612438565b92915050565b60008151905061247381611a95565b92915050565b600080604083850312156124905761248f61197c565b5b600061249e8582860161244f565b92505060206124af85828601612464565b9150509250929050565b6000602082840312156124cf576124ce61197c565b5b60006124dd8482850161244f565b91505092915050565b60008160601b9050919050565b60006124fe826124e6565b9050919050565b6000612510826124f3565b9050919050565b612528612523826119a6565b612505565b82525050565b600061253a8284612517565b60148201915081905092915050565b82818337505050565b61255f6101008383612549565b5050565b60006101a0820190506125796000830189611c4e565b6125866020830188611c4e565b6125936040830187611c4e565b6125a06060830186611c4e565b6125ad6080830185611c4e565b6125ba60a0830184612552565b979650505050505050565b60008190508160005260206000209050919050565b60006020601f8301049050919050565b600082821b905092915050565b6000600883026126277fffffffffffffffffffffffffffffffffffffffffffffffffffffffffffffffff826125ea565b61263186836125ea565b95508019841693508086168417925050509392505050565b600061266461265f61265a84611a8b565b611a11565b611a8b565b9050919050565b6000819050919050565b61267e83612649565b61269261268a8261266b565b8484546125f7565b825550505050565b600090565b6126a761269a565b6126b2818484612675565b505050565b5b818110156126d6576126cb60008261269f565b6001810190506126b8565b5050565b601f82111561271b576126ec816125c5565b6126f5846125da565b81016020851015612704578190505b612718612710856125da565b8301826126b7565b50505b505050565b600082821c905092915050565b600061273e60001984600802612720565b1980831691505092915050565b6000612757838361272d565b9150826002028217905092915050565b61277082611aee565b67ffffffffffffffff81111561278957612788611d0e565b5b61279382546123cf565b61279e8282856126da565b600060209050601f8311600181146127d157600084156127bf578287015190505b6127c9858261274b565b865550612831565b601f1984166127df866125c5565b60005b82811015612807578489015182556001820191506020850194506020810190506127e2565b868310156128245784890151612820601f89168261272d565b8355505b6001600288020188555050505b505050505050565b7f4e487b7100000000000000000000000000000000000000000000000000000000600052601160045260246000fd5b600061287382611a8b565b915061287e83611a8b565b925082820261288c81611a8b565b915082820484148315176128a3576128a2612839565b5b5092915050565b60006128b582611a8b565b91506128c083611a8b565b92508282019050808211156128d8576128d7612839565b5b92915050565b7f4e487b7100000000000000000000000000000000000000000000000000000000600052603260045260246000fd5b600061291882611a8b565b91507fffffffffffffffffffffffffffffffffffffffffffffffffffffffffffffffff820361294a57612949612839565b5b600182019050919050565b600060208201905061296a6000830184612400565b92915050565b6000602082840312156129865761298561197c565b5b600061299484828501612464565b91505092915050565b600081905092915050565b7f68747470733a2f2f6170692e636f76616c656e7468712e636f6d2f76312f383060008201527f3030312f616464726573732f0000000000000000000000000000000000000000602082015250565b6000612a04602c8361299d565b9150612a0f826129a8565b602c82019050919050565b6000612a2582611aee565b612a2f818561299d565b9350612a3f818560208601611b0a565b80840191505092915050565b7f2f62616c616e6365735f76322f3f71756f74652d63757272656e63793d55534460008201527f26666f726d61743d4a534f4e266e66743d74727565266e6f2d6e66742d66657460208201527f63683d66616c7365266b65793d636b65795f373963393937633765383038346560408201527f3066396466306166393832346300000000000000000000000000000000000000606082015250565b6000612af3606d8361299d565b9150612afe82612a4b565b606d82019050919050565b7f6974656d73000000000000000000000000000000000000000000000000000000815250565b6000612b3a826129f7565b9150612b468284612a1a565b9150612b5182612ae6565b9150612b5c82612b09565b60058201915081905092915050565b7f4e756d65726963417069526573706f6e73650000000000000000000000000000600082015250565b6000612ba1601283611af9565b9150612bac82612b6b565b602082019050919050565b60006040820190508181036000830152612bd081612b94565b90508181036020830152612be48184611eee565b905092915050565b6000612bf782611a8b565b9150612c0283611a8b565b9250828203905081811115612c1a57612c19612839565b5b92915050565b6000612c33612c2e84611f57565b611d6e565b905082815260208101848484011115612c4f57612c4e611d09565b5b612c5a848285611b0a565b509392505050565b600082601f830112612c7757612c76611d04565b5b8151612c87848260208601612c20565b91505092915050565b600080600060608486031215612ca957612ca861197c565b5b6000612cb78682870161244f565b935050602084015167ffffffffffffffff811115612cd857612cd7611981565b5b612ce486828701612c62565b9250506040612cf586828701612464565b9150509250925092565b600060208284031215612d1557612d1461197c565b5b600082015167ffffffffffffffff811115612d3357612d32611981565b5b612d3f84828501612c62565b91505092915050565b600081519050612d57816119b8565b92915050565b600060208284031215612d7357612d7261197c565b5b6000612d8184828501612d48565b91505092915050565b600081519050612d9981611bc7565b92915050565b600060208284031215612db557612db461197c565b5b6000612dc384828501612d8a565b91505092915050565b600081905092915050565b6000612de282611ed2565b612dec8185612dcc565b9350612dfc818560208601611b0a565b80840191505092915050565b6000612e148284612dd7565b91508190509291505056fea2646970667358221220be03d0047112df88ee94fe802183f4df52c1ad496c28267947b568efa0f358cf64736f6c63430008110033","opcodes":"PUSH1 0xC0 PUSH1 0x40 MSTORE PUSH1 0x1 PUSH1 0xA0 SWAP1 DUP2 MSTORE POP CALLVALUE DUP1 ISZERO PUSH3 0x19 JUMPI PUSH1 0x0 DUP1 REVERT JUMPDEST POP PUSH1 0x40 MLOAD PUSH3 0x3042 CODESIZE SUB DUP1 PUSH3 0x3042 DUP4 CODECOPY DUP2 DUP2 ADD PUSH1 0x40 MSTORE DUP2 ADD SWAP1 PUSH3 0x3F SWAP2 SWAP1 PUSH3 0x180 JUMP JUMPDEST DUP1 DUP1 PUSH1 0x0 DUP1 PUSH2 0x100 EXP DUP2 SLOAD DUP2 PUSH20 0xFFFFFFFFFFFFFFFFFFFFFFFFFFFFFFFFFFFFFFFF MUL NOT AND SWAP1 DUP4 PUSH20 0xFFFFFFFFFFFFFFFFFFFFFFFFFFFFFFFFFFFFFFFF AND MUL OR SWAP1 SSTORE POP POP DUP2 PUSH20 0xFFFFFFFFFFFFFFFFFFFFFFFFFFFFFFFFFFFFFFFF AND PUSH1 0x80 DUP2 PUSH20 0xFFFFFFFFFFFFFFFFFFFFFFFFFFFFFFFFFFFFFFFF AND DUP2 MSTORE POP POP POP POP PUSH3 0x1C7 JUMP JUMPDEST PUSH1 0x0 DUP1 REVERT JUMPDEST PUSH1 0x0 PUSH20 0xFFFFFFFFFFFFFFFFFFFFFFFFFFFFFFFFFFFFFFFF DUP3 AND SWAP1 POP SWAP2 SWAP1 POP JUMP JUMPDEST PUSH1 0x0 PUSH3 0xEF DUP3 PUSH3 0xC2 JUMP JUMPDEST SWAP1 POP SWAP2 SWAP1 POP JUMP JUMPDEST PUSH1 0x0 PUSH3 0x103 DUP3 PUSH3 0xE2 JUMP JUMPDEST SWAP1 POP SWAP2 SWAP1 POP JUMP JUMPDEST PUSH3 0x115 DUP2 PUSH3 0xF6 JUMP JUMPDEST DUP2 EQ PUSH3 0x121 JUMPI PUSH1 0x0 DUP1 REVERT JUMPDEST POP JUMP JUMPDEST PUSH1 0x0 DUP2 MLOAD SWAP1 POP PUSH3 0x135 DUP2 PUSH3 0x10A JUMP JUMPDEST SWAP3 SWAP2 POP POP JUMP JUMPDEST PUSH1 0x0 PUSH3 0x148 DUP3 PUSH3 0xC2 JUMP JUMPDEST SWAP1 POP SWAP2 SWAP1 POP JUMP JUMPDEST PUSH3 0x15A DUP2 PUSH3 0x13B JUMP JUMPDEST DUP2 EQ PUSH3 0x166 JUMPI PUSH1 0x0 DUP1 REVERT JUMPDEST POP JUMP JUMPDEST PUSH1 0x0 DUP2 MLOAD SWAP1 POP PUSH3 0x17A DUP2 PUSH3 0x14F JUMP JUMPDEST SWAP3 SWAP2 POP POP JUMP JUMPDEST PUSH1 0x0 DUP1 PUSH1 0x40 DUP4 DUP6 SUB SLT ISZERO PUSH3 0x19A JUMPI PUSH3 0x199 PUSH3 0xBD JUMP JUMPDEST JUMPDEST PUSH1 0x0 PUSH3 0x1AA DUP6 DUP3 DUP7 ADD PUSH3 0x124 JUMP JUMPDEST SWAP3 POP POP PUSH1 0x20 PUSH3 0x1BD DUP6 DUP3 DUP7 ADD PUSH3 0x169 JUMP JUMPDEST SWAP2 POP POP SWAP3 POP SWAP3 SWAP1 POP JUMP JUMPDEST PUSH1 0x80 MLOAD PUSH1 0xA0 MLOAD PUSH2 0x2E55 PUSH3 0x1ED PUSH1 0x0 CODECOPY PUSH1 0x0 PUSH2 0x840 ADD MSTORE PUSH1 0x0 PUSH2 0x803 ADD MSTORE PUSH2 0x2E55 PUSH1 0x0 RETURN INVALID PUSH1 0x80 PUSH1 0x40 MSTORE CALLVALUE DUP1 ISZERO PUSH2 0x10 JUMPI PUSH1 0x0 DUP1 REVERT JUMPDEST POP PUSH1 0x4 CALLDATASIZE LT PUSH2 0x121 JUMPI PUSH1 0x0 CALLDATALOAD PUSH1 0xE0 SHR DUP1 PUSH4 0x77B03E0D GT PUSH2 0xAD JUMPI DUP1 PUSH4 0xCE5E11BF GT PUSH2 0x71 JUMPI DUP1 PUSH4 0xCE5E11BF EQ PUSH2 0x36C JUMPI DUP1 PUSH4 0xE07C5486 EQ PUSH2 0x39C JUMPI DUP1 PUSH4 0xF66F49C3 EQ PUSH2 0x3CC JUMPI DUP1 PUSH4 0xF78EEA83 EQ PUSH2 0x3FD JUMPI DUP1 PUSH4 0xFCD4A546 EQ PUSH2 0x42F JUMPI PUSH2 0x121 JUMP JUMPDEST DUP1 PUSH4 0x77B03E0D EQ PUSH2 0x28D JUMPI DUP1 PUSH4 0x82DA2E57 EQ PUSH2 0x2BD JUMPI DUP1 PUSH4 0xA792765F EQ PUSH2 0x2DB JUMPI DUP1 PUSH4 0xACE417E0 EQ PUSH2 0x30C JUMPI DUP1 PUSH4 0xC5958AF9 EQ PUSH2 0x33C JUMPI PUSH2 0x121 JUMP JUMPDEST DUP1 PUSH4 0x2AF8AAE0 GT PUSH2 0xF4 JUMPI DUP1 PUSH4 0x2AF8AAE0 EQ PUSH2 0x1C2 JUMPI DUP1 PUSH4 0x44E87F91 EQ PUSH2 0x1E0 JUMPI DUP1 PUSH4 0x59DCA71F EQ PUSH2 0x210 JUMPI DUP1 PUSH4 0x64EE3C6D EQ PUSH2 0x22C JUMPI DUP1 PUSH4 0x71AAD10D EQ PUSH2 0x25D JUMPI PUSH2 0x121 JUMP JUMPDEST DUP1 PUSH4 0x193B505B EQ PUSH2 0x126 JUMPI DUP1 PUSH4 0x1959AD5B EQ PUSH2 0x142 JUMPI DUP1 PUSH4 0x1F79A1E9 EQ PUSH2 0x160 JUMPI DUP1 PUSH4 0x29449085 EQ PUSH2 0x191 JUMPI JUMPDEST PUSH1 0x0 DUP1 REVERT JUMPDEST PUSH2 0x140 PUSH1 0x4 DUP1 CALLDATASIZE SUB DUP2 ADD SWAP1 PUSH2 0x13B SWAP2 SWAP1 PUSH2 0x19E4 JUMP JUMPDEST PUSH2 0x460 JUMP JUMPDEST STOP JUMPDEST PUSH2 0x14A PUSH2 0x4FF JUMP JUMPDEST PUSH1 0x40 MLOAD PUSH2 0x157 SWAP2 SWAP1 PUSH2 0x1A70 JUMP JUMPDEST PUSH1 0x40 MLOAD DUP1 SWAP2 SUB SWAP1 RETURN JUMPDEST PUSH2 0x17A PUSH1 0x4 DUP1 CALLDATASIZE SUB DUP2 ADD SWAP1 PUSH2 0x175 SWAP2 SWAP1 PUSH2 0x1AC1 JUMP JUMPDEST PUSH2 0x523 JUMP JUMPDEST PUSH1 0x40 MLOAD PUSH2 0x188 SWAP3 SWAP2 SWAP1 PUSH2 0x1B8D JUMP JUMPDEST PUSH1 0x40 MLOAD DUP1 SWAP2 SUB SWAP1 RETURN JUMPDEST PUSH2 0x1AB PUSH1 0x4 DUP1 CALLDATASIZE SUB DUP2 ADD SWAP1 PUSH2 0x1A6 SWAP2 SWAP1 PUSH2 0x1BF3 JUMP JUMPDEST PUSH2 0x5EF JUMP JUMPDEST PUSH1 0x40 MLOAD PUSH2 0x1B9 SWAP3 SWAP2 SWAP1 PUSH2 0x1C5D JUMP JUMPDEST PUSH1 0x40 MLOAD DUP1 SWAP2 SUB SWAP1 RETURN JUMPDEST PUSH2 0x1CA PUSH2 0x698 JUMP JUMPDEST PUSH1 0x40 MLOAD PUSH2 0x1D7 SWAP2 SWAP1 PUSH2 0x1CA7 JUMP JUMPDEST PUSH1 0x40 MLOAD DUP1 SWAP2 SUB SWAP1 RETURN JUMPDEST PUSH2 0x1FA PUSH1 0x4 DUP1 CALLDATASIZE SUB DUP2 ADD SWAP1 PUSH2 0x1F5 SWAP2 SWAP1 PUSH2 0x1BF3 JUMP JUMPDEST PUSH2 0x6BE JUMP JUMPDEST PUSH1 0x40 MLOAD PUSH2 0x207 SWAP2 SWAP1 PUSH2 0x1CC2 JUMP JUMPDEST PUSH1 0x40 MLOAD DUP1 SWAP2 SUB SWAP1 RETURN JUMPDEST PUSH2 0x22A PUSH1 0x4 DUP1 CALLDATASIZE SUB DUP2 ADD SWAP1 PUSH2 0x225 SWAP2 SWAP1 PUSH2 0x1E39 JUMP JUMPDEST PUSH2 0x765 JUMP JUMPDEST STOP JUMPDEST PUSH2 0x246 PUSH1 0x4 DUP1 CALLDATASIZE SUB DUP2 ADD SWAP1 PUSH2 0x241 SWAP2 SWAP1 PUSH2 0x1BF3 JUMP JUMPDEST PUSH2 0x9FF JUMP JUMPDEST PUSH1 0x40 MLOAD PUSH2 0x254 SWAP3 SWAP2 SWAP1 PUSH2 0x1F27 JUMP JUMPDEST PUSH1 0x40 MLOAD DUP1 SWAP2 SUB SWAP1 RETURN JUMPDEST PUSH2 0x277 PUSH1 0x4 DUP1 CALLDATASIZE SUB DUP2 ADD SWAP1 PUSH2 0x272 SWAP2 SWAP1 PUSH2 0x1FF8 JUMP JUMPDEST PUSH2 0xA59 JUMP JUMPDEST PUSH1 0x40 MLOAD PUSH2 0x284 SWAP2 SWAP1 PUSH2 0x2041 JUMP JUMPDEST PUSH1 0x40 MLOAD DUP1 SWAP2 SUB SWAP1 RETURN JUMPDEST PUSH2 0x2A7 PUSH1 0x4 DUP1 CALLDATASIZE SUB DUP2 ADD SWAP1 PUSH2 0x2A2 SWAP2 SWAP1 PUSH2 0x2063 JUMP JUMPDEST PUSH2 0xD53 JUMP JUMPDEST PUSH1 0x40 MLOAD PUSH2 0x2B4 SWAP2 SWAP1 PUSH2 0x2090 JUMP JUMPDEST PUSH1 0x40 MLOAD DUP1 SWAP2 SUB SWAP1 RETURN JUMPDEST PUSH2 0x2C5 PUSH2 0xDF7 JUMP JUMPDEST PUSH1 0x40 MLOAD PUSH2 0x2D2 SWAP2 SWAP1 PUSH2 0x2090 JUMP JUMPDEST PUSH1 0x40 MLOAD DUP1 SWAP2 SUB SWAP1 RETURN JUMPDEST PUSH2 0x2F5 PUSH1 0x4 DUP1 CALLDATASIZE SUB DUP2 ADD SWAP1 PUSH2 0x2F0 SWAP2 SWAP1 PUSH2 0x1BF3 JUMP JUMPDEST PUSH2 0xEC8 JUMP JUMPDEST PUSH1 0x40 MLOAD PUSH2 0x303 SWAP3 SWAP2 SWAP1 PUSH2 0x1F27 JUMP JUMPDEST PUSH1 0x40 MLOAD DUP1 SWAP2 SUB SWAP1 RETURN JUMPDEST PUSH2 0x326 PUSH1 0x4 DUP1 CALLDATASIZE SUB DUP2 ADD SWAP1 PUSH2 0x321 SWAP2 SWAP1 PUSH2 0x19E4 JUMP JUMPDEST PUSH2 0xF80 JUMP JUMPDEST PUSH1 0x40 MLOAD PUSH2 0x333 SWAP2 SWAP1 PUSH2 0x1CC2 JUMP JUMPDEST PUSH1 0x40 MLOAD DUP1 SWAP2 SUB SWAP1 RETURN JUMPDEST PUSH2 0x356 PUSH1 0x4 DUP1 CALLDATASIZE SUB DUP2 ADD SWAP1 PUSH2 0x351 SWAP2 SWAP1 PUSH2 0x1BF3 JUMP JUMPDEST PUSH2 0xFA0 JUMP JUMPDEST PUSH1 0x40 MLOAD PUSH2 0x363 SWAP2 SWAP1 PUSH2 0x20AB JUMP JUMPDEST PUSH1 0x40 MLOAD DUP1 SWAP2 SUB SWAP1 RETURN JUMPDEST PUSH2 0x386 PUSH1 0x4 DUP1 CALLDATASIZE SUB DUP2 ADD SWAP1 PUSH2 0x381 SWAP2 SWAP1 PUSH2 0x1BF3 JUMP JUMPDEST PUSH2 0x104B JUMP JUMPDEST PUSH1 0x40 MLOAD PUSH2 0x393 SWAP2 SWAP1 PUSH2 0x2090 JUMP JUMPDEST PUSH1 0x40 MLOAD DUP1 SWAP2 SUB SWAP1 RETURN JUMPDEST PUSH2 0x3B6 PUSH1 0x4 DUP1 CALLDATASIZE SUB DUP2 ADD SWAP1 PUSH2 0x3B1 SWAP2 SWAP1 PUSH2 0x1BF3 JUMP JUMPDEST PUSH2 0x10F2 JUMP JUMPDEST PUSH1 0x40 MLOAD PUSH2 0x3C3 SWAP2 SWAP1 PUSH2 0x20CD JUMP JUMPDEST PUSH1 0x40 MLOAD DUP1 SWAP2 SUB SWAP1 RETURN JUMPDEST PUSH2 0x3E6 PUSH1 0x4 DUP1 CALLDATASIZE SUB DUP2 ADD SWAP1 PUSH2 0x3E1 SWAP2 SWAP1 PUSH2 0x1BF3 JUMP JUMPDEST PUSH2 0x1199 JUMP JUMPDEST PUSH1 0x40 MLOAD PUSH2 0x3F4 SWAP3 SWAP2 SWAP1 PUSH2 0x1C5D JUMP JUMPDEST PUSH1 0x40 MLOAD DUP1 SWAP2 SUB SWAP1 RETURN JUMPDEST PUSH2 0x417 PUSH1 0x4 DUP1 CALLDATASIZE SUB DUP2 ADD SWAP1 PUSH2 0x412 SWAP2 SWAP1 PUSH2 0x2063 JUMP JUMPDEST PUSH2 0x148A JUMP JUMPDEST PUSH1 0x40 MLOAD PUSH2 0x426 SWAP4 SWAP3 SWAP2 SWAP1 PUSH2 0x2101 JUMP JUMPDEST PUSH1 0x40 MLOAD DUP1 SWAP2 SUB SWAP1 RETURN JUMPDEST PUSH2 0x449 PUSH1 0x4 DUP1 CALLDATASIZE SUB DUP2 ADD SWAP1 PUSH2 0x444 SWAP2 SWAP1 PUSH2 0x2138 JUMP JUMPDEST PUSH2 0x15BB JUMP JUMPDEST PUSH1 0x40 MLOAD PUSH2 0x457 SWAP3 SWAP2 SWAP1 PUSH2 0x2369 JUMP JUMPDEST PUSH1 0x40 MLOAD DUP1 SWAP2 SUB SWAP1 RETURN JUMPDEST PUSH1 0x0 PUSH20 0xFFFFFFFFFFFFFFFFFFFFFFFFFFFFFFFFFFFFFFFF AND PUSH1 0x1 PUSH1 0x0 SWAP1 SLOAD SWAP1 PUSH2 0x100 EXP SWAP1 DIV PUSH20 0xFFFFFFFFFFFFFFFFFFFFFFFFFFFFFFFFFFFFFFFF AND PUSH20 0xFFFFFFFFFFFFFFFFFFFFFFFFFFFFFFFFFFFFFFFF AND EQ PUSH2 0x4BB JUMPI PUSH1 0x0 DUP1 REVERT JUMPDEST DUP1 PUSH1 0x1 PUSH1 0x0 PUSH2 0x100 EXP DUP2 SLOAD DUP2 PUSH20 0xFFFFFFFFFFFFFFFFFFFFFFFFFFFFFFFFFFFFFFFF MUL NOT AND SWAP1 DUP4 PUSH20 0xFFFFFFFFFFFFFFFFFFFFFFFFFFFFFFFFFFFFFFFF AND MUL OR SWAP1 SSTORE POP POP JUMP JUMPDEST PUSH1 0x0 DUP1 SLOAD SWAP1 PUSH2 0x100 EXP SWAP1 DIV PUSH20 0xFFFFFFFFFFFFFFFFFFFFFFFFFFFFFFFFFFFFFFFF AND DUP2 JUMP JUMPDEST PUSH1 0x3 PUSH1 0x20 MSTORE DUP1 PUSH1 0x0 MSTORE PUSH1 0x40 PUSH1 0x0 KECCAK256 PUSH1 0x0 SWAP2 POP SWAP1 POP DUP1 PUSH1 0x0 ADD DUP1 SLOAD PUSH2 0x546 SWAP1 PUSH2 0x23CF JUMP JUMPDEST DUP1 PUSH1 0x1F ADD PUSH1 0x20 DUP1 SWAP2 DIV MUL PUSH1 0x20 ADD PUSH1 0x40 MLOAD SWAP1 DUP2 ADD PUSH1 0x40 MSTORE DUP1 SWAP3 SWAP2 SWAP1 DUP2 DUP2 MSTORE PUSH1 0x20 ADD DUP3 DUP1 SLOAD PUSH2 0x572 SWAP1 PUSH2 0x23CF JUMP JUMPDEST DUP1 ISZERO PUSH2 0x5BF JUMPI DUP1 PUSH1 0x1F LT PUSH2 0x594 JUMPI PUSH2 0x100 DUP1 DUP4 SLOAD DIV MUL DUP4 MSTORE SWAP2 PUSH1 0x20 ADD SWAP2 PUSH2 0x5BF JUMP JUMPDEST DUP3 ADD SWAP2 SWAP1 PUSH1 0x0 MSTORE PUSH1 0x20 PUSH1 0x0 KECCAK256 SWAP1 JUMPDEST DUP2 SLOAD DUP2 MSTORE SWAP1 PUSH1 0x1 ADD SWAP1 PUSH1 0x20 ADD DUP1 DUP4 GT PUSH2 0x5A2 JUMPI DUP3 SWAP1 SUB PUSH1 0x1F AND DUP3 ADD SWAP2 JUMPDEST POP POP POP POP POP SWAP1 DUP1 PUSH1 0x1 ADD PUSH1 0x0 SWAP1 SLOAD SWAP1 PUSH2 0x100 EXP SWAP1 DIV PUSH20 0xFFFFFFFFFFFFFFFFFFFFFFFFFFFFFFFFFFFFFFFF AND SWAP1 POP DUP3 JUMP JUMPDEST PUSH1 0x0 DUP1 PUSH1 0x0 DUP1 SLOAD SWAP1 PUSH2 0x100 EXP SWAP1 DIV PUSH20 0xFFFFFFFFFFFFFFFFFFFFFFFFFFFFFFFFFFFFFFFF AND PUSH20 0xFFFFFFFFFFFFFFFFFFFFFFFFFFFFFFFFFFFFFFFF AND PUSH4 0x29449085 DUP6 DUP6 PUSH1 0x40 MLOAD DUP4 PUSH4 0xFFFFFFFF AND PUSH1 0xE0 SHL DUP2 MSTORE PUSH1 0x4 ADD PUSH2 0x64D SWAP3 SWAP2 SWAP1 PUSH2 0x240F JUMP JUMPDEST PUSH1 0x40 DUP1 MLOAD DUP1 DUP4 SUB DUP2 DUP7 GAS STATICCALL ISZERO DUP1 ISZERO PUSH2 0x669 JUMPI RETURNDATASIZE PUSH1 0x0 DUP1 RETURNDATACOPY RETURNDATASIZE PUSH1 0x0 REVERT JUMPDEST POP POP POP POP PUSH1 0x40 MLOAD RETURNDATASIZE PUSH1 0x1F NOT PUSH1 0x1F DUP3 ADD AND DUP3 ADD DUP1 PUSH1 0x40 MSTORE POP DUP2 ADD SWAP1 PUSH2 0x68D SWAP2 SWAP1 PUSH2 0x2479 JUMP JUMPDEST SWAP2 POP SWAP2 POP SWAP3 POP SWAP3 SWAP1 POP JUMP JUMPDEST PUSH1 0x1 PUSH1 0x0 SWAP1 SLOAD SWAP1 PUSH2 0x100 EXP SWAP1 DIV PUSH20 0xFFFFFFFFFFFFFFFFFFFFFFFFFFFFFFFFFFFFFFFF AND DUP2 JUMP JUMPDEST PUSH1 0x0 DUP1 PUSH1 0x0 SWAP1 SLOAD SWAP1 PUSH2 0x100 EXP SWAP1 DIV PUSH20 0xFFFFFFFFFFFFFFFFFFFFFFFFFFFFFFFFFFFFFFFF AND PUSH20 0xFFFFFFFFFFFFFFFFFFFFFFFFFFFFFFFFFFFFFFFF AND PUSH4 0x44E87F91 DUP5 DUP5 PUSH1 0x40 MLOAD DUP4 PUSH4 0xFFFFFFFF AND PUSH1 0xE0 SHL DUP2 MSTORE PUSH1 0x4 ADD PUSH2 0x71C SWAP3 SWAP2 SWAP1 PUSH2 0x240F JUMP JUMPDEST PUSH1 0x20 PUSH1 0x40 MLOAD DUP1 DUP4 SUB DUP2 DUP7 GAS STATICCALL ISZERO DUP1 ISZERO PUSH2 0x739 JUMPI RETURNDATASIZE PUSH1 0x0 DUP1 RETURNDATACOPY RETURNDATASIZE PUSH1 0x0 REVERT JUMPDEST POP POP POP POP PUSH1 0x40 MLOAD RETURNDATASIZE PUSH1 0x1F NOT PUSH1 0x1F DUP3 ADD AND DUP3 ADD DUP1 PUSH1 0x40 MSTORE POP DUP2 ADD SWAP1 PUSH2 0x75D SWAP2 SWAP1 PUSH2 0x24B9 JUMP JUMPDEST SWAP1 POP SWAP3 SWAP2 POP POP JUMP JUMPDEST PUSH1 0x0 PUSH20 0xFFFFFFFFFFFFFFFFFFFFFFFFFFFFFFFFFFFFFFFF AND PUSH1 0x3 PUSH1 0x0 DUP6 DUP2 MSTORE PUSH1 0x20 ADD SWAP1 DUP2 MSTORE PUSH1 0x20 ADD PUSH1 0x0 KECCAK256 PUSH1 0x1 ADD PUSH1 0x0 SWAP1 SLOAD SWAP1 PUSH2 0x100 EXP SWAP1 DIV PUSH20 0xFFFFFFFFFFFFFFFFFFFFFFFFFFFFFFFFFFFFFFFF AND PUSH20 0xFFFFFFFFFFFFFFFFFFFFFFFFFFFFFFFFFFFFFFFF AND EQ PUSH2 0x801 JUMPI PUSH1 0x40 MLOAD PUSH32 0x5D904CB200000000000000000000000000000000000000000000000000000000 DUP2 MSTORE PUSH1 0x4 ADD PUSH1 0x40 MLOAD DUP1 SWAP2 SUB SWAP1 REVERT JUMPDEST PUSH32 0x0 PUSH20 0xFFFFFFFFFFFFFFFFFFFFFFFFFFFFFFFFFFFFFFFF AND PUSH4 0x3BC778E3 DUP6 PUSH32 0x0 PUSH2 0x887 DUP10 PUSH1 0x40 MLOAD PUSH1 0x20 ADD PUSH2 0x873 SWAP2 SWAP1 PUSH2 0x252E JUMP JUMPDEST PUSH1 0x40 MLOAD PUSH1 0x20 DUP2 DUP4 SUB SUB DUP2 MSTORE SWAP1 PUSH1 0x40 MSTORE PUSH2 0x18D3 JUMP JUMPDEST DUP8 PUSH2 0x8B0 ADDRESS PUSH1 0x40 MLOAD PUSH1 0x20 ADD PUSH2 0x89C SWAP2 SWAP1 PUSH2 0x252E JUMP JUMPDEST PUSH1 0x40 MLOAD PUSH1 0x20 DUP2 DUP4 SUB SUB DUP2 MSTORE SWAP1 PUSH1 0x40 MSTORE PUSH2 0x18D3 JUMP JUMPDEST DUP9 PUSH1 0x40 MLOAD DUP8 PUSH4 0xFFFFFFFF AND PUSH1 0xE0 SHL DUP2 MSTORE PUSH1 0x4 ADD PUSH2 0x8D2 SWAP7 SWAP6 SWAP5 SWAP4 SWAP3 SWAP2 SWAP1 PUSH2 0x2563 JUMP JUMPDEST PUSH1 0x0 PUSH1 0x40 MLOAD DUP1 DUP4 SUB DUP2 DUP7 DUP1 EXTCODESIZE ISZERO DUP1 ISZERO PUSH2 0x8EA JUMPI PUSH1 0x0 DUP1 REVERT JUMPDEST POP GAS STATICCALL ISZERO DUP1 ISZERO PUSH2 0x8FE JUMPI RETURNDATASIZE PUSH1 0x0 DUP1 RETURNDATACOPY RETURNDATASIZE PUSH1 0x0 REVERT JUMPDEST POP POP POP POP PUSH1 0x40 MLOAD DUP1 PUSH1 0x40 ADD PUSH1 0x40 MSTORE DUP1 DUP3 DUP2 MSTORE PUSH1 0x20 ADD CALLER PUSH20 0xFFFFFFFFFFFFFFFFFFFFFFFFFFFFFFFFFFFFFFFF AND DUP2 MSTORE POP PUSH1 0x3 PUSH1 0x0 DUP6 DUP2 MSTORE PUSH1 0x20 ADD SWAP1 DUP2 MSTORE PUSH1 0x20 ADD PUSH1 0x0 KECCAK256 PUSH1 0x0 DUP3 ADD MLOAD DUP2 PUSH1 0x0 ADD SWAP1 DUP2 PUSH2 0x955 SWAP2 SWAP1 PUSH2 0x2767 JUMP JUMPDEST POP PUSH1 0x20 DUP3 ADD MLOAD DUP2 PUSH1 0x1 ADD PUSH1 0x0 PUSH2 0x100 EXP DUP2 SLOAD DUP2 PUSH20 0xFFFFFFFFFFFFFFFFFFFFFFFFFFFFFFFFFFFFFFFF MUL NOT AND SWAP1 DUP4 PUSH20 0xFFFFFFFFFFFFFFFFFFFFFFFFFFFFFFFFFFFFFFFF AND MUL OR SWAP1 SSTORE POP SWAP1 POP POP PUSH1 0x1 PUSH1 0x2 PUSH1 0x0 CALLER PUSH20 0xFFFFFFFFFFFFFFFFFFFFFFFFFFFFFFFFFFFFFFFF AND PUSH20 0xFFFFFFFFFFFFFFFFFFFFFFFFFFFFFFFFFFFFFFFF AND DUP2 MSTORE PUSH1 0x20 ADD SWAP1 DUP2 MSTORE PUSH1 0x20 ADD PUSH1 0x0 KECCAK256 PUSH1 0x0 PUSH2 0x100 EXP DUP2 SLOAD DUP2 PUSH1 0xFF MUL NOT AND SWAP1 DUP4 ISZERO ISZERO MUL OR SWAP1 SSTORE POP POP POP POP POP POP JUMP JUMPDEST PUSH1 0x60 PUSH1 0x0 DUP1 PUSH1 0x0 PUSH2 0xA10 DUP7 DUP7 PUSH2 0x1199 JUMP JUMPDEST SWAP2 POP SWAP2 POP DUP2 PUSH2 0xA37 JUMPI PUSH1 0x0 PUSH1 0x40 MLOAD DUP1 PUSH1 0x20 ADD PUSH1 0x40 MSTORE DUP1 PUSH1 0x0 DUP2 MSTORE POP SWAP1 SWAP4 POP SWAP4 POP POP POP PUSH2 0xA52 JUMP JUMPDEST PUSH2 0xA41 DUP7 DUP3 PUSH2 0x104B JUMP JUMPDEST SWAP3 POP PUSH2 0xA4D DUP7 DUP5 PUSH2 0xFA0 JUMP JUMPDEST SWAP4 POP POP POP JUMPDEST SWAP3 POP SWAP3 SWAP1 POP JUMP JUMPDEST PUSH1 0x60 PUSH1 0x0 PUSH1 0x40 MLOAD DUP1 PUSH1 0x40 ADD PUSH1 0x40 MSTORE DUP1 PUSH1 0x10 DUP2 MSTORE PUSH1 0x20 ADD PUSH32 0x3031323334353637383961626364656600000000000000000000000000000000 DUP2 MSTORE POP SWAP1 POP PUSH1 0x0 PUSH1 0x2 DUP5 MLOAD PUSH2 0xAA5 SWAP2 SWAP1 PUSH2 0x2868 JUMP JUMPDEST PUSH1 0x2 PUSH2 0xAB1 SWAP2 SWAP1 PUSH2 0x28AA JUMP JUMPDEST PUSH8 0xFFFFFFFFFFFFFFFF DUP2 GT ISZERO PUSH2 0xACA JUMPI PUSH2 0xAC9 PUSH2 0x1D0E JUMP JUMPDEST JUMPDEST PUSH1 0x40 MLOAD SWAP1 DUP1 DUP3 MSTORE DUP1 PUSH1 0x1F ADD PUSH1 0x1F NOT AND PUSH1 0x20 ADD DUP3 ADD PUSH1 0x40 MSTORE DUP1 ISZERO PUSH2 0xAFC JUMPI DUP2 PUSH1 0x20 ADD PUSH1 0x1 DUP3 MUL DUP1 CALLDATASIZE DUP4 CALLDATACOPY DUP1 DUP3 ADD SWAP2 POP POP SWAP1 POP JUMPDEST POP SWAP1 POP PUSH32 0x3000000000000000000000000000000000000000000000000000000000000000 DUP2 PUSH1 0x0 DUP2 MLOAD DUP2 LT PUSH2 0xB34 JUMPI PUSH2 0xB33 PUSH2 0x28DE JUMP JUMPDEST JUMPDEST PUSH1 0x20 ADD ADD SWAP1 PUSH31 0xFFFFFFFFFFFFFFFFFFFFFFFFFFFFFFFFFFFFFFFFFFFFFFFFFFFFFFFFFFFFFF NOT AND SWAP1 DUP2 PUSH1 0x0 BYTE SWAP1 MSTORE8 POP PUSH32 0x7800000000000000000000000000000000000000000000000000000000000000 DUP2 PUSH1 0x1 DUP2 MLOAD DUP2 LT PUSH2 0xB98 JUMPI PUSH2 0xB97 PUSH2 0x28DE JUMP JUMPDEST JUMPDEST PUSH1 0x20 ADD ADD SWAP1 PUSH31 0xFFFFFFFFFFFFFFFFFFFFFFFFFFFFFFFFFFFFFFFFFFFFFFFFFFFFFFFFFFFFFF NOT AND SWAP1 DUP2 PUSH1 0x0 BYTE SWAP1 MSTORE8 POP PUSH1 0x0 JUMPDEST DUP5 MLOAD DUP2 LT ISZERO PUSH2 0xD48 JUMPI DUP3 PUSH1 0x4 DUP7 DUP4 DUP2 MLOAD DUP2 LT PUSH2 0xBE9 JUMPI PUSH2 0xBE8 PUSH2 0x28DE JUMP JUMPDEST JUMPDEST PUSH1 0x20 ADD ADD MLOAD PUSH1 0xF8 SHR PUSH1 0xF8 SHL PUSH31 0xFFFFFFFFFFFFFFFFFFFFFFFFFFFFFFFFFFFFFFFFFFFFFFFFFFFFFFFFFFFFFF NOT AND SWAP1 SHR PUSH1 0xF8 SHR PUSH1 0xFF AND DUP2 MLOAD DUP2 LT PUSH2 0xC2F JUMPI PUSH2 0xC2E PUSH2 0x28DE JUMP JUMPDEST JUMPDEST PUSH1 0x20 ADD ADD MLOAD PUSH1 0xF8 SHR PUSH1 0xF8 SHL DUP3 PUSH1 0x2 DUP4 PUSH2 0xC48 SWAP2 SWAP1 PUSH2 0x2868 JUMP JUMPDEST PUSH1 0x2 PUSH2 0xC54 SWAP2 SWAP1 PUSH2 0x28AA JUMP JUMPDEST DUP2 MLOAD DUP2 LT PUSH2 0xC65 JUMPI PUSH2 0xC64 PUSH2 0x28DE JUMP JUMPDEST JUMPDEST PUSH1 0x20 ADD ADD SWAP1 PUSH31 0xFFFFFFFFFFFFFFFFFFFFFFFFFFFFFFFFFFFFFFFFFFFFFFFFFFFFFFFFFFFFFF NOT AND SWAP1 DUP2 PUSH1 0x0 BYTE SWAP1 MSTORE8 POP DUP3 PUSH1 0xF PUSH1 0xF8 SHL DUP7 DUP4 DUP2 MLOAD DUP2 LT PUSH2 0xCAD JUMPI PUSH2 0xCAC PUSH2 0x28DE JUMP JUMPDEST JUMPDEST PUSH1 0x20 ADD ADD MLOAD PUSH1 0xF8 SHR PUSH1 0xF8 SHL AND PUSH1 0xF8 SHR PUSH1 0xFF AND DUP2 MLOAD DUP2 LT PUSH2 0xCD0 JUMPI PUSH2 0xCCF PUSH2 0x28DE JUMP JUMPDEST JUMPDEST PUSH1 0x20 ADD ADD MLOAD PUSH1 0xF8 SHR PUSH1 0xF8 SHL DUP3 PUSH1 0x2 DUP4 PUSH2 0xCE9 SWAP2 SWAP1 PUSH2 0x2868 JUMP JUMPDEST PUSH1 0x3 PUSH2 0xCF5 SWAP2 SWAP1 PUSH2 0x28AA JUMP JUMPDEST DUP2 MLOAD DUP2 LT PUSH2 0xD06 JUMPI PUSH2 0xD05 PUSH2 0x28DE JUMP JUMPDEST JUMPDEST PUSH1 0x20 ADD ADD SWAP1 PUSH31 0xFFFFFFFFFFFFFFFFFFFFFFFFFFFFFFFFFFFFFFFFFFFFFFFFFFFFFFFFFFFFFF NOT AND SWAP1 DUP2 PUSH1 0x0 BYTE SWAP1 MSTORE8 POP DUP1 DUP1 PUSH2 0xD40 SWAP1 PUSH2 0x290D JUMP JUMPDEST SWAP2 POP POP PUSH2 0xBCA JUMP JUMPDEST POP DUP1 SWAP3 POP POP POP SWAP2 SWAP1 POP JUMP JUMPDEST PUSH1 0x0 DUP1 PUSH1 0x0 SWAP1 SLOAD SWAP1 PUSH2 0x100 EXP SWAP1 DIV PUSH20 0xFFFFFFFFFFFFFFFFFFFFFFFFFFFFFFFFFFFFFFFF AND PUSH20 0xFFFFFFFFFFFFFFFFFFFFFFFFFFFFFFFFFFFFFFFF AND PUSH4 0x77B03E0D DUP4 PUSH1 0x40 MLOAD DUP3 PUSH4 0xFFFFFFFF AND PUSH1 0xE0 SHL DUP2 MSTORE PUSH1 0x4 ADD PUSH2 0xDAF SWAP2 SWAP1 PUSH2 0x2955 JUMP JUMPDEST PUSH1 0x20 PUSH1 0x40 MLOAD DUP1 DUP4 SUB DUP2 DUP7 GAS STATICCALL ISZERO DUP1 ISZERO PUSH2 0xDCC JUMPI RETURNDATASIZE PUSH1 0x0 DUP1 RETURNDATACOPY RETURNDATASIZE PUSH1 0x0 REVERT JUMPDEST POP POP POP POP PUSH1 0x40 MLOAD RETURNDATASIZE PUSH1 0x1F NOT PUSH1 0x1F DUP3 ADD AND DUP3 ADD DUP1 PUSH1 0x40 MSTORE POP DUP2 ADD SWAP1 PUSH2 0xDF0 SWAP2 SWAP1 PUSH2 0x2970 JUMP JUMPDEST SWAP1 POP SWAP2 SWAP1 POP JUMP JUMPDEST PUSH1 0x0 DUP1 PUSH2 0xE22 CALLER PUSH1 0x40 MLOAD PUSH1 0x20 ADD PUSH2 0xE0E SWAP2 SWAP1 PUSH2 0x252E JUMP JUMPDEST PUSH1 0x40 MLOAD PUSH1 0x20 DUP2 DUP4 SUB SUB DUP2 MSTORE SWAP1 PUSH1 0x40 MSTORE PUSH2 0xA59 JUMP JUMPDEST PUSH1 0x40 MLOAD PUSH1 0x20 ADD PUSH2 0xE32 SWAP2 SWAP1 PUSH2 0x2B2F JUMP JUMPDEST PUSH1 0x40 MLOAD PUSH1 0x20 DUP2 DUP4 SUB SUB DUP2 MSTORE SWAP1 PUSH1 0x40 MSTORE PUSH1 0x40 MLOAD PUSH1 0x20 ADD PUSH2 0xE51 SWAP2 SWAP1 PUSH2 0x2041 JUMP JUMPDEST PUSH1 0x40 MLOAD PUSH1 0x20 DUP2 DUP4 SUB SUB DUP2 MSTORE SWAP1 PUSH1 0x40 MSTORE PUSH1 0x40 MLOAD PUSH1 0x20 ADD PUSH2 0xE70 SWAP2 SWAP1 PUSH2 0x2BB7 JUMP JUMPDEST PUSH1 0x40 MLOAD PUSH1 0x20 DUP2 DUP4 SUB SUB DUP2 MSTORE SWAP1 PUSH1 0x40 MSTORE SWAP1 POP PUSH1 0x0 DUP2 DUP1 MLOAD SWAP1 PUSH1 0x20 ADD KECCAK256 SWAP1 POP PUSH1 0x0 DUP1 PUSH2 0xEA7 DUP4 PUSH2 0x384 TIMESTAMP PUSH2 0xEA2 SWAP2 SWAP1 PUSH2 0x2BEC JUMP JUMPDEST PUSH2 0xEC8 JUMP JUMPDEST SWAP2 POP SWAP2 POP DUP2 DUP1 PUSH1 0x20 ADD SWAP1 MLOAD DUP2 ADD SWAP1 PUSH2 0xEBF SWAP2 SWAP1 PUSH2 0x2970 JUMP JUMPDEST SWAP5 POP POP POP POP POP SWAP1 JUMP JUMPDEST PUSH1 0x60 PUSH1 0x0 DUP1 PUSH1 0x0 SWAP1 SLOAD SWAP1 PUSH2 0x100 EXP SWAP1 DIV PUSH20 0xFFFFFFFFFFFFFFFFFFFFFFFFFFFFFFFFFFFFFFFF AND PUSH20 0xFFFFFFFFFFFFFFFFFFFFFFFFFFFFFFFFFFFFFFFF AND PUSH4 0xA792765F DUP6 DUP6 PUSH1 0x40 MLOAD DUP4 PUSH4 0xFFFFFFFF AND PUSH1 0xE0 SHL DUP2 MSTORE PUSH1 0x4 ADD PUSH2 0xF28 SWAP3 SWAP2 SWAP1 PUSH2 0x240F JUMP JUMPDEST PUSH1 0x0 PUSH1 0x40 MLOAD DUP1 DUP4 SUB DUP2 DUP7 GAS STATICCALL ISZERO DUP1 ISZERO PUSH2 0xF45 JUMPI RETURNDATASIZE PUSH1 0x0 DUP1 RETURNDATACOPY RETURNDATASIZE PUSH1 0x0 REVERT JUMPDEST POP POP POP POP PUSH1 0x40 MLOAD RETURNDATASIZE PUSH1 0x0 DUP3 RETURNDATACOPY RETURNDATASIZE PUSH1 0x1F NOT PUSH1 0x1F DUP3 ADD AND DUP3 ADD DUP1 PUSH1 0x40 MSTORE POP DUP2 ADD SWAP1 PUSH2 0xF6E SWAP2 SWAP1 PUSH2 0x2C90 JUMP JUMPDEST SWAP1 SWAP2 POP DUP1 SWAP3 POP DUP2 SWAP4 POP POP POP SWAP3 POP SWAP3 SWAP1 POP JUMP JUMPDEST PUSH1 0x2 PUSH1 0x20 MSTORE DUP1 PUSH1 0x0 MSTORE PUSH1 0x40 PUSH1 0x0 KECCAK256 PUSH1 0x0 SWAP2 POP SLOAD SWAP1 PUSH2 0x100 EXP SWAP1 DIV PUSH1 0xFF AND DUP2 JUMP JUMPDEST PUSH1 0x60 PUSH1 0x0 DUP1 SLOAD SWAP1 PUSH2 0x100 EXP SWAP1 DIV PUSH20 0xFFFFFFFFFFFFFFFFFFFFFFFFFFFFFFFFFFFFFFFF AND PUSH20 0xFFFFFFFFFFFFFFFFFFFFFFFFFFFFFFFFFFFFFFFF AND PUSH4 0xC5958AF9 DUP5 DUP5 PUSH1 0x40 MLOAD DUP4 PUSH4 0xFFFFFFFF AND PUSH1 0xE0 SHL DUP2 MSTORE PUSH1 0x4 ADD PUSH2 0xFFD SWAP3 SWAP2 SWAP1 PUSH2 0x240F JUMP JUMPDEST PUSH1 0x0 PUSH1 0x40 MLOAD DUP1 DUP4 SUB DUP2 DUP7 GAS STATICCALL ISZERO DUP1 ISZERO PUSH2 0x101A JUMPI RETURNDATASIZE PUSH1 0x0 DUP1 RETURNDATACOPY RETURNDATASIZE PUSH1 0x0 REVERT JUMPDEST POP POP POP POP PUSH1 0x40 MLOAD RETURNDATASIZE PUSH1 0x0 DUP3 RETURNDATACOPY RETURNDATASIZE PUSH1 0x1F NOT PUSH1 0x1F DUP3 ADD AND DUP3 ADD DUP1 PUSH1 0x40 MSTORE POP DUP2 ADD SWAP1 PUSH2 0x1043 SWAP2 SWAP1 PUSH2 0x2CFF JUMP JUMPDEST SWAP1 POP SWAP3 SWAP2 POP POP JUMP JUMPDEST PUSH1 0x0 DUP1 PUSH1 0x0 SWAP1 SLOAD SWAP1 PUSH2 0x100 EXP SWAP1 DIV PUSH20 0xFFFFFFFFFFFFFFFFFFFFFFFFFFFFFFFFFFFFFFFF AND PUSH20 0xFFFFFFFFFFFFFFFFFFFFFFFFFFFFFFFFFFFFFFFF AND PUSH4 0xCE5E11BF DUP5 DUP5 PUSH1 0x40 MLOAD DUP4 PUSH4 0xFFFFFFFF AND PUSH1 0xE0 SHL DUP2 MSTORE PUSH1 0x4 ADD PUSH2 0x10A9 SWAP3 SWAP2 SWAP1 PUSH2 0x240F JUMP JUMPDEST PUSH1 0x20 PUSH1 0x40 MLOAD DUP1 DUP4 SUB DUP2 DUP7 GAS STATICCALL ISZERO DUP1 ISZERO PUSH2 0x10C6 JUMPI RETURNDATASIZE PUSH1 0x0 DUP1 RETURNDATACOPY RETURNDATASIZE PUSH1 0x0 REVERT JUMPDEST POP POP POP POP PUSH1 0x40 MLOAD RETURNDATASIZE PUSH1 0x1F NOT PUSH1 0x1F DUP3 ADD AND DUP3 ADD DUP1 PUSH1 0x40 MSTORE POP DUP2 ADD SWAP1 PUSH2 0x10EA SWAP2 SWAP1 PUSH2 0x2970 JUMP JUMPDEST SWAP1 POP SWAP3 SWAP2 POP POP JUMP JUMPDEST PUSH1 0x0 DUP1 PUSH1 0x0 SWAP1 SLOAD SWAP1 PUSH2 0x100 EXP SWAP1 DIV PUSH20 0xFFFFFFFFFFFFFFFFFFFFFFFFFFFFFFFFFFFFFFFF AND PUSH20 0xFFFFFFFFFFFFFFFFFFFFFFFFFFFFFFFFFFFFFFFF AND PUSH4 0xE07C5486 DUP5 DUP5 PUSH1 0x40 MLOAD DUP4 PUSH4 0xFFFFFFFF AND PUSH1 0xE0 SHL DUP2 MSTORE PUSH1 0x4 ADD PUSH2 0x1150 SWAP3 SWAP2 SWAP1 PUSH2 0x240F JUMP JUMPDEST PUSH1 0x20 PUSH1 0x40 MLOAD DUP1 DUP4 SUB DUP2 DUP7 GAS STATICCALL ISZERO DUP1 ISZERO PUSH2 0x116D JUMPI RETURNDATASIZE PUSH1 0x0 DUP1 RETURNDATACOPY RETURNDATASIZE PUSH1 0x0 REVERT JUMPDEST POP POP POP POP PUSH1 0x40 MLOAD RETURNDATASIZE PUSH1 0x1F NOT PUSH1 0x1F DUP3 ADD AND DUP3 ADD DUP1 PUSH1 0x40 MSTORE POP DUP2 ADD SWAP1 PUSH2 0x1191 SWAP2 SWAP1 PUSH2 0x2D5D JUMP JUMPDEST SWAP1 POP SWAP3 SWAP2 POP POP JUMP JUMPDEST PUSH1 0x0 DUP1 PUSH1 0x0 DUP1 SLOAD SWAP1 PUSH2 0x100 EXP SWAP1 DIV PUSH20 0xFFFFFFFFFFFFFFFFFFFFFFFFFFFFFFFFFFFFFFFF AND PUSH20 0xFFFFFFFFFFFFFFFFFFFFFFFFFFFFFFFFFFFFFFFF AND PUSH4 0x29449085 DUP6 DUP6 PUSH1 0x40 MLOAD DUP4 PUSH4 0xFFFFFFFF AND PUSH1 0xE0 SHL DUP2 MSTORE PUSH1 0x4 ADD PUSH2 0x11F7 SWAP3 SWAP2 SWAP1 PUSH2 0x240F JUMP JUMPDEST PUSH1 0x40 DUP1 MLOAD DUP1 DUP4 SUB DUP2 DUP7 GAS STATICCALL ISZERO DUP1 ISZERO PUSH2 0x1213 JUMPI RETURNDATASIZE PUSH1 0x0 DUP1 RETURNDATACOPY RETURNDATASIZE PUSH1 0x0 REVERT JUMPDEST POP POP POP POP PUSH1 0x40 MLOAD RETURNDATASIZE PUSH1 0x1F NOT PUSH1 0x1F DUP3 ADD AND DUP3 ADD DUP1 PUSH1 0x40 MSTORE POP DUP2 ADD SWAP1 PUSH2 0x1237 SWAP2 SWAP1 PUSH2 0x2479 JUMP JUMPDEST DUP1 SWAP3 POP DUP2 SWAP4 POP POP POP DUP2 ISZERO PUSH2 0x1254 JUMPI DUP1 DUP1 PUSH2 0x1250 SWAP1 PUSH2 0x290D JUMP JUMPDEST SWAP2 POP POP JUMPDEST PUSH1 0x0 DUP1 PUSH1 0x0 SWAP1 SLOAD SWAP1 PUSH2 0x100 EXP SWAP1 DIV PUSH20 0xFFFFFFFFFFFFFFFFFFFFFFFFFFFFFFFFFFFFFFFF AND PUSH20 0xFFFFFFFFFFFFFFFFFFFFFFFFFFFFFFFFFFFFFFFF AND PUSH4 0x77B03E0D DUP7 PUSH1 0x40 MLOAD DUP3 PUSH4 0xFFFFFFFF AND PUSH1 0xE0 SHL DUP2 MSTORE PUSH1 0x4 ADD PUSH2 0x12B0 SWAP2 SWAP1 PUSH2 0x2955 JUMP JUMPDEST PUSH1 0x20 PUSH1 0x40 MLOAD DUP1 DUP4 SUB DUP2 DUP7 GAS STATICCALL ISZERO DUP1 ISZERO PUSH2 0x12CD JUMPI RETURNDATASIZE PUSH1 0x0 DUP1 RETURNDATACOPY RETURNDATASIZE PUSH1 0x0 REVERT JUMPDEST POP POP POP POP PUSH1 0x40 MLOAD RETURNDATASIZE PUSH1 0x1F NOT PUSH1 0x1F DUP3 ADD AND DUP3 ADD DUP1 PUSH1 0x40 MSTORE POP DUP2 ADD SWAP1 PUSH2 0x12F1 SWAP2 SWAP1 PUSH2 0x2970 JUMP JUMPDEST SWAP1 POP DUP2 DUP2 GT PUSH2 0x1307 JUMPI PUSH1 0x0 DUP1 SWAP3 POP SWAP3 POP POP PUSH2 0x1483 JUMP JUMPDEST PUSH1 0x0 DUP1 PUSH1 0x0 SWAP1 SLOAD SWAP1 PUSH2 0x100 EXP SWAP1 DIV PUSH20 0xFFFFFFFFFFFFFFFFFFFFFFFFFFFFFFFFFFFFFFFF AND PUSH20 0xFFFFFFFFFFFFFFFFFFFFFFFFFFFFFFFFFFFFFFFF AND PUSH4 0xCE5E11BF DUP8 DUP6 PUSH1 0x40 MLOAD DUP4 PUSH4 0xFFFFFFFF AND PUSH1 0xE0 SHL DUP2 MSTORE PUSH1 0x4 ADD PUSH2 0x1365 SWAP3 SWAP2 SWAP1 PUSH2 0x240F JUMP JUMPDEST PUSH1 0x20 PUSH1 0x40 MLOAD DUP1 DUP4 SUB DUP2 DUP7 GAS STATICCALL ISZERO DUP1 ISZERO PUSH2 0x1382 JUMPI RETURNDATASIZE PUSH1 0x0 DUP1 RETURNDATACOPY RETURNDATASIZE PUSH1 0x0 REVERT JUMPDEST POP POP POP POP PUSH1 0x40 MLOAD RETURNDATASIZE PUSH1 0x1F NOT PUSH1 0x1F DUP3 ADD AND DUP3 ADD DUP1 PUSH1 0x40 MSTORE POP DUP2 ADD SWAP1 PUSH2 0x13A6 SWAP2 SWAP1 PUSH2 0x2970 JUMP JUMPDEST SWAP1 POP DUP5 DUP2 GT ISZERO PUSH2 0x13BB JUMPI PUSH1 0x1 SWAP4 POP POP POP PUSH2 0x1483 JUMP JUMPDEST DUP3 DUP1 PUSH2 0x13C6 SWAP1 PUSH2 0x290D JUMP JUMPDEST SWAP4 POP POP DUP3 DUP3 GT PUSH2 0x13DE JUMPI PUSH1 0x0 DUP1 SWAP4 POP SWAP4 POP POP POP PUSH2 0x1483 JUMP JUMPDEST PUSH1 0x0 DUP1 SLOAD SWAP1 PUSH2 0x100 EXP SWAP1 DIV PUSH20 0xFFFFFFFFFFFFFFFFFFFFFFFFFFFFFFFFFFFFFFFF AND PUSH20 0xFFFFFFFFFFFFFFFFFFFFFFFFFFFFFFFFFFFFFFFF AND PUSH4 0xCE5E11BF DUP8 DUP6 PUSH1 0x40 MLOAD DUP4 PUSH4 0xFFFFFFFF AND PUSH1 0xE0 SHL DUP2 MSTORE PUSH1 0x4 ADD PUSH2 0x1439 SWAP3 SWAP2 SWAP1 PUSH2 0x240F JUMP JUMPDEST PUSH1 0x20 PUSH1 0x40 MLOAD DUP1 DUP4 SUB DUP2 DUP7 GAS STATICCALL ISZERO DUP1 ISZERO PUSH2 0x1456 JUMPI RETURNDATASIZE PUSH1 0x0 DUP1 RETURNDATACOPY RETURNDATASIZE PUSH1 0x0 REVERT JUMPDEST POP POP POP POP PUSH1 0x40 MLOAD RETURNDATASIZE PUSH1 0x1F NOT PUSH1 0x1F DUP3 ADD AND DUP3 ADD DUP1 PUSH1 0x40 MSTORE POP DUP2 ADD SWAP1 PUSH2 0x147A SWAP2 SWAP1 PUSH2 0x2970 JUMP JUMPDEST SWAP1 POP PUSH1 0x1 SWAP4 POP POP POP JUMPDEST SWAP3 POP SWAP3 SWAP1 POP JUMP JUMPDEST PUSH1 0x0 DUP1 PUSH1 0x0 PUSH1 0x1 PUSH1 0x0 SWAP1 SLOAD SWAP1 PUSH2 0x100 EXP SWAP1 DIV PUSH20 0xFFFFFFFFFFFFFFFFFFFFFFFFFFFFFFFFFFFFFFFF AND PUSH20 0xFFFFFFFFFFFFFFFFFFFFFFFFFFFFFFFFFFFFFFFF AND PUSH4 0x87A475FD DUP6 PUSH1 0x40 MLOAD DUP3 PUSH4 0xFFFFFFFF AND PUSH1 0xE0 SHL DUP2 MSTORE PUSH1 0x4 ADD PUSH2 0x14EA SWAP2 SWAP1 PUSH2 0x2955 JUMP JUMPDEST PUSH1 0x20 PUSH1 0x40 MLOAD DUP1 DUP4 SUB DUP2 DUP7 GAS STATICCALL ISZERO DUP1 ISZERO PUSH2 0x1507 JUMPI RETURNDATASIZE PUSH1 0x0 DUP1 RETURNDATACOPY RETURNDATASIZE PUSH1 0x0 REVERT JUMPDEST POP POP POP POP PUSH1 0x40 MLOAD RETURNDATASIZE PUSH1 0x1F NOT PUSH1 0x1F DUP3 ADD AND DUP3 ADD DUP1 PUSH1 0x40 MSTORE POP DUP2 ADD SWAP1 PUSH2 0x152B SWAP2 SWAP1 PUSH2 0x2D9F JUMP JUMPDEST SWAP4 POP PUSH1 0x0 PUSH2 0x1538 DUP6 PUSH2 0xD53 JUMP JUMPDEST SWAP1 POP PUSH1 0x0 DUP2 SUB PUSH2 0x1554 JUMPI PUSH1 0x0 DUP1 PUSH2 0x194 SWAP4 POP SWAP4 POP SWAP4 POP POP PUSH2 0x15B4 JUMP JUMPDEST PUSH2 0x156A DUP6 PUSH1 0x1 DUP4 PUSH2 0x1565 SWAP2 SWAP1 PUSH2 0x2BEC JUMP JUMPDEST PUSH2 0x104B JUMP JUMPDEST SWAP3 POP PUSH1 0x0 PUSH2 0x1578 DUP7 DUP6 PUSH2 0xFA0 JUMP JUMPDEST SWAP1 POP PUSH1 0x0 DUP2 MLOAD SUB PUSH2 0x1596 JUMPI PUSH1 0x0 DUP1 PUSH2 0x194 SWAP5 POP SWAP5 POP SWAP5 POP POP POP PUSH2 0x15B4 JUMP JUMPDEST PUSH1 0x0 PUSH2 0x15A1 DUP3 PUSH2 0x190A JUMP JUMPDEST SWAP1 POP DUP1 SWAP6 POP DUP6 DUP6 PUSH1 0xC8 SWAP6 POP SWAP6 POP SWAP6 POP POP POP POP JUMPDEST SWAP2 SWAP4 SWAP1 SWAP3 POP JUMP JUMPDEST PUSH1 0x60 DUP1 PUSH1 0x0 DUP1 PUSH2 0x15D6 DUP9 DUP8 DUP10 PUSH2 0x15D1 SWAP2 SWAP1 PUSH2 0x2BEC JUMP JUMPDEST PUSH2 0x1199 JUMP JUMPDEST SWAP2 POP SWAP2 POP DUP2 PUSH2 0x1683 JUMPI PUSH1 0x0 PUSH8 0xFFFFFFFFFFFFFFFF DUP2 GT ISZERO PUSH2 0x15FA JUMPI PUSH2 0x15F9 PUSH2 0x1D0E JUMP JUMPDEST JUMPDEST PUSH1 0x40 MLOAD SWAP1 DUP1 DUP3 MSTORE DUP1 PUSH1 0x20 MUL PUSH1 0x20 ADD DUP3 ADD PUSH1 0x40 MSTORE DUP1 ISZERO PUSH2 0x162D JUMPI DUP2 PUSH1 0x20 ADD JUMPDEST PUSH1 0x60 DUP2 MSTORE PUSH1 0x20 ADD SWAP1 PUSH1 0x1 SWAP1 SUB SWAP1 DUP2 PUSH2 0x1618 JUMPI SWAP1 POP JUMPDEST POP PUSH1 0x0 PUSH8 0xFFFFFFFFFFFFFFFF DUP2 GT ISZERO PUSH2 0x1649 JUMPI PUSH2 0x1648 PUSH2 0x1D0E JUMP JUMPDEST JUMPDEST PUSH1 0x40 MLOAD SWAP1 DUP1 DUP3 MSTORE DUP1 PUSH1 0x20 MUL PUSH1 0x20 ADD DUP3 ADD PUSH1 0x40 MSTORE DUP1 ISZERO PUSH2 0x1677 JUMPI DUP2 PUSH1 0x20 ADD PUSH1 0x20 DUP3 MUL DUP1 CALLDATASIZE DUP4 CALLDATACOPY DUP1 DUP3 ADD SWAP2 POP POP SWAP1 POP JUMPDEST POP SWAP4 POP SWAP4 POP POP POP PUSH2 0x18CA JUMP JUMPDEST PUSH1 0x0 PUSH2 0x168F DUP10 DUP10 PUSH2 0x5EF JUMP JUMPDEST DUP1 SWAP3 POP DUP2 SWAP5 POP POP POP DUP3 PUSH2 0x1741 JUMPI PUSH1 0x0 PUSH8 0xFFFFFFFFFFFFFFFF DUP2 GT ISZERO PUSH2 0x16B7 JUMPI PUSH2 0x16B6 PUSH2 0x1D0E JUMP JUMPDEST JUMPDEST PUSH1 0x40 MLOAD SWAP1 DUP1 DUP3 MSTORE DUP1 PUSH1 0x20 MUL PUSH1 0x20 ADD DUP3 ADD PUSH1 0x40 MSTORE DUP1 ISZERO PUSH2 0x16EA JUMPI DUP2 PUSH1 0x20 ADD JUMPDEST PUSH1 0x60 DUP2 MSTORE PUSH1 0x20 ADD SWAP1 PUSH1 0x1 SWAP1 SUB SWAP1 DUP2 PUSH2 0x16D5 JUMPI SWAP1 POP JUMPDEST POP PUSH1 0x0 PUSH8 0xFFFFFFFFFFFFFFFF DUP2 GT ISZERO PUSH2 0x1706 JUMPI PUSH2 0x1705 PUSH2 0x1D0E JUMP JUMPDEST JUMPDEST PUSH1 0x40 MLOAD SWAP1 DUP1 DUP3 MSTORE DUP1 PUSH1 0x20 MUL PUSH1 0x20 ADD DUP3 ADD PUSH1 0x40 MSTORE DUP1 ISZERO PUSH2 0x1734 JUMPI DUP2 PUSH1 0x20 ADD PUSH1 0x20 DUP3 MUL DUP1 CALLDATASIZE DUP4 CALLDATACOPY DUP1 DUP3 ADD SWAP2 POP POP SWAP1 POP JUMPDEST POP SWAP5 POP SWAP5 POP POP POP POP PUSH2 0x18CA JUMP JUMPDEST PUSH1 0x0 PUSH1 0x1 DUP4 DUP4 PUSH2 0x1751 SWAP2 SWAP1 PUSH2 0x2BEC JUMP JUMPDEST PUSH2 0x175B SWAP2 SWAP1 PUSH2 0x28AA JUMP JUMPDEST SWAP1 POP DUP7 DUP2 GT ISZERO PUSH2 0x1783 JUMPI PUSH1 0x1 DUP8 DUP4 PUSH2 0x1773 SWAP2 SWAP1 PUSH2 0x2BEC JUMP JUMPDEST PUSH2 0x177D SWAP2 SWAP1 PUSH2 0x28AA JUMP JUMPDEST SWAP3 POP DUP7 SWAP1 POP JUMPDEST PUSH1 0x0 DUP2 PUSH8 0xFFFFFFFFFFFFFFFF DUP2 GT ISZERO PUSH2 0x179F JUMPI PUSH2 0x179E PUSH2 0x1D0E JUMP JUMPDEST JUMPDEST PUSH1 0x40 MLOAD SWAP1 DUP1 DUP3 MSTORE DUP1 PUSH1 0x20 MUL PUSH1 0x20 ADD DUP3 ADD PUSH1 0x40 MSTORE DUP1 ISZERO PUSH2 0x17D2 JUMPI DUP2 PUSH1 0x20 ADD JUMPDEST PUSH1 0x60 DUP2 MSTORE PUSH1 0x20 ADD SWAP1 PUSH1 0x1 SWAP1 SUB SWAP1 DUP2 PUSH2 0x17BD JUMPI SWAP1 POP JUMPDEST POP SWAP1 POP PUSH1 0x0 DUP3 PUSH8 0xFFFFFFFFFFFFFFFF DUP2 GT ISZERO PUSH2 0x17F1 JUMPI PUSH2 0x17F0 PUSH2 0x1D0E JUMP JUMPDEST JUMPDEST PUSH1 0x40 MLOAD SWAP1 DUP1 DUP3 MSTORE DUP1 PUSH1 0x20 MUL PUSH1 0x20 ADD DUP3 ADD PUSH1 0x40 MSTORE DUP1 ISZERO PUSH2 0x181F JUMPI DUP2 PUSH1 0x20 ADD PUSH1 0x20 DUP3 MUL DUP1 CALLDATASIZE DUP4 CALLDATACOPY DUP1 DUP3 ADD SWAP2 POP POP SWAP1 POP JUMPDEST POP SWAP1 POP PUSH1 0x60 PUSH1 0x0 JUMPDEST DUP5 DUP2 LT ISZERO PUSH2 0x18BB JUMPI PUSH2 0x1844 DUP15 DUP3 DUP10 PUSH2 0x183F SWAP2 SWAP1 PUSH2 0x28AA JUMP JUMPDEST PUSH2 0x104B JUMP JUMPDEST DUP4 DUP3 DUP2 MLOAD DUP2 LT PUSH2 0x1857 JUMPI PUSH2 0x1856 PUSH2 0x28DE JUMP JUMPDEST JUMPDEST PUSH1 0x20 MUL PUSH1 0x20 ADD ADD DUP2 DUP2 MSTORE POP POP PUSH2 0x1887 DUP15 DUP5 DUP4 DUP2 MLOAD DUP2 LT PUSH2 0x187A JUMPI PUSH2 0x1879 PUSH2 0x28DE JUMP JUMPDEST JUMPDEST PUSH1 0x20 MUL PUSH1 0x20 ADD ADD MLOAD PUSH2 0xFA0 JUMP JUMPDEST SWAP2 POP DUP2 DUP5 DUP3 DUP2 MLOAD DUP2 LT PUSH2 0x189D JUMPI PUSH2 0x189C PUSH2 0x28DE JUMP JUMPDEST JUMPDEST PUSH1 0x20 MUL PUSH1 0x20 ADD ADD DUP2 SWAP1 MSTORE POP DUP1 DUP1 PUSH2 0x18B3 SWAP1 PUSH2 0x290D JUMP JUMPDEST SWAP2 POP POP PUSH2 0x1827 JUMP JUMPDEST POP DUP3 DUP3 SWAP9 POP SWAP9 POP POP POP POP POP POP POP POP JUMPDEST SWAP5 POP SWAP5 SWAP3 POP POP POP JUMP JUMPDEST PUSH1 0x0 PUSH1 0x8 DUP3 PUSH1 0x40 MLOAD PUSH1 0x20 ADD PUSH2 0x18E8 SWAP2 SWAP1 PUSH2 0x2E08 JUMP JUMPDEST PUSH1 0x40 MLOAD PUSH1 0x20 DUP2 DUP4 SUB SUB DUP2 MSTORE SWAP1 PUSH1 0x40 MSTORE DUP1 MLOAD SWAP1 PUSH1 0x20 ADD KECCAK256 PUSH1 0x0 SHR SWAP1 SHR SWAP1 POP SWAP2 SWAP1 POP JUMP JUMPDEST PUSH1 0x0 DUP1 PUSH1 0x0 SWAP1 POP JUMPDEST DUP3 MLOAD DUP2 LT ISZERO PUSH2 0x196C JUMPI DUP3 DUP2 DUP2 MLOAD DUP2 LT PUSH2 0x192E JUMPI PUSH2 0x192D PUSH2 0x28DE JUMP JUMPDEST JUMPDEST PUSH1 0x20 ADD ADD MLOAD PUSH1 0xF8 SHR PUSH1 0xF8 SHL PUSH1 0xF8 SHR PUSH1 0xFF AND PUSH2 0x100 DUP4 PUSH2 0x194D SWAP2 SWAP1 PUSH2 0x2868 JUMP JUMPDEST PUSH2 0x1957 SWAP2 SWAP1 PUSH2 0x28AA JUMP JUMPDEST SWAP2 POP DUP1 DUP1 PUSH2 0x1964 SWAP1 PUSH2 0x290D JUMP JUMPDEST SWAP2 POP POP PUSH2 0x1912 JUMP JUMPDEST POP SWAP2 SWAP1 POP JUMP JUMPDEST PUSH1 0x0 PUSH1 0x40 MLOAD SWAP1 POP SWAP1 JUMP JUMPDEST PUSH1 0x0 DUP1 REVERT JUMPDEST PUSH1 0x0 DUP1 REVERT JUMPDEST PUSH1 0x0 PUSH20 0xFFFFFFFFFFFFFFFFFFFFFFFFFFFFFFFFFFFFFFFF DUP3 AND SWAP1 POP SWAP2 SWAP1 POP JUMP JUMPDEST PUSH1 0x0 PUSH2 0x19B1 DUP3 PUSH2 0x1986 JUMP JUMPDEST SWAP1 POP SWAP2 SWAP1 POP JUMP JUMPDEST PUSH2 0x19C1 DUP2 PUSH2 0x19A6 JUMP JUMPDEST DUP2 EQ PUSH2 0x19CC JUMPI PUSH1 0x0 DUP1 REVERT JUMPDEST POP JUMP JUMPDEST PUSH1 0x0 DUP2 CALLDATALOAD SWAP1 POP PUSH2 0x19DE DUP2 PUSH2 0x19B8 JUMP JUMPDEST SWAP3 SWAP2 POP POP JUMP JUMPDEST PUSH1 0x0 PUSH1 0x20 DUP3 DUP5 SUB SLT ISZERO PUSH2 0x19FA JUMPI PUSH2 0x19F9 PUSH2 0x197C JUMP JUMPDEST JUMPDEST PUSH1 0x0 PUSH2 0x1A08 DUP5 DUP3 DUP6 ADD PUSH2 0x19CF JUMP JUMPDEST SWAP2 POP POP SWAP3 SWAP2 POP POP JUMP JUMPDEST PUSH1 0x0 DUP2 SWAP1 POP SWAP2 SWAP1 POP JUMP JUMPDEST PUSH1 0x0 PUSH2 0x1A36 PUSH2 0x1A31 PUSH2 0x1A2C DUP5 PUSH2 0x1986 JUMP JUMPDEST PUSH2 0x1A11 JUMP JUMPDEST PUSH2 0x1986 JUMP JUMPDEST SWAP1 POP SWAP2 SWAP1 POP JUMP JUMPDEST PUSH1 0x0 PUSH2 0x1A48 DUP3 PUSH2 0x1A1B JUMP JUMPDEST SWAP1 POP SWAP2 SWAP1 POP JUMP JUMPDEST PUSH1 0x0 PUSH2 0x1A5A DUP3 PUSH2 0x1A3D JUMP JUMPDEST SWAP1 POP SWAP2 SWAP1 POP JUMP JUMPDEST PUSH2 0x1A6A DUP2 PUSH2 0x1A4F JUMP JUMPDEST DUP3 MSTORE POP POP JUMP JUMPDEST PUSH1 0x0 PUSH1 0x20 DUP3 ADD SWAP1 POP PUSH2 0x1A85 PUSH1 0x0 DUP4 ADD DUP5 PUSH2 0x1A61 JUMP JUMPDEST SWAP3 SWAP2 POP POP JUMP JUMPDEST PUSH1 0x0 DUP2 SWAP1 POP SWAP2 SWAP1 POP JUMP JUMPDEST PUSH2 0x1A9E DUP2 PUSH2 0x1A8B JUMP JUMPDEST DUP2 EQ PUSH2 0x1AA9 JUMPI PUSH1 0x0 DUP1 REVERT JUMPDEST POP JUMP JUMPDEST PUSH1 0x0 DUP2 CALLDATALOAD SWAP1 POP PUSH2 0x1ABB DUP2 PUSH2 0x1A95 JUMP JUMPDEST SWAP3 SWAP2 POP POP JUMP JUMPDEST PUSH1 0x0 PUSH1 0x20 DUP3 DUP5 SUB SLT ISZERO PUSH2 0x1AD7 JUMPI PUSH2 0x1AD6 PUSH2 0x197C JUMP JUMPDEST JUMPDEST PUSH1 0x0 PUSH2 0x1AE5 DUP5 DUP3 DUP6 ADD PUSH2 0x1AAC JUMP JUMPDEST SWAP2 POP POP SWAP3 SWAP2 POP POP JUMP JUMPDEST PUSH1 0x0 DUP2 MLOAD SWAP1 POP SWAP2 SWAP1 POP JUMP JUMPDEST PUSH1 0x0 DUP3 DUP3 MSTORE PUSH1 0x20 DUP3 ADD SWAP1 POP SWAP3 SWAP2 POP POP JUMP JUMPDEST PUSH1 0x0 JUMPDEST DUP4 DUP2 LT ISZERO PUSH2 0x1B28 JUMPI DUP1 DUP3 ADD MLOAD DUP2 DUP5 ADD MSTORE PUSH1 0x20 DUP2 ADD SWAP1 POP PUSH2 0x1B0D JUMP JUMPDEST PUSH1 0x0 DUP5 DUP5 ADD MSTORE POP POP POP POP JUMP JUMPDEST PUSH1 0x0 PUSH1 0x1F NOT PUSH1 0x1F DUP4 ADD AND SWAP1 POP SWAP2 SWAP1 POP JUMP JUMPDEST PUSH1 0x0 PUSH2 0x1B50 DUP3 PUSH2 0x1AEE JUMP JUMPDEST PUSH2 0x1B5A DUP2 DUP6 PUSH2 0x1AF9 JUMP JUMPDEST SWAP4 POP PUSH2 0x1B6A DUP2 DUP6 PUSH1 0x20 DUP7 ADD PUSH2 0x1B0A JUMP JUMPDEST PUSH2 0x1B73 DUP2 PUSH2 0x1B34 JUMP JUMPDEST DUP5 ADD SWAP2 POP POP SWAP3 SWAP2 POP POP JUMP JUMPDEST PUSH2 0x1B87 DUP2 PUSH2 0x19A6 JUMP JUMPDEST DUP3 MSTORE POP POP JUMP JUMPDEST PUSH1 0x0 PUSH1 0x40 DUP3 ADD SWAP1 POP DUP2 DUP2 SUB PUSH1 0x0 DUP4 ADD MSTORE PUSH2 0x1BA7 DUP2 DUP6 PUSH2 0x1B45 JUMP JUMPDEST SWAP1 POP PUSH2 0x1BB6 PUSH1 0x20 DUP4 ADD DUP5 PUSH2 0x1B7E JUMP JUMPDEST SWAP4 SWAP3 POP POP POP JUMP JUMPDEST PUSH1 0x0 DUP2 SWAP1 POP SWAP2 SWAP1 POP JUMP JUMPDEST PUSH2 0x1BD0 DUP2 PUSH2 0x1BBD JUMP JUMPDEST DUP2 EQ PUSH2 0x1BDB JUMPI PUSH1 0x0 DUP1 REVERT JUMPDEST POP JUMP JUMPDEST PUSH1 0x0 DUP2 CALLDATALOAD SWAP1 POP PUSH2 0x1BED DUP2 PUSH2 0x1BC7 JUMP JUMPDEST SWAP3 SWAP2 POP POP JUMP JUMPDEST PUSH1 0x0 DUP1 PUSH1 0x40 DUP4 DUP6 SUB SLT ISZERO PUSH2 0x1C0A JUMPI PUSH2 0x1C09 PUSH2 0x197C JUMP JUMPDEST JUMPDEST PUSH1 0x0 PUSH2 0x1C18 DUP6 DUP3 DUP7 ADD PUSH2 0x1BDE JUMP JUMPDEST SWAP3 POP POP PUSH1 0x20 PUSH2 0x1C29 DUP6 DUP3 DUP7 ADD PUSH2 0x1AAC JUMP JUMPDEST SWAP2 POP POP SWAP3 POP SWAP3 SWAP1 POP JUMP JUMPDEST PUSH1 0x0 DUP2 ISZERO ISZERO SWAP1 POP SWAP2 SWAP1 POP JUMP JUMPDEST PUSH2 0x1C48 DUP2 PUSH2 0x1C33 JUMP JUMPDEST DUP3 MSTORE POP POP JUMP JUMPDEST PUSH2 0x1C57 DUP2 PUSH2 0x1A8B JUMP JUMPDEST DUP3 MSTORE POP POP JUMP JUMPDEST PUSH1 0x0 PUSH1 0x40 DUP3 ADD SWAP1 POP PUSH2 0x1C72 PUSH1 0x0 DUP4 ADD DUP6 PUSH2 0x1C3F JUMP JUMPDEST PUSH2 0x1C7F PUSH1 0x20 DUP4 ADD DUP5 PUSH2 0x1C4E JUMP JUMPDEST SWAP4 SWAP3 POP POP POP JUMP JUMPDEST PUSH1 0x0 PUSH2 0x1C91 DUP3 PUSH2 0x1A3D JUMP JUMPDEST SWAP1 POP SWAP2 SWAP1 POP JUMP JUMPDEST PUSH2 0x1CA1 DUP2 PUSH2 0x1C86 JUMP JUMPDEST DUP3 MSTORE POP POP JUMP JUMPDEST PUSH1 0x0 PUSH1 0x20 DUP3 ADD SWAP1 POP PUSH2 0x1CBC PUSH1 0x0 DUP4 ADD DUP5 PUSH2 0x1C98 JUMP JUMPDEST SWAP3 SWAP2 POP POP JUMP JUMPDEST PUSH1 0x0 PUSH1 0x20 DUP3 ADD SWAP1 POP PUSH2 0x1CD7 PUSH1 0x0 DUP4 ADD DUP5 PUSH2 0x1C3F JUMP JUMPDEST SWAP3 SWAP2 POP POP JUMP JUMPDEST PUSH1 0x0 DUP1 REVERT JUMPDEST PUSH1 0x0 DUP2 SWAP1 POP DUP3 PUSH1 0x20 PUSH1 0x8 MUL DUP3 ADD GT ISZERO PUSH2 0x1CFE JUMPI PUSH2 0x1CFD PUSH2 0x1CDD JUMP JUMPDEST JUMPDEST SWAP3 SWAP2 POP POP JUMP JUMPDEST PUSH1 0x0 DUP1 REVERT JUMPDEST PUSH1 0x0 DUP1 REVERT JUMPDEST PUSH32 0x4E487B7100000000000000000000000000000000000000000000000000000000 PUSH1 0x0 MSTORE PUSH1 0x41 PUSH1 0x4 MSTORE PUSH1 0x24 PUSH1 0x0 REVERT JUMPDEST PUSH2 0x1D46 DUP3 PUSH2 0x1B34 JUMP JUMPDEST DUP2 ADD DUP2 DUP2 LT PUSH8 0xFFFFFFFFFFFFFFFF DUP3 GT OR ISZERO PUSH2 0x1D65 JUMPI PUSH2 0x1D64 PUSH2 0x1D0E JUMP JUMPDEST JUMPDEST DUP1 PUSH1 0x40 MSTORE POP POP POP JUMP JUMPDEST PUSH1 0x0 PUSH2 0x1D78 PUSH2 0x1972 JUMP JUMPDEST SWAP1 POP PUSH2 0x1D84 DUP3 DUP3 PUSH2 0x1D3D JUMP JUMPDEST SWAP2 SWAP1 POP JUMP JUMPDEST PUSH1 0x0 PUSH8 0xFFFFFFFFFFFFFFFF DUP3 GT ISZERO PUSH2 0x1DA4 JUMPI PUSH2 0x1DA3 PUSH2 0x1D0E JUMP JUMPDEST JUMPDEST PUSH2 0x1DAD DUP3 PUSH2 0x1B34 JUMP JUMPDEST SWAP1 POP PUSH1 0x20 DUP2 ADD SWAP1 POP SWAP2 SWAP1 POP JUMP JUMPDEST DUP3 DUP2 DUP4 CALLDATACOPY PUSH1 0x0 DUP4 DUP4 ADD MSTORE POP POP POP JUMP JUMPDEST PUSH1 0x0 PUSH2 0x1DDC PUSH2 0x1DD7 DUP5 PUSH2 0x1D89 JUMP JUMPDEST PUSH2 0x1D6E JUMP JUMPDEST SWAP1 POP DUP3 DUP2 MSTORE PUSH1 0x20 DUP2 ADD DUP5 DUP5 DUP5 ADD GT ISZERO PUSH2 0x1DF8 JUMPI PUSH2 0x1DF7 PUSH2 0x1D09 JUMP JUMPDEST JUMPDEST PUSH2 0x1E03 DUP5 DUP3 DUP6 PUSH2 0x1DBA JUMP JUMPDEST POP SWAP4 SWAP3 POP POP POP JUMP JUMPDEST PUSH1 0x0 DUP3 PUSH1 0x1F DUP4 ADD SLT PUSH2 0x1E20 JUMPI PUSH2 0x1E1F PUSH2 0x1D04 JUMP JUMPDEST JUMPDEST DUP2 CALLDATALOAD PUSH2 0x1E30 DUP5 DUP3 PUSH1 0x20 DUP7 ADD PUSH2 0x1DC9 JUMP JUMPDEST SWAP2 POP POP SWAP3 SWAP2 POP POP JUMP JUMPDEST PUSH1 0x0 DUP1 PUSH1 0x0 DUP1 PUSH1 0x0 PUSH2 0x180 DUP7 DUP9 SUB SLT ISZERO PUSH2 0x1E56 JUMPI PUSH2 0x1E55 PUSH2 0x197C JUMP JUMPDEST JUMPDEST PUSH1 0x0 PUSH2 0x1E64 DUP9 DUP3 DUP10 ADD PUSH2 0x19CF JUMP JUMPDEST SWAP6 POP POP PUSH1 0x20 PUSH2 0x1E75 DUP9 DUP3 DUP10 ADD PUSH2 0x1AAC JUMP JUMPDEST SWAP5 POP POP PUSH1 0x40 PUSH2 0x1E86 DUP9 DUP3 DUP10 ADD PUSH2 0x1AAC JUMP JUMPDEST SWAP4 POP POP PUSH1 0x60 PUSH2 0x1E97 DUP9 DUP3 DUP10 ADD PUSH2 0x1CE2 JUMP JUMPDEST SWAP3 POP POP PUSH2 0x160 DUP7 ADD CALLDATALOAD PUSH8 0xFFFFFFFFFFFFFFFF DUP2 GT ISZERO PUSH2 0x1EB9 JUMPI PUSH2 0x1EB8 PUSH2 0x1981 JUMP JUMPDEST JUMPDEST PUSH2 0x1EC5 DUP9 DUP3 DUP10 ADD PUSH2 0x1E0B JUMP JUMPDEST SWAP2 POP POP SWAP3 SWAP6 POP SWAP3 SWAP6 SWAP1 SWAP4 POP JUMP JUMPDEST PUSH1 0x0 DUP2 MLOAD SWAP1 POP SWAP2 SWAP1 POP JUMP JUMPDEST PUSH1 0x0 DUP3 DUP3 MSTORE PUSH1 0x20 DUP3 ADD SWAP1 POP SWAP3 SWAP2 POP POP JUMP JUMPDEST PUSH1 0x0 PUSH2 0x1EF9 DUP3 PUSH2 0x1ED2 JUMP JUMPDEST PUSH2 0x1F03 DUP2 DUP6 PUSH2 0x1EDD JUMP JUMPDEST SWAP4 POP PUSH2 0x1F13 DUP2 DUP6 PUSH1 0x20 DUP7 ADD PUSH2 0x1B0A JUMP JUMPDEST PUSH2 0x1F1C DUP2 PUSH2 0x1B34 JUMP JUMPDEST DUP5 ADD SWAP2 POP POP SWAP3 SWAP2 POP POP JUMP JUMPDEST PUSH1 0x0 PUSH1 0x40 DUP3 ADD SWAP1 POP DUP2 DUP2 SUB PUSH1 0x0 DUP4 ADD MSTORE PUSH2 0x1F41 DUP2 DUP6 PUSH2 0x1EEE JUMP JUMPDEST SWAP1 POP PUSH2 0x1F50 PUSH1 0x20 DUP4 ADD DUP5 PUSH2 0x1C4E JUMP JUMPDEST SWAP4 SWAP3 POP POP POP JUMP JUMPDEST PUSH1 0x0 PUSH8 0xFFFFFFFFFFFFFFFF DUP3 GT ISZERO PUSH2 0x1F72 JUMPI PUSH2 0x1F71 PUSH2 0x1D0E JUMP JUMPDEST JUMPDEST PUSH2 0x1F7B DUP3 PUSH2 0x1B34 JUMP JUMPDEST SWAP1 POP PUSH1 0x20 DUP2 ADD SWAP1 POP SWAP2 SWAP1 POP JUMP JUMPDEST PUSH1 0x0 PUSH2 0x1F9B PUSH2 0x1F96 DUP5 PUSH2 0x1F57 JUMP JUMPDEST PUSH2 0x1D6E JUMP JUMPDEST SWAP1 POP DUP3 DUP2 MSTORE PUSH1 0x20 DUP2 ADD DUP5 DUP5 DUP5 ADD GT ISZERO PUSH2 0x1FB7 JUMPI PUSH2 0x1FB6 PUSH2 0x1D09 JUMP JUMPDEST JUMPDEST PUSH2 0x1FC2 DUP5 DUP3 DUP6 PUSH2 0x1DBA JUMP JUMPDEST POP SWAP4 SWAP3 POP POP POP JUMP JUMPDEST PUSH1 0x0 DUP3 PUSH1 0x1F DUP4 ADD SLT PUSH2 0x1FDF JUMPI PUSH2 0x1FDE PUSH2 0x1D04 JUMP JUMPDEST JUMPDEST DUP2 CALLDATALOAD PUSH2 0x1FEF DUP5 DUP3 PUSH1 0x20 DUP7 ADD PUSH2 0x1F88 JUMP JUMPDEST SWAP2 POP POP SWAP3 SWAP2 POP POP JUMP JUMPDEST PUSH1 0x0 PUSH1 0x20 DUP3 DUP5 SUB SLT ISZERO PUSH2 0x200E JUMPI PUSH2 0x200D PUSH2 0x197C JUMP JUMPDEST JUMPDEST PUSH1 0x0 DUP3 ADD CALLDATALOAD PUSH8 0xFFFFFFFFFFFFFFFF DUP2 GT ISZERO PUSH2 0x202C JUMPI PUSH2 0x202B PUSH2 0x1981 JUMP JUMPDEST JUMPDEST PUSH2 0x2038 DUP5 DUP3 DUP6 ADD PUSH2 0x1FCA JUMP JUMPDEST SWAP2 POP POP SWAP3 SWAP2 POP POP JUMP JUMPDEST PUSH1 0x0 PUSH1 0x20 DUP3 ADD SWAP1 POP DUP2 DUP2 SUB PUSH1 0x0 DUP4 ADD MSTORE PUSH2 0x205B DUP2 DUP5 PUSH2 0x1B45 JUMP JUMPDEST SWAP1 POP SWAP3 SWAP2 POP POP JUMP JUMPDEST PUSH1 0x0 PUSH1 0x20 DUP3 DUP5 SUB SLT ISZERO PUSH2 0x2079 JUMPI PUSH2 0x2078 PUSH2 0x197C JUMP JUMPDEST JUMPDEST PUSH1 0x0 PUSH2 0x2087 DUP5 DUP3 DUP6 ADD PUSH2 0x1BDE JUMP JUMPDEST SWAP2 POP POP SWAP3 SWAP2 POP POP JUMP JUMPDEST PUSH1 0x0 PUSH1 0x20 DUP3 ADD SWAP1 POP PUSH2 0x20A5 PUSH1 0x0 DUP4 ADD DUP5 PUSH2 0x1C4E JUMP JUMPDEST SWAP3 SWAP2 POP POP JUMP JUMPDEST PUSH1 0x0 PUSH1 0x20 DUP3 ADD SWAP1 POP DUP2 DUP2 SUB PUSH1 0x0 DUP4 ADD MSTORE PUSH2 0x20C5 DUP2 DUP5 PUSH2 0x1EEE JUMP JUMPDEST SWAP1 POP SWAP3 SWAP2 POP POP JUMP JUMPDEST PUSH1 0x0 PUSH1 0x20 DUP3 ADD SWAP1 POP PUSH2 0x20E2 PUSH1 0x0 DUP4 ADD DUP5 PUSH2 0x1B7E JUMP JUMPDEST SWAP3 SWAP2 POP POP JUMP JUMPDEST PUSH1 0x0 DUP2 SWAP1 POP SWAP2 SWAP1 POP JUMP JUMPDEST PUSH2 0x20FB DUP2 PUSH2 0x20E8 JUMP JUMPDEST DUP3 MSTORE POP POP JUMP JUMPDEST PUSH1 0x0 PUSH1 0x60 DUP3 ADD SWAP1 POP PUSH2 0x2116 PUSH1 0x0 DUP4 ADD DUP7 PUSH2 0x20F2 JUMP JUMPDEST PUSH2 0x2123 PUSH1 0x20 DUP4 ADD DUP6 PUSH2 0x1C4E JUMP JUMPDEST PUSH2 0x2130 PUSH1 0x40 DUP4 ADD DUP5 PUSH2 0x1C4E JUMP JUMPDEST SWAP5 SWAP4 POP POP POP POP JUMP JUMPDEST PUSH1 0x0 DUP1 PUSH1 0x0 DUP1 PUSH1 0x80 DUP6 DUP8 SUB SLT ISZERO PUSH2 0x2152 JUMPI PUSH2 0x2151 PUSH2 0x197C JUMP JUMPDEST JUMPDEST PUSH1 0x0 PUSH2 0x2160 DUP8 DUP3 DUP9 ADD PUSH2 0x1BDE JUMP JUMPDEST SWAP5 POP POP PUSH1 0x20 PUSH2 0x2171 DUP8 DUP3 DUP9 ADD PUSH2 0x1AAC JUMP JUMPDEST SWAP4 POP POP PUSH1 0x40 PUSH2 0x2182 DUP8 DUP3 DUP9 ADD PUSH2 0x1AAC JUMP JUMPDEST SWAP3 POP POP PUSH1 0x60 PUSH2 0x2193 DUP8 DUP3 DUP9 ADD PUSH2 0x1AAC JUMP JUMPDEST SWAP2 POP POP SWAP3 SWAP6 SWAP2 SWAP5 POP SWAP3 POP JUMP JUMPDEST PUSH1 0x0 DUP2 MLOAD SWAP1 POP SWAP2 SWAP1 POP JUMP JUMPDEST PUSH1 0x0 DUP3 DUP3 MSTORE PUSH1 0x20 DUP3 ADD SWAP1 POP SWAP3 SWAP2 POP POP JUMP JUMPDEST PUSH1 0x0 DUP2 SWAP1 POP PUSH1 0x20 DUP3 ADD SWAP1 POP SWAP2 SWAP1 POP JUMP JUMPDEST PUSH1 0x0 DUP3 DUP3 MSTORE PUSH1 0x20 DUP3 ADD SWAP1 POP SWAP3 SWAP2 POP POP JUMP JUMPDEST PUSH1 0x0 PUSH2 0x21E7 DUP3 PUSH2 0x1ED2 JUMP JUMPDEST PUSH2 0x21F1 DUP2 DUP6 PUSH2 0x21CB JUMP JUMPDEST SWAP4 POP PUSH2 0x2201 DUP2 DUP6 PUSH1 0x20 DUP7 ADD PUSH2 0x1B0A JUMP JUMPDEST PUSH2 0x220A DUP2 PUSH2 0x1B34 JUMP JUMPDEST DUP5 ADD SWAP2 POP POP SWAP3 SWAP2 POP POP JUMP JUMPDEST PUSH1 0x0 PUSH2 0x2221 DUP4 DUP4 PUSH2 0x21DC JUMP JUMPDEST SWAP1 POP SWAP3 SWAP2 POP POP JUMP JUMPDEST PUSH1 0x0 PUSH1 0x20 DUP3 ADD SWAP1 POP SWAP2 SWAP1 POP JUMP JUMPDEST PUSH1 0x0 PUSH2 0x2241 DUP3 PUSH2 0x219F JUMP JUMPDEST PUSH2 0x224B DUP2 DUP6 PUSH2 0x21AA JUMP JUMPDEST SWAP4 POP DUP4 PUSH1 0x20 DUP3 MUL DUP6 ADD PUSH2 0x225D DUP6 PUSH2 0x21BB JUMP JUMPDEST DUP1 PUSH1 0x0 JUMPDEST DUP6 DUP2 LT ISZERO PUSH2 0x2299 JUMPI DUP5 DUP5 SUB DUP10 MSTORE DUP2 MLOAD PUSH2 0x227A DUP6 DUP3 PUSH2 0x2215 JUMP JUMPDEST SWAP5 POP PUSH2 0x2285 DUP4 PUSH2 0x2229 JUMP JUMPDEST SWAP3 POP PUSH1 0x20 DUP11 ADD SWAP10 POP POP PUSH1 0x1 DUP2 ADD SWAP1 POP PUSH2 0x2261 JUMP JUMPDEST POP DUP3 SWAP8 POP DUP8 SWAP6 POP POP POP POP POP POP SWAP3 SWAP2 POP POP JUMP JUMPDEST PUSH1 0x0 DUP2 MLOAD SWAP1 POP SWAP2 SWAP1 POP JUMP JUMPDEST PUSH1 0x0 DUP3 DUP3 MSTORE PUSH1 0x20 DUP3 ADD SWAP1 POP SWAP3 SWAP2 POP POP JUMP JUMPDEST PUSH1 0x0 DUP2 SWAP1 POP PUSH1 0x20 DUP3 ADD SWAP1 POP SWAP2 SWAP1 POP JUMP JUMPDEST PUSH2 0x22E0 DUP2 PUSH2 0x1A8B JUMP JUMPDEST DUP3 MSTORE POP POP JUMP JUMPDEST PUSH1 0x0 PUSH2 0x22F2 DUP4 DUP4 PUSH2 0x22D7 JUMP JUMPDEST PUSH1 0x20 DUP4 ADD SWAP1 POP SWAP3 SWAP2 POP POP JUMP JUMPDEST PUSH1 0x0 PUSH1 0x20 DUP3 ADD SWAP1 POP SWAP2 SWAP1 POP JUMP JUMPDEST PUSH1 0x0 PUSH2 0x2316 DUP3 PUSH2 0x22AB JUMP JUMPDEST PUSH2 0x2320 DUP2 DUP6 PUSH2 0x22B6 JUMP JUMPDEST SWAP4 POP PUSH2 0x232B DUP4 PUSH2 0x22C7 JUMP JUMPDEST DUP1 PUSH1 0x0 JUMPDEST DUP4 DUP2 LT ISZERO PUSH2 0x235C JUMPI DUP2 MLOAD PUSH2 0x2343 DUP9 DUP3 PUSH2 0x22E6 JUMP JUMPDEST SWAP8 POP PUSH2 0x234E DUP4 PUSH2 0x22FE JUMP JUMPDEST SWAP3 POP POP PUSH1 0x1 DUP2 ADD SWAP1 POP PUSH2 0x232F JUMP JUMPDEST POP DUP6 SWAP4 POP POP POP POP SWAP3 SWAP2 POP POP JUMP JUMPDEST PUSH1 0x0 PUSH1 0x40 DUP3 ADD SWAP1 POP DUP2 DUP2 SUB PUSH1 0x0 DUP4 ADD MSTORE PUSH2 0x2383 DUP2 DUP6 PUSH2 0x2236 JUMP JUMPDEST SWAP1 POP DUP2 DUP2 SUB PUSH1 0x20 DUP4 ADD MSTORE PUSH2 0x2397 DUP2 DUP5 PUSH2 0x230B JUMP JUMPDEST SWAP1 POP SWAP4 SWAP3 POP POP POP JUMP JUMPDEST PUSH32 0x4E487B7100000000000000000000000000000000000000000000000000000000 PUSH1 0x0 MSTORE PUSH1 0x22 PUSH1 0x4 MSTORE PUSH1 0x24 PUSH1 0x0 REVERT JUMPDEST PUSH1 0x0 PUSH1 0x2 DUP3 DIV SWAP1 POP PUSH1 0x1 DUP3 AND DUP1 PUSH2 0x23E7 JUMPI PUSH1 0x7F DUP3 AND SWAP2 POP JUMPDEST PUSH1 0x20 DUP3 LT DUP2 SUB PUSH2 0x23FA JUMPI PUSH2 0x23F9 PUSH2 0x23A0 JUMP JUMPDEST JUMPDEST POP SWAP2 SWAP1 POP JUMP JUMPDEST PUSH2 0x2409 DUP2 PUSH2 0x1BBD JUMP JUMPDEST DUP3 MSTORE POP POP JUMP JUMPDEST PUSH1 0x0 PUSH1 0x40 DUP3 ADD SWAP1 POP PUSH2 0x2424 PUSH1 0x0 DUP4 ADD DUP6 PUSH2 0x2400 JUMP JUMPDEST PUSH2 0x2431 PUSH1 0x20 DUP4 ADD DUP5 PUSH2 0x1C4E JUMP JUMPDEST SWAP4 SWAP3 POP POP POP JUMP JUMPDEST PUSH2 0x2441 DUP2 PUSH2 0x1C33 JUMP JUMPDEST DUP2 EQ PUSH2 0x244C JUMPI PUSH1 0x0 DUP1 REVERT JUMPDEST POP JUMP JUMPDEST PUSH1 0x0 DUP2 MLOAD SWAP1 POP PUSH2 0x245E DUP2 PUSH2 0x2438 JUMP JUMPDEST SWAP3 SWAP2 POP POP JUMP JUMPDEST PUSH1 0x0 DUP2 MLOAD SWAP1 POP PUSH2 0x2473 DUP2 PUSH2 0x1A95 JUMP JUMPDEST SWAP3 SWAP2 POP POP JUMP JUMPDEST PUSH1 0x0 DUP1 PUSH1 0x40 DUP4 DUP6 SUB SLT ISZERO PUSH2 0x2490 JUMPI PUSH2 0x248F PUSH2 0x197C JUMP JUMPDEST JUMPDEST PUSH1 0x0 PUSH2 0x249E DUP6 DUP3 DUP7 ADD PUSH2 0x244F JUMP JUMPDEST SWAP3 POP POP PUSH1 0x20 PUSH2 0x24AF DUP6 DUP3 DUP7 ADD PUSH2 0x2464 JUMP JUMPDEST SWAP2 POP POP SWAP3 POP SWAP3 SWAP1 POP JUMP JUMPDEST PUSH1 0x0 PUSH1 0x20 DUP3 DUP5 SUB SLT ISZERO PUSH2 0x24CF JUMPI PUSH2 0x24CE PUSH2 0x197C JUMP JUMPDEST JUMPDEST PUSH1 0x0 PUSH2 0x24DD DUP5 DUP3 DUP6 ADD PUSH2 0x244F JUMP JUMPDEST SWAP2 POP POP SWAP3 SWAP2 POP POP JUMP JUMPDEST PUSH1 0x0 DUP2 PUSH1 0x60 SHL SWAP1 POP SWAP2 SWAP1 POP JUMP JUMPDEST PUSH1 0x0 PUSH2 0x24FE DUP3 PUSH2 0x24E6 JUMP JUMPDEST SWAP1 POP SWAP2 SWAP1 POP JUMP JUMPDEST PUSH1 0x0 PUSH2 0x2510 DUP3 PUSH2 0x24F3 JUMP JUMPDEST SWAP1 POP SWAP2 SWAP1 POP JUMP JUMPDEST PUSH2 0x2528 PUSH2 0x2523 DUP3 PUSH2 0x19A6 JUMP JUMPDEST PUSH2 0x2505 JUMP JUMPDEST DUP3 MSTORE POP POP JUMP JUMPDEST PUSH1 0x0 PUSH2 0x253A DUP3 DUP5 PUSH2 0x2517 JUMP JUMPDEST PUSH1 0x14 DUP3 ADD SWAP2 POP DUP2 SWAP1 POP SWAP3 SWAP2 POP POP JUMP JUMPDEST DUP3 DUP2 DUP4 CALLDATACOPY POP POP POP JUMP JUMPDEST PUSH2 0x255F PUSH2 0x100 DUP4 DUP4 PUSH2 0x2549 JUMP JUMPDEST POP POP JUMP JUMPDEST PUSH1 0x0 PUSH2 0x1A0 DUP3 ADD SWAP1 POP PUSH2 0x2579 PUSH1 0x0 DUP4 ADD DUP10 PUSH2 0x1C4E JUMP JUMPDEST PUSH2 0x2586 PUSH1 0x20 DUP4 ADD DUP9 PUSH2 0x1C4E JUMP JUMPDEST PUSH2 0x2593 PUSH1 0x40 DUP4 ADD DUP8 PUSH2 0x1C4E JUMP JUMPDEST PUSH2 0x25A0 PUSH1 0x60 DUP4 ADD DUP7 PUSH2 0x1C4E JUMP JUMPDEST PUSH2 0x25AD PUSH1 0x80 DUP4 ADD DUP6 PUSH2 0x1C4E JUMP JUMPDEST PUSH2 0x25BA PUSH1 0xA0 DUP4 ADD DUP5 PUSH2 0x2552 JUMP JUMPDEST SWAP8 SWAP7 POP POP POP POP POP POP POP JUMP JUMPDEST PUSH1 0x0 DUP2 SWAP1 POP DUP2 PUSH1 0x0 MSTORE PUSH1 0x20 PUSH1 0x0 KECCAK256 SWAP1 POP SWAP2 SWAP1 POP JUMP JUMPDEST PUSH1 0x0 PUSH1 0x20 PUSH1 0x1F DUP4 ADD DIV SWAP1 POP SWAP2 SWAP1 POP JUMP JUMPDEST PUSH1 0x0 DUP3 DUP3 SHL SWAP1 POP SWAP3 SWAP2 POP POP JUMP JUMPDEST PUSH1 0x0 PUSH1 0x8 DUP4 MUL PUSH2 0x2627 PUSH32 0xFFFFFFFFFFFFFFFFFFFFFFFFFFFFFFFFFFFFFFFFFFFFFFFFFFFFFFFFFFFFFFFF DUP3 PUSH2 0x25EA JUMP JUMPDEST PUSH2 0x2631 DUP7 DUP4 PUSH2 0x25EA JUMP JUMPDEST SWAP6 POP DUP1 NOT DUP5 AND SWAP4 POP DUP1 DUP7 AND DUP5 OR SWAP3 POP POP POP SWAP4 SWAP3 POP POP POP JUMP JUMPDEST PUSH1 0x0 PUSH2 0x2664 PUSH2 0x265F PUSH2 0x265A DUP5 PUSH2 0x1A8B JUMP JUMPDEST PUSH2 0x1A11 JUMP JUMPDEST PUSH2 0x1A8B JUMP JUMPDEST SWAP1 POP SWAP2 SWAP1 POP JUMP JUMPDEST PUSH1 0x0 DUP2 SWAP1 POP SWAP2 SWAP1 POP JUMP JUMPDEST PUSH2 0x267E DUP4 PUSH2 0x2649 JUMP JUMPDEST PUSH2 0x2692 PUSH2 0x268A DUP3 PUSH2 0x266B JUMP JUMPDEST DUP5 DUP5 SLOAD PUSH2 0x25F7 JUMP JUMPDEST DUP3 SSTORE POP POP POP POP JUMP JUMPDEST PUSH1 0x0 SWAP1 JUMP JUMPDEST PUSH2 0x26A7 PUSH2 0x269A JUMP JUMPDEST PUSH2 0x26B2 DUP2 DUP5 DUP5 PUSH2 0x2675 JUMP JUMPDEST POP POP POP JUMP JUMPDEST JUMPDEST DUP2 DUP2 LT ISZERO PUSH2 0x26D6 JUMPI PUSH2 0x26CB PUSH1 0x0 DUP3 PUSH2 0x269F JUMP JUMPDEST PUSH1 0x1 DUP2 ADD SWAP1 POP PUSH2 0x26B8 JUMP JUMPDEST POP POP JUMP JUMPDEST PUSH1 0x1F DUP3 GT ISZERO PUSH2 0x271B JUMPI PUSH2 0x26EC DUP2 PUSH2 0x25C5 JUMP JUMPDEST PUSH2 0x26F5 DUP5 PUSH2 0x25DA JUMP JUMPDEST DUP2 ADD PUSH1 0x20 DUP6 LT ISZERO PUSH2 0x2704 JUMPI DUP2 SWAP1 POP JUMPDEST PUSH2 0x2718 PUSH2 0x2710 DUP6 PUSH2 0x25DA JUMP JUMPDEST DUP4 ADD DUP3 PUSH2 0x26B7 JUMP JUMPDEST POP POP JUMPDEST POP POP POP JUMP JUMPDEST PUSH1 0x0 DUP3 DUP3 SHR SWAP1 POP SWAP3 SWAP2 POP POP JUMP JUMPDEST PUSH1 0x0 PUSH2 0x273E PUSH1 0x0 NOT DUP5 PUSH1 0x8 MUL PUSH2 0x2720 JUMP JUMPDEST NOT DUP1 DUP4 AND SWAP2 POP POP SWAP3 SWAP2 POP POP JUMP JUMPDEST PUSH1 0x0 PUSH2 0x2757 DUP4 DUP4 PUSH2 0x272D JUMP JUMPDEST SWAP2 POP DUP3 PUSH1 0x2 MUL DUP3 OR SWAP1 POP SWAP3 SWAP2 POP POP JUMP JUMPDEST PUSH2 0x2770 DUP3 PUSH2 0x1AEE JUMP JUMPDEST PUSH8 0xFFFFFFFFFFFFFFFF DUP2 GT ISZERO PUSH2 0x2789 JUMPI PUSH2 0x2788 PUSH2 0x1D0E JUMP JUMPDEST JUMPDEST PUSH2 0x2793 DUP3 SLOAD PUSH2 0x23CF JUMP JUMPDEST PUSH2 0x279E DUP3 DUP3 DUP6 PUSH2 0x26DA JUMP JUMPDEST PUSH1 0x0 PUSH1 0x20 SWAP1 POP PUSH1 0x1F DUP4 GT PUSH1 0x1 DUP2 EQ PUSH2 0x27D1 JUMPI PUSH1 0x0 DUP5 ISZERO PUSH2 0x27BF JUMPI DUP3 DUP8 ADD MLOAD SWAP1 POP JUMPDEST PUSH2 0x27C9 DUP6 DUP3 PUSH2 0x274B JUMP JUMPDEST DUP7 SSTORE POP PUSH2 0x2831 JUMP JUMPDEST PUSH1 0x1F NOT DUP5 AND PUSH2 0x27DF DUP7 PUSH2 0x25C5 JUMP JUMPDEST PUSH1 0x0 JUMPDEST DUP3 DUP2 LT ISZERO PUSH2 0x2807 JUMPI DUP5 DUP10 ADD MLOAD DUP3 SSTORE PUSH1 0x1 DUP3 ADD SWAP2 POP PUSH1 0x20 DUP6 ADD SWAP5 POP PUSH1 0x20 DUP2 ADD SWAP1 POP PUSH2 0x27E2 JUMP JUMPDEST DUP7 DUP4 LT ISZERO PUSH2 0x2824 JUMPI DUP5 DUP10 ADD MLOAD PUSH2 0x2820 PUSH1 0x1F DUP10 AND DUP3 PUSH2 0x272D JUMP JUMPDEST DUP4 SSTORE POP JUMPDEST PUSH1 0x1 PUSH1 0x2 DUP9 MUL ADD DUP9 SSTORE POP POP POP JUMPDEST POP POP POP POP POP POP JUMP JUMPDEST PUSH32 0x4E487B7100000000000000000000000000000000000000000000000000000000 PUSH1 0x0 MSTORE PUSH1 0x11 PUSH1 0x4 MSTORE PUSH1 0x24 PUSH1 0x0 REVERT JUMPDEST PUSH1 0x0 PUSH2 0x2873 DUP3 PUSH2 0x1A8B JUMP JUMPDEST SWAP2 POP PUSH2 0x287E DUP4 PUSH2 0x1A8B JUMP JUMPDEST SWAP3 POP DUP3 DUP3 MUL PUSH2 0x288C DUP2 PUSH2 0x1A8B JUMP JUMPDEST SWAP2 POP DUP3 DUP3 DIV DUP5 EQ DUP4 ISZERO OR PUSH2 0x28A3 JUMPI PUSH2 0x28A2 PUSH2 0x2839 JUMP JUMPDEST JUMPDEST POP SWAP3 SWAP2 POP POP JUMP JUMPDEST PUSH1 0x0 PUSH2 0x28B5 DUP3 PUSH2 0x1A8B JUMP JUMPDEST SWAP2 POP PUSH2 0x28C0 DUP4 PUSH2 0x1A8B JUMP JUMPDEST SWAP3 POP DUP3 DUP3 ADD SWAP1 POP DUP1 DUP3 GT ISZERO PUSH2 0x28D8 JUMPI PUSH2 0x28D7 PUSH2 0x2839 JUMP JUMPDEST JUMPDEST SWAP3 SWAP2 POP POP JUMP JUMPDEST PUSH32 0x4E487B7100000000000000000000000000000000000000000000000000000000 PUSH1 0x0 MSTORE PUSH1 0x32 PUSH1 0x4 MSTORE PUSH1 0x24 PUSH1 0x0 REVERT JUMPDEST PUSH1 0x0 PUSH2 0x2918 DUP3 PUSH2 0x1A8B JUMP JUMPDEST SWAP2 POP PUSH32 0xFFFFFFFFFFFFFFFFFFFFFFFFFFFFFFFFFFFFFFFFFFFFFFFFFFFFFFFFFFFFFFFF DUP3 SUB PUSH2 0x294A JUMPI PUSH2 0x2949 PUSH2 0x2839 JUMP JUMPDEST JUMPDEST PUSH1 0x1 DUP3 ADD SWAP1 POP SWAP2 SWAP1 POP JUMP JUMPDEST PUSH1 0x0 PUSH1 0x20 DUP3 ADD SWAP1 POP PUSH2 0x296A PUSH1 0x0 DUP4 ADD DUP5 PUSH2 0x2400 JUMP JUMPDEST SWAP3 SWAP2 POP POP JUMP JUMPDEST PUSH1 0x0 PUSH1 0x20 DUP3 DUP5 SUB SLT ISZERO PUSH2 0x2986 JUMPI PUSH2 0x2985 PUSH2 0x197C JUMP JUMPDEST JUMPDEST PUSH1 0x0 PUSH2 0x2994 DUP5 DUP3 DUP6 ADD PUSH2 0x2464 JUMP JUMPDEST SWAP2 POP POP SWAP3 SWAP2 POP POP JUMP JUMPDEST PUSH1 0x0 DUP2 SWAP1 POP SWAP3 SWAP2 POP POP JUMP JUMPDEST PUSH32 0x68747470733A2F2F6170692E636F76616C656E7468712E636F6D2F76312F3830 PUSH1 0x0 DUP3 ADD MSTORE PUSH32 0x3030312F616464726573732F0000000000000000000000000000000000000000 PUSH1 0x20 DUP3 ADD MSTORE POP JUMP JUMPDEST PUSH1 0x0 PUSH2 0x2A04 PUSH1 0x2C DUP4 PUSH2 0x299D JUMP JUMPDEST SWAP2 POP PUSH2 0x2A0F DUP3 PUSH2 0x29A8 JUMP JUMPDEST PUSH1 0x2C DUP3 ADD SWAP1 POP SWAP2 SWAP1 POP JUMP JUMPDEST PUSH1 0x0 PUSH2 0x2A25 DUP3 PUSH2 0x1AEE JUMP JUMPDEST PUSH2 0x2A2F DUP2 DUP6 PUSH2 0x299D JUMP JUMPDEST SWAP4 POP PUSH2 0x2A3F DUP2 DUP6 PUSH1 0x20 DUP7 ADD PUSH2 0x1B0A JUMP JUMPDEST DUP1 DUP5 ADD SWAP2 POP POP SWAP3 SWAP2 POP POP JUMP JUMPDEST PUSH32 0x2F62616C616E6365735F76322F3F71756F74652D63757272656E63793D555344 PUSH1 0x0 DUP3 ADD MSTORE PUSH32 0x26666F726D61743D4A534F4E266E66743D74727565266E6F2D6E66742D666574 PUSH1 0x20 DUP3 ADD MSTORE PUSH32 0x63683D66616C7365266B65793D636B65795F3739633939376337653830383465 PUSH1 0x40 DUP3 ADD MSTORE PUSH32 0x3066396466306166393832346300000000000000000000000000000000000000 PUSH1 0x60 DUP3 ADD MSTORE POP JUMP JUMPDEST PUSH1 0x0 PUSH2 0x2AF3 PUSH1 0x6D DUP4 PUSH2 0x299D JUMP JUMPDEST SWAP2 POP PUSH2 0x2AFE DUP3 PUSH2 0x2A4B JUMP JUMPDEST PUSH1 0x6D DUP3 ADD SWAP1 POP SWAP2 SWAP1 POP JUMP JUMPDEST PUSH32 0x6974656D73000000000000000000000000000000000000000000000000000000 DUP2 MSTORE POP JUMP JUMPDEST PUSH1 0x0 PUSH2 0x2B3A DUP3 PUSH2 0x29F7 JUMP JUMPDEST SWAP2 POP PUSH2 0x2B46 DUP3 DUP5 PUSH2 0x2A1A JUMP JUMPDEST SWAP2 POP PUSH2 0x2B51 DUP3 PUSH2 0x2AE6 JUMP JUMPDEST SWAP2 POP PUSH2 0x2B5C DUP3 PUSH2 0x2B09 JUMP JUMPDEST PUSH1 0x5 DUP3 ADD SWAP2 POP DUP2 SWAP1 POP SWAP3 SWAP2 POP POP JUMP JUMPDEST PUSH32 0x4E756D65726963417069526573706F6E73650000000000000000000000000000 PUSH1 0x0 DUP3 ADD MSTORE POP JUMP JUMPDEST PUSH1 0x0 PUSH2 0x2BA1 PUSH1 0x12 DUP4 PUSH2 0x1AF9 JUMP JUMPDEST SWAP2 POP PUSH2 0x2BAC DUP3 PUSH2 0x2B6B JUMP JUMPDEST PUSH1 0x20 DUP3 ADD SWAP1 POP SWAP2 SWAP1 POP JUMP JUMPDEST PUSH1 0x0 PUSH1 0x40 DUP3 ADD SWAP1 POP DUP2 DUP2 SUB PUSH1 0x0 DUP4 ADD MSTORE PUSH2 0x2BD0 DUP2 PUSH2 0x2B94 JUMP JUMPDEST SWAP1 POP DUP2 DUP2 SUB PUSH1 0x20 DUP4 ADD MSTORE PUSH2 0x2BE4 DUP2 DUP5 PUSH2 0x1EEE JUMP JUMPDEST SWAP1 POP SWAP3 SWAP2 POP POP JUMP JUMPDEST PUSH1 0x0 PUSH2 0x2BF7 DUP3 PUSH2 0x1A8B JUMP JUMPDEST SWAP2 POP PUSH2 0x2C02 DUP4 PUSH2 0x1A8B JUMP JUMPDEST SWAP3 POP DUP3 DUP3 SUB SWAP1 POP DUP2 DUP2 GT ISZERO PUSH2 0x2C1A JUMPI PUSH2 0x2C19 PUSH2 0x2839 JUMP JUMPDEST JUMPDEST SWAP3 SWAP2 POP POP JUMP JUMPDEST PUSH1 0x0 PUSH2 0x2C33 PUSH2 0x2C2E DUP5 PUSH2 0x1F57 JUMP JUMPDEST PUSH2 0x1D6E JUMP JUMPDEST SWAP1 POP DUP3 DUP2 MSTORE PUSH1 0x20 DUP2 ADD DUP5 DUP5 DUP5 ADD GT ISZERO PUSH2 0x2C4F JUMPI PUSH2 0x2C4E PUSH2 0x1D09 JUMP JUMPDEST JUMPDEST PUSH2 0x2C5A DUP5 DUP3 DUP6 PUSH2 0x1B0A JUMP JUMPDEST POP SWAP4 SWAP3 POP POP POP JUMP JUMPDEST PUSH1 0x0 DUP3 PUSH1 0x1F DUP4 ADD SLT PUSH2 0x2C77 JUMPI PUSH2 0x2C76 PUSH2 0x1D04 JUMP JUMPDEST JUMPDEST DUP2 MLOAD PUSH2 0x2C87 DUP5 DUP3 PUSH1 0x20 DUP7 ADD PUSH2 0x2C20 JUMP JUMPDEST SWAP2 POP POP SWAP3 SWAP2 POP POP JUMP JUMPDEST PUSH1 0x0 DUP1 PUSH1 0x0 PUSH1 0x60 DUP5 DUP7 SUB SLT ISZERO PUSH2 0x2CA9 JUMPI PUSH2 0x2CA8 PUSH2 0x197C JUMP JUMPDEST JUMPDEST PUSH1 0x0 PUSH2 0x2CB7 DUP7 DUP3 DUP8 ADD PUSH2 0x244F JUMP JUMPDEST SWAP4 POP POP PUSH1 0x20 DUP5 ADD MLOAD PUSH8 0xFFFFFFFFFFFFFFFF DUP2 GT ISZERO PUSH2 0x2CD8 JUMPI PUSH2 0x2CD7 PUSH2 0x1981 JUMP JUMPDEST JUMPDEST PUSH2 0x2CE4 DUP7 DUP3 DUP8 ADD PUSH2 0x2C62 JUMP JUMPDEST SWAP3 POP POP PUSH1 0x40 PUSH2 0x2CF5 DUP7 DUP3 DUP8 ADD PUSH2 0x2464 JUMP JUMPDEST SWAP2 POP POP SWAP3 POP SWAP3 POP SWAP3 JUMP JUMPDEST PUSH1 0x0 PUSH1 0x20 DUP3 DUP5 SUB SLT ISZERO PUSH2 0x2D15 JUMPI PUSH2 0x2D14 PUSH2 0x197C JUMP JUMPDEST JUMPDEST PUSH1 0x0 DUP3 ADD MLOAD PUSH8 0xFFFFFFFFFFFFFFFF DUP2 GT ISZERO PUSH2 0x2D33 JUMPI PUSH2 0x2D32 PUSH2 0x1981 JUMP JUMPDEST JUMPDEST PUSH2 0x2D3F DUP5 DUP3 DUP6 ADD PUSH2 0x2C62 JUMP JUMPDEST SWAP2 POP POP SWAP3 SWAP2 POP POP JUMP JUMPDEST PUSH1 0x0 DUP2 MLOAD SWAP1 POP PUSH2 0x2D57 DUP2 PUSH2 0x19B8 JUMP JUMPDEST SWAP3 SWAP2 POP POP JUMP JUMPDEST PUSH1 0x0 PUSH1 0x20 DUP3 DUP5 SUB SLT ISZERO PUSH2 0x2D73 JUMPI PUSH2 0x2D72 PUSH2 0x197C JUMP JUMPDEST JUMPDEST PUSH1 0x0 PUSH2 0x2D81 DUP5 DUP3 DUP6 ADD PUSH2 0x2D48 JUMP JUMPDEST SWAP2 POP POP SWAP3 SWAP2 POP POP JUMP JUMPDEST PUSH1 0x0 DUP2 MLOAD SWAP1 POP PUSH2 0x2D99 DUP2 PUSH2 0x1BC7 JUMP JUMPDEST SWAP3 SWAP2 POP POP JUMP JUMPDEST PUSH1 0x0 PUSH1 0x20 DUP3 DUP5 SUB SLT ISZERO PUSH2 0x2DB5 JUMPI PUSH2 0x2DB4 PUSH2 0x197C JUMP JUMPDEST JUMPDEST PUSH1 0x0 PUSH2 0x2DC3 DUP5 DUP3 DUP6 ADD PUSH2 0x2D8A JUMP JUMPDEST SWAP2 POP POP SWAP3 SWAP2 POP POP JUMP JUMPDEST PUSH1 0x0 DUP2 SWAP1 POP SWAP3 SWAP2 POP POP JUMP JUMPDEST PUSH1 0x0 PUSH2 0x2DE2 DUP3 PUSH2 0x1ED2 JUMP JUMPDEST PUSH2 0x2DEC DUP2 DUP6 PUSH2 0x2DCC JUMP JUMPDEST SWAP4 POP PUSH2 0x2DFC DUP2 DUP6 PUSH1 0x20 DUP7 ADD PUSH2 0x1B0A JUMP JUMPDEST DUP1 DUP5 ADD SWAP2 POP POP SWAP3 SWAP2 POP POP JUMP JUMPDEST PUSH1 0x0 PUSH2 0x2E14 DUP3 DUP5 PUSH2 0x2DD7 JUMP JUMPDEST SWAP2 POP DUP2 SWAP1 POP SWAP3 SWAP2 POP POP JUMP INVALID LOG2 PUSH5 0x6970667358 0x22 SLT KECCAK256 0xBE SUB 0xD0 DIV PUSH18 0x12DF88EE94FE802183F4DF52C1AD496C2826 PUSH26 0x47B568EFA0F358CF64736F6C6343000811003300000000000000 "},"methodIdentifiers":{"getDataAfter(bytes32,uint256)":"64ee3c6d","getDataBefore(bytes32,uint256)":"a792765f","getIndexForDataAfter(bytes32,uint256)":"f66f49c3","getIndexForDataBefore(bytes32,uint256)":"29449085","getMultipleValuesBefore(bytes32,uint256,uint256,uint256)":"fcd4a546","getNewValueCountbyQueryId(bytes32)":"77b03e0d","getReporterByTimestamp(bytes32,uint256)":"e07c5486","getTimestampbyQueryIdandIndex(bytes32,uint256)":"ce5e11bf","idMappingContract()":"2af8aae0","isInDispute(bytes32,uint256)":"44e87f91","isUserVerified(address)":"ace417e0","nullifierHashes(uint256)":"1f79a1e9","readValue()":"82da2e57","retrieveData(bytes32,uint256)":"c5958af9","setIdMappingContract(address)":"193b505b","tellor()":"1959ad5b","toString(bytes)":"71aad10d","valueFor(bytes32)":"f78eea83","verifyAndExecute(address,uint256,uint256,uint256[8],string)":"59dca71f"}}}}}