{
  "_format": "hh-sol-artifact-1",
  "contractName": "Contract",
  "sourceName": "contracts/Main.sol",
  "abi": [
    {
      "inputs": [
        {
          "internalType": "contract IWorldID",
          "name": "_worldId",
          "type": "address"
        },
        {
          "internalType": "address payable",
          "name": "_tellorAddress",
          "type": "address"
        }
      ],
      "stateMutability": "nonpayable",
      "type": "constructor"
    },
    {
      "inputs": [],
      "name": "InvalidNullifier",
      "type": "error"
    },
    {
      "inputs": [
        {
          "internalType": "bytes32",
          "name": "_queryId",
          "type": "bytes32"
        },
        {
          "internalType": "uint256",
          "name": "_timestamp",
          "type": "uint256"
        }
      ],
      "name": "getDataAfter",
      "outputs": [
        {
          "internalType": "bytes",
          "name": "_value",
          "type": "bytes"
        },
        {
          "internalType": "uint256",
          "name": "_timestampRetrieved",
          "type": "uint256"
        }
      ],
      "stateMutability": "view",
      "type": "function"
    },
    {
      "inputs": [
        {
          "internalType": "bytes32",
          "name": "_queryId",
          "type": "bytes32"
        },
        {
          "internalType": "uint256",
          "name": "_timestamp",
          "type": "uint256"
        }
      ],
      "name": "getDataBefore",
      "outputs": [
        {
          "internalType": "bytes",
          "name": "_value",
          "type": "bytes"
        },
        {
          "internalType": "uint256",
          "name": "_timestampRetrieved",
          "type": "uint256"
        }
      ],
      "stateMutability": "view",
      "type": "function"
    },
    {
      "inputs": [
        {
          "internalType": "bytes32",
          "name": "_queryId",
          "type": "bytes32"
        },
        {
          "internalType": "uint256",
          "name": "_timestamp",
          "type": "uint256"
        }
      ],
      "name": "getIndexForDataAfter",
      "outputs": [
        {
          "internalType": "bool",
          "name": "_found",
          "type": "bool"
        },
        {
          "internalType": "uint256",
          "name": "_index",
          "type": "uint256"
        }
      ],
      "stateMutability": "view",
      "type": "function"
    },
    {
      "inputs": [
        {
          "internalType": "bytes32",
          "name": "_queryId",
          "type": "bytes32"
        },
        {
          "internalType": "uint256",
          "name": "_timestamp",
          "type": "uint256"
        }
      ],
      "name": "getIndexForDataBefore",
      "outputs": [
        {
          "internalType": "bool",
          "name": "_found",
          "type": "bool"
        },
        {
          "internalType": "uint256",
          "name": "_index",
          "type": "uint256"
        }
      ],
      "stateMutability": "view",
      "type": "function"
    },
    {
      "inputs": [
        {
          "internalType": "bytes32",
          "name": "_queryId",
          "type": "bytes32"
        },
        {
          "internalType": "uint256",
          "name": "_timestamp",
          "type": "uint256"
        },
        {
          "internalType": "uint256",
          "name": "_maxAge",
          "type": "uint256"
        },
        {
          "internalType": "uint256",
          "name": "_maxCount",
          "type": "uint256"
        }
      ],
      "name": "getMultipleValuesBefore",
      "outputs": [
        {
          "internalType": "bytes[]",
          "name": "_values",
          "type": "bytes[]"
        },
        {
          "internalType": "uint256[]",
          "name": "_timestamps",
          "type": "uint256[]"
        }
      ],
      "stateMutability": "view",
      "type": "function"
    },
    {
      "inputs": [
        {
          "internalType": "bytes32",
          "name": "_queryId",
          "type": "bytes32"
        }
      ],
      "name": "getNewValueCountbyQueryId",
      "outputs": [
        {
          "internalType": "uint256",
          "name": "",
          "type": "uint256"
        }
      ],
      "stateMutability": "view",
      "type": "function"
    },
    {
      "inputs": [
        {
          "internalType": "bytes32",
          "name": "_queryId",
          "type": "bytes32"
        },
        {
          "internalType": "uint256",
          "name": "_timestamp",
          "type": "uint256"
        }
      ],
      "name": "getReporterByTimestamp",
      "outputs": [
        {
          "internalType": "address",
          "name": "",
          "type": "address"
        }
      ],
      "stateMutability": "view",
      "type": "function"
    },
    {
      "inputs": [
        {
          "internalType": "bytes32",
          "name": "_queryId",
          "type": "bytes32"
        },
        {
          "internalType": "uint256",
          "name": "_index",
          "type": "uint256"
        }
      ],
      "name": "getTimestampbyQueryIdandIndex",
      "outputs": [
        {
          "internalType": "uint256",
          "name": "",
          "type": "uint256"
        }
      ],
      "stateMutability": "view",
      "type": "function"
    },
    {
      "inputs": [],
      "name": "idMappingContract",
      "outputs": [
        {
          "internalType": "contract IMappingContract",
          "name": "",
          "type": "address"
        }
      ],
      "stateMutability": "view",
      "type": "function"
    },
    {
      "inputs": [
        {
          "internalType": "bytes32",
          "name": "_queryId",
          "type": "bytes32"
        },
        {
          "internalType": "uint256",
          "name": "_timestamp",
          "type": "uint256"
        }
      ],
      "name": "isInDispute",
      "outputs": [
        {
          "internalType": "bool",
          "name": "",
          "type": "bool"
        }
      ],
      "stateMutability": "view",
      "type": "function"
    },
    {
      "inputs": [
        {
          "internalType": "address",
          "name": "",
          "type": "address"
        }
      ],
      "name": "isUserVerified",
      "outputs": [
        {
          "internalType": "bool",
          "name": "",
          "type": "bool"
        }
      ],
      "stateMutability": "view",
      "type": "function"
    },
    {
      "inputs": [
        {
          "internalType": "uint256",
          "name": "",
          "type": "uint256"
        }
      ],
      "name": "nullifierHashes",
      "outputs": [
        {
          "internalType": "string",
          "name": "name",
          "type": "string"
        },
        {
          "internalType": "address",
          "name": "owner",
          "type": "address"
        }
      ],
      "stateMutability": "view",
      "type": "function"
    },
    {
      "inputs": [],
      "name": "readValue",
      "outputs": [
        {
          "internalType": "uint256",
          "name": "",
          "type": "uint256"
        }
      ],
      "stateMutability": "view",
      "type": "function"
    },
    {
      "inputs": [
        {
          "internalType": "bytes32",
          "name": "_queryId",
          "type": "bytes32"
        },
        {
          "internalType": "uint256",
          "name": "_timestamp",
          "type": "uint256"
        }
      ],
      "name": "retrieveData",
      "outputs": [
        {
          "internalType": "bytes",
          "name": "",
          "type": "bytes"
        }
      ],
      "stateMutability": "view",
      "type": "function"
    },
    {
      "inputs": [
        {
          "internalType": "address",
          "name": "_addy",
          "type": "address"
        }
      ],
      "name": "setIdMappingContract",
      "outputs": [],
      "stateMutability": "nonpayable",
      "type": "function"
    },
    {
      "inputs": [],
      "name": "tellor",
      "outputs": [
        {
          "internalType": "contract ITellor",
          "name": "",
          "type": "address"
        }
      ],
      "stateMutability": "view",
      "type": "function"
    },
    {
      "inputs": [
        {
          "internalType": "bytes",
          "name": "data",
          "type": "bytes"
        }
      ],
      "name": "toString",
      "outputs": [
        {
          "internalType": "string",
          "name": "",
          "type": "string"
        }
      ],
      "stateMutability": "pure",
      "type": "function"
    },
    {
      "inputs": [
        {
          "internalType": "bytes32",
          "name": "_id",
          "type": "bytes32"
        }
      ],
      "name": "valueFor",
      "outputs": [
        {
          "internalType": "int256",
          "name": "_value",
          "type": "int256"
        },
        {
          "internalType": "uint256",
          "name": "_timestamp",
          "type": "uint256"
        },
        {
          "internalType": "uint256",
          "name": "_statusCode",
          "type": "uint256"
        }
      ],
      "stateMutability": "view",
      "type": "function"
    },
    {
      "inputs": [
        {
          "internalType": "address",
          "name": "signal",
          "type": "address"
        },
        {
          "internalType": "uint256",
          "name": "root",
          "type": "uint256"
        },
        {
          "internalType": "uint256",
          "name": "nullifierHash",
          "type": "uint256"
        },
        {
          "internalType": "uint256[8]",
          "name": "proof",
          "type": "uint256[8]"
        },
        {
          "internalType": "string",
          "name": "_ens",
          "type": "string"
        }
      ],
      "name": "verifyAndExecute",
      "outputs": [],
      "stateMutability": "nonpayable",
      "type": "function"
    }
  ],
  "bytecode": "0x60c0604052600160a0908152503480156200001957600080fd5b50604051620030423803806200304283398181016040528101906200003f919062000180565b80806000806101000a81548173ffffffffffffffffffffffffffffffffffffffff021916908373ffffffffffffffffffffffffffffffffffffffff160217905550508173ffffffffffffffffffffffffffffffffffffffff1660808173ffffffffffffffffffffffffffffffffffffffff16815250505050620001c7565b600080fd5b600073ffffffffffffffffffffffffffffffffffffffff82169050919050565b6000620000ef82620000c2565b9050919050565b60006200010382620000e2565b9050919050565b6200011581620000f6565b81146200012157600080fd5b50565b60008151905062000135816200010a565b92915050565b60006200014882620000c2565b9050919050565b6200015a816200013b565b81146200016657600080fd5b50565b6000815190506200017a816200014f565b92915050565b600080604083850312156200019a5762000199620000bd565b5b6000620001aa8582860162000124565b9250506020620001bd8582860162000169565b9150509250929050565b60805160a051612e55620001ed6000396000610840015260006108030152612e556000f3fe608060405234801561001057600080fd5b50600436106101215760003560e01c806377b03e0d116100ad578063ce5e11bf11610071578063ce5e11bf1461036c578063e07c54861461039c578063f66f49c3146103cc578063f78eea83146103fd578063fcd4a5461461042f57610121565b806377b03e0d1461028d57806382da2e57146102bd578063a792765f146102db578063ace417e01461030c578063c5958af91461033c57610121565b80632af8aae0116100f45780632af8aae0146101c257806344e87f91146101e057806359dca71f1461021057806364ee3c6d1461022c57806371aad10d1461025d57610121565b8063193b505b146101265780631959ad5b146101425780631f79a1e9146101605780632944908514610191575b600080fd5b610140600480360381019061013b91906119e4565b610460565b005b61014a6104ff565b6040516101579190611a70565b60405180910390f35b61017a60048036038101906101759190611ac1565b610523565b604051610188929190611b8d565b60405180910390f35b6101ab60048036038101906101a69190611bf3565b6105ef565b6040516101b9929190611c5d565b60405180910390f35b6101ca610698565b6040516101d79190611ca7565b60405180910390f35b6101fa60048036038101906101f59190611bf3565b6106be565b6040516102079190611cc2565b60405180910390f35b61022a60048036038101906102259190611e39565b610765565b005b61024660048036038101906102419190611bf3565b6109ff565b604051610254929190611f27565b60405180910390f35b61027760048036038101906102729190611ff8565b610a59565b6040516102849190612041565b60405180910390f35b6102a760048036038101906102a29190612063565b610d53565b6040516102b49190612090565b60405180910390f35b6102c5610df7565b6040516102d29190612090565b60405180910390f35b6102f560048036038101906102f09190611bf3565b610ec8565b604051610303929190611f27565b60405180910390f35b610326600480360381019061032191906119e4565b610f80565b6040516103339190611cc2565b60405180910390f35b61035660048036038101906103519190611bf3565b610fa0565b60405161036391906120ab565b60405180910390f35b61038660048036038101906103819190611bf3565b61104b565b6040516103939190612090565b60405180910390f35b6103b660048036038101906103b19190611bf3565b6110f2565b6040516103c391906120cd565b60405180910390f35b6103e660048036038101906103e19190611bf3565b611199565b6040516103f4929190611c5d565b60405180910390f35b61041760048036038101906104129190612063565b61148a565b60405161042693929190612101565b60405180910390f35b61044960048036038101906104449190612138565b6115bb565b604051610457929190612369565b60405180910390f35b600073ffffffffffffffffffffffffffffffffffffffff16600160009054906101000a900473ffffffffffffffffffffffffffffffffffffffff1673ffffffffffffffffffffffffffffffffffffffff16146104bb57600080fd5b80600160006101000a81548173ffffffffffffffffffffffffffffffffffffffff021916908373ffffffffffffffffffffffffffffffffffffffff16021790555050565b60008054906101000a900473ffffffffffffffffffffffffffffffffffffffff1681565b6003602052806000526040600020600091509050806000018054610546906123cf565b80601f0160208091040260200160405190810160405280929190818152602001828054610572906123cf565b80156105bf5780601f10610594576101008083540402835291602001916105bf565b820191906000526020600020905b8154815290600101906020018083116105a257829003601f168201915b5050505050908060010160009054906101000a900473ffffffffffffffffffffffffffffffffffffffff16905082565b60008060008054906101000a900473ffffffffffffffffffffffffffffffffffffffff1673ffffffffffffffffffffffffffffffffffffffff16632944908585856040518363ffffffff1660e01b815260040161064d92919061240f565b6040805180830381865afa158015610669573d6000803e3d6000fd5b505050506040513d601f19601f8201168201806040525081019061068d9190612479565b915091509250929050565b600160009054906101000a900473ffffffffffffffffffffffffffffffffffffffff1681565b60008060009054906101000a900473ffffffffffffffffffffffffffffffffffffffff1673ffffffffffffffffffffffffffffffffffffffff166344e87f9184846040518363ffffffff1660e01b815260040161071c92919061240f565b602060405180830381865afa158015610739573d6000803e3d6000fd5b505050506040513d601f19601f8201168201806040525081019061075d91906124b9565b905092915050565b600073ffffffffffffffffffffffffffffffffffffffff166003600085815260200190815260200160002060010160009054906101000a900473ffffffffffffffffffffffffffffffffffffffff1673ffffffffffffffffffffffffffffffffffffffff1614610801576040517f5d904cb200000000000000000000000000000000000000000000000000000000815260040160405180910390fd5b7f000000000000000000000000000000000000000000000000000000000000000073ffffffffffffffffffffffffffffffffffffffff16633bc778e3857f000000000000000000000000000000000000000000000000000000000000000061088789604051602001610873919061252e565b6040516020818303038152906040526118d3565b876108b03060405160200161089c919061252e565b6040516020818303038152906040526118d3565b886040518763ffffffff1660e01b81526004016108d296959493929190612563565b60006040518083038186803b1580156108ea57600080fd5b505afa1580156108fe573d6000803e3d6000fd5b5050505060405180604001604052808281526020013373ffffffffffffffffffffffffffffffffffffffff168152506003600085815260200190815260200160002060008201518160000190816109559190612767565b5060208201518160010160006101000a81548173ffffffffffffffffffffffffffffffffffffffff021916908373ffffffffffffffffffffffffffffffffffffffff1602179055509050506001600260003373ffffffffffffffffffffffffffffffffffffffff1673ffffffffffffffffffffffffffffffffffffffff16815260200190815260200160002060006101000a81548160ff0219169083151502179055505050505050565b60606000806000610a108686611199565b9150915081610a375760006040518060200160405280600081525090935093505050610a52565b610a41868261104b565b9250610a4d8684610fa0565b935050505b9250929050565b606060006040518060400160405280601081526020017f30313233343536373839616263646566000000000000000000000000000000008152509050600060028451610aa59190612868565b6002610ab191906128aa565b67ffffffffffffffff811115610aca57610ac9611d0e565b5b6040519080825280601f01601f191660200182016040528015610afc5781602001600182028036833780820191505090505b5090507f300000000000000000000000000000000000000000000000000000000000000081600081518110610b3457610b336128de565b5b60200101907effffffffffffffffffffffffffffffffffffffffffffffffffffffffffffff1916908160001a9053507f780000000000000000000000000000000000000000000000000000000000000081600181518110610b9857610b976128de565b5b60200101907effffffffffffffffffffffffffffffffffffffffffffffffffffffffffffff1916908160001a90535060005b8451811015610d4857826004868381518110610be957610be86128de565b5b602001015160f81c60f81b7effffffffffffffffffffffffffffffffffffffffffffffffffffffffffffff1916901c60f81c60ff1681518110610c2f57610c2e6128de565b5b602001015160f81c60f81b82600283610c489190612868565b6002610c5491906128aa565b81518110610c6557610c646128de565b5b60200101907effffffffffffffffffffffffffffffffffffffffffffffffffffffffffffff1916908160001a90535082600f60f81b868381518110610cad57610cac6128de565b5b602001015160f81c60f81b1660f81c60ff1681518110610cd057610ccf6128de565b5b602001015160f81c60f81b82600283610ce99190612868565b6003610cf591906128aa565b81518110610d0657610d056128de565b5b60200101907effffffffffffffffffffffffffffffffffffffffffffffffffffffffffffff1916908160001a9053508080610d409061290d565b915050610bca565b508092505050919050565b60008060009054906101000a900473ffffffffffffffffffffffffffffffffffffffff1673ffffffffffffffffffffffffffffffffffffffff166377b03e0d836040518263ffffffff1660e01b8152600401610daf9190612955565b602060405180830381865afa158015610dcc573d6000803e3d6000fd5b505050506040513d601f19601f82011682018060405250810190610df09190612970565b9050919050565b600080610e2233604051602001610e0e919061252e565b604051602081830303815290604052610a59565b604051602001610e329190612b2f565b604051602081830303815290604052604051602001610e519190612041565b604051602081830303815290604052604051602001610e709190612bb7565b6040516020818303038152906040529050600081805190602001209050600080610ea78361038442610ea29190612bec565b610ec8565b9150915081806020019051810190610ebf9190612970565b94505050505090565b606060008060009054906101000a900473ffffffffffffffffffffffffffffffffffffffff1673ffffffffffffffffffffffffffffffffffffffff1663a792765f85856040518363ffffffff1660e01b8152600401610f2892919061240f565b600060405180830381865afa158015610f45573d6000803e3d6000fd5b505050506040513d6000823e3d601f19601f82011682018060405250810190610f6e9190612c90565b90915080925081935050509250929050565b60026020528060005260406000206000915054906101000a900460ff1681565b606060008054906101000a900473ffffffffffffffffffffffffffffffffffffffff1673ffffffffffffffffffffffffffffffffffffffff1663c5958af984846040518363ffffffff1660e01b8152600401610ffd92919061240f565b600060405180830381865afa15801561101a573d6000803e3d6000fd5b505050506040513d6000823e3d601f19601f820116820180604052508101906110439190612cff565b905092915050565b60008060009054906101000a900473ffffffffffffffffffffffffffffffffffffffff1673ffffffffffffffffffffffffffffffffffffffff1663ce5e11bf84846040518363ffffffff1660e01b81526004016110a992919061240f565b602060405180830381865afa1580156110c6573d6000803e3d6000fd5b505050506040513d601f19601f820116820180604052508101906110ea9190612970565b905092915050565b60008060009054906101000a900473ffffffffffffffffffffffffffffffffffffffff1673ffffffffffffffffffffffffffffffffffffffff1663e07c548684846040518363ffffffff1660e01b815260040161115092919061240f565b602060405180830381865afa15801561116d573d6000803e3d6000fd5b505050506040513d601f19601f820116820180604052508101906111919190612d5d565b905092915050565b60008060008054906101000a900473ffffffffffffffffffffffffffffffffffffffff1673ffffffffffffffffffffffffffffffffffffffff16632944908585856040518363ffffffff1660e01b81526004016111f792919061240f565b6040805180830381865afa158015611213573d6000803e3d6000fd5b505050506040513d601f19601f820116820180604052508101906112379190612479565b809250819350505081156112545780806112509061290d565b9150505b60008060009054906101000a900473ffffffffffffffffffffffffffffffffffffffff1673ffffffffffffffffffffffffffffffffffffffff166377b03e0d866040518263ffffffff1660e01b81526004016112b09190612955565b602060405180830381865afa1580156112cd573d6000803e3d6000fd5b505050506040513d601f19601f820116820180604052508101906112f19190612970565b9050818111611307576000809250925050611483565b60008060009054906101000a900473ffffffffffffffffffffffffffffffffffffffff1673ffffffffffffffffffffffffffffffffffffffff1663ce5e11bf87856040518363ffffffff1660e01b815260040161136592919061240f565b602060405180830381865afa158015611382573d6000803e3d6000fd5b505050506040513d601f19601f820116820180604052508101906113a69190612970565b9050848111156113bb57600193505050611483565b82806113c69061290d565b9350508282116113de57600080935093505050611483565b60008054906101000a900473ffffffffffffffffffffffffffffffffffffffff1673ffffffffffffffffffffffffffffffffffffffff1663ce5e11bf87856040518363ffffffff1660e01b815260040161143992919061240f565b602060405180830381865afa158015611456573d6000803e3d6000fd5b505050506040513d601f19601f8201168201806040525081019061147a9190612970565b90506001935050505b9250929050565b6000806000600160009054906101000a900473ffffffffffffffffffffffffffffffffffffffff1673ffffffffffffffffffffffffffffffffffffffff166387a475fd856040518263ffffffff1660e01b81526004016114ea9190612955565b602060405180830381865afa158015611507573d6000803e3d6000fd5b505050506040513d601f19601f8201168201806040525081019061152b9190612d9f565b9350600061153885610d53565b90506000810361155457600080610194935093509350506115b4565b61156a856001836115659190612bec565b61104b565b925060006115788685610fa0565b905060008151036115965760008061019494509450945050506115b4565b60006115a18261190a565b9050809550858560c89550955095505050505b9193909250565b6060806000806115d68887896115d19190612bec565b611199565b915091508161168357600067ffffffffffffffff8111156115fa576115f9611d0e565b5b60405190808252806020026020018201604052801561162d57816020015b60608152602001906001900390816116185790505b50600067ffffffffffffffff81111561164957611648611d0e565b5b6040519080825280602002602001820160405280156116775781602001602082028036833780820191505090505b509350935050506118ca565b600061168f89896105ef565b80925081945050508261174157600067ffffffffffffffff8111156116b7576116b6611d0e565b5b6040519080825280602002602001820160405280156116ea57816020015b60608152602001906001900390816116d55790505b50600067ffffffffffffffff81111561170657611705611d0e565b5b6040519080825280602002602001820160405280156117345781602001602082028036833780820191505090505b50945094505050506118ca565b6000600183836117519190612bec565b61175b91906128aa565b90508681111561178357600187836117739190612bec565b61177d91906128aa565b92508690505b60008167ffffffffffffffff81111561179f5761179e611d0e565b5b6040519080825280602002602001820160405280156117d257816020015b60608152602001906001900390816117bd5790505b50905060008267ffffffffffffffff8111156117f1576117f0611d0e565b5b60405190808252806020026020018201604052801561181f5781602001602082028036833780820191505090505b509050606060005b848110156118bb576118448e828961183f91906128aa565b61104b565b838281518110611857576118566128de565b5b6020026020010181815250506118878e84838151811061187a576118796128de565b5b6020026020010151610fa0565b91508184828151811061189d5761189c6128de565b5b602002602001018190525080806118b39061290d565b915050611827565b50828298509850505050505050505b94509492505050565b60006008826040516020016118e89190612e08565b6040516020818303038152906040528051906020012060001c901c9050919050565b600080600090505b825181101561196c5782818151811061192e5761192d6128de565b5b602001015160f81c60f81b60f81c60ff166101008361194d9190612868565b61195791906128aa565b915080806119649061290d565b915050611912565b50919050565b6000604051905090565b600080fd5b600080fd5b600073ffffffffffffffffffffffffffffffffffffffff82169050919050565b60006119b182611986565b9050919050565b6119c1816119a6565b81146119cc57600080fd5b50565b6000813590506119de816119b8565b92915050565b6000602082840312156119fa576119f961197c565b5b6000611a08848285016119cf565b91505092915050565b6000819050919050565b6000611a36611a31611a2c84611986565b611a11565b611986565b9050919050565b6000611a4882611a1b565b9050919050565b6000611a5a82611a3d565b9050919050565b611a6a81611a4f565b82525050565b6000602082019050611a856000830184611a61565b92915050565b6000819050919050565b611a9e81611a8b565b8114611aa957600080fd5b50565b600081359050611abb81611a95565b92915050565b600060208284031215611ad757611ad661197c565b5b6000611ae584828501611aac565b91505092915050565b600081519050919050565b600082825260208201905092915050565b60005b83811015611b28578082015181840152602081019050611b0d565b60008484015250505050565b6000601f19601f8301169050919050565b6000611b5082611aee565b611b5a8185611af9565b9350611b6a818560208601611b0a565b611b7381611b34565b840191505092915050565b611b87816119a6565b82525050565b60006040820190508181036000830152611ba78185611b45565b9050611bb66020830184611b7e565b9392505050565b6000819050919050565b611bd081611bbd565b8114611bdb57600080fd5b50565b600081359050611bed81611bc7565b92915050565b60008060408385031215611c0a57611c0961197c565b5b6000611c1885828601611bde565b9250506020611c2985828601611aac565b9150509250929050565b60008115159050919050565b611c4881611c33565b82525050565b611c5781611a8b565b82525050565b6000604082019050611c726000830185611c3f565b611c7f6020830184611c4e565b9392505050565b6000611c9182611a3d565b9050919050565b611ca181611c86565b82525050565b6000602082019050611cbc6000830184611c98565b92915050565b6000602082019050611cd76000830184611c3f565b92915050565b600080fd5b600081905082602060080282011115611cfe57611cfd611cdd565b5b92915050565b600080fd5b600080fd5b7f4e487b7100000000000000000000000000000000000000000000000000000000600052604160045260246000fd5b611d4682611b34565b810181811067ffffffffffffffff82111715611d6557611d64611d0e565b5b80604052505050565b6000611d78611972565b9050611d848282611d3d565b919050565b600067ffffffffffffffff821115611da457611da3611d0e565b5b611dad82611b34565b9050602081019050919050565b82818337600083830152505050565b6000611ddc611dd784611d89565b611d6e565b905082815260208101848484011115611df857611df7611d09565b5b611e03848285611dba565b509392505050565b600082601f830112611e2057611e1f611d04565b5b8135611e30848260208601611dc9565b91505092915050565b60008060008060006101808688031215611e5657611e5561197c565b5b6000611e64888289016119cf565b9550506020611e7588828901611aac565b9450506040611e8688828901611aac565b9350506060611e9788828901611ce2565b92505061016086013567ffffffffffffffff811115611eb957611eb8611981565b5b611ec588828901611e0b565b9150509295509295909350565b600081519050919050565b600082825260208201905092915050565b6000611ef982611ed2565b611f038185611edd565b9350611f13818560208601611b0a565b611f1c81611b34565b840191505092915050565b60006040820190508181036000830152611f418185611eee565b9050611f506020830184611c4e565b9392505050565b600067ffffffffffffffff821115611f7257611f71611d0e565b5b611f7b82611b34565b9050602081019050919050565b6000611f9b611f9684611f57565b611d6e565b905082815260208101848484011115611fb757611fb6611d09565b5b611fc2848285611dba565b509392505050565b600082601f830112611fdf57611fde611d04565b5b8135611fef848260208601611f88565b91505092915050565b60006020828403121561200e5761200d61197c565b5b600082013567ffffffffffffffff81111561202c5761202b611981565b5b61203884828501611fca565b91505092915050565b6000602082019050818103600083015261205b8184611b45565b905092915050565b6000602082840312156120795761207861197c565b5b600061208784828501611bde565b91505092915050565b60006020820190506120a56000830184611c4e565b92915050565b600060208201905081810360008301526120c58184611eee565b905092915050565b60006020820190506120e26000830184611b7e565b92915050565b6000819050919050565b6120fb816120e8565b82525050565b600060608201905061211660008301866120f2565b6121236020830185611c4e565b6121306040830184611c4e565b949350505050565b600080600080608085870312156121525761215161197c565b5b600061216087828801611bde565b945050602061217187828801611aac565b935050604061218287828801611aac565b925050606061219387828801611aac565b91505092959194509250565b600081519050919050565b600082825260208201905092915050565b6000819050602082019050919050565b600082825260208201905092915050565b60006121e782611ed2565b6121f181856121cb565b9350612201818560208601611b0a565b61220a81611b34565b840191505092915050565b600061222183836121dc565b905092915050565b6000602082019050919050565b60006122418261219f565b61224b81856121aa565b93508360208202850161225d856121bb565b8060005b85811015612299578484038952815161227a8582612215565b945061228583612229565b925060208a01995050600181019050612261565b50829750879550505050505092915050565b600081519050919050565b600082825260208201905092915050565b6000819050602082019050919050565b6122e081611a8b565b82525050565b60006122f283836122d7565b60208301905092915050565b6000602082019050919050565b6000612316826122ab565b61232081856122b6565b935061232b836122c7565b8060005b8381101561235c57815161234388826122e6565b975061234e836122fe565b92505060018101905061232f565b5085935050505092915050565b600060408201905081810360008301526123838185612236565b90508181036020830152612397818461230b565b90509392505050565b7f4e487b7100000000000000000000000000000000000000000000000000000000600052602260045260246000fd5b600060028204905060018216806123e757607f821691505b6020821081036123fa576123f96123a0565b5b50919050565b61240981611bbd565b82525050565b60006040820190506124246000830185612400565b6124316020830184611c4e565b9392505050565b61244181611c33565b811461244c57600080fd5b50565b60008151905061245e81612438565b92915050565b60008151905061247381611a95565b92915050565b600080604083850312156124905761248f61197c565b5b600061249e8582860161244f565b92505060206124af85828601612464565b9150509250929050565b6000602082840312156124cf576124ce61197c565b5b60006124dd8482850161244f565b91505092915050565b60008160601b9050919050565b60006124fe826124e6565b9050919050565b6000612510826124f3565b9050919050565b612528612523826119a6565b612505565b82525050565b600061253a8284612517565b60148201915081905092915050565b82818337505050565b61255f6101008383612549565b5050565b60006101a0820190506125796000830189611c4e565b6125866020830188611c4e565b6125936040830187611c4e565b6125a06060830186611c4e565b6125ad6080830185611c4e565b6125ba60a0830184612552565b979650505050505050565b60008190508160005260206000209050919050565b60006020601f8301049050919050565b600082821b905092915050565b6000600883026126277fffffffffffffffffffffffffffffffffffffffffffffffffffffffffffffffff826125ea565b61263186836125ea565b95508019841693508086168417925050509392505050565b600061266461265f61265a84611a8b565b611a11565b611a8b565b9050919050565b6000819050919050565b61267e83612649565b61269261268a8261266b565b8484546125f7565b825550505050565b600090565b6126a761269a565b6126b2818484612675565b505050565b5b818110156126d6576126cb60008261269f565b6001810190506126b8565b5050565b601f82111561271b576126ec816125c5565b6126f5846125da565b81016020851015612704578190505b612718612710856125da565b8301826126b7565b50505b505050565b600082821c905092915050565b600061273e60001984600802612720565b1980831691505092915050565b6000612757838361272d565b9150826002028217905092915050565b61277082611aee565b67ffffffffffffffff81111561278957612788611d0e565b5b61279382546123cf565b61279e8282856126da565b600060209050601f8311600181146127d157600084156127bf578287015190505b6127c9858261274b565b865550612831565b601f1984166127df866125c5565b60005b82811015612807578489015182556001820191506020850194506020810190506127e2565b868310156128245784890151612820601f89168261272d565b8355505b6001600288020188555050505b505050505050565b7f4e487b7100000000000000000000000000000000000000000000000000000000600052601160045260246000fd5b600061287382611a8b565b915061287e83611a8b565b925082820261288c81611a8b565b915082820484148315176128a3576128a2612839565b5b5092915050565b60006128b582611a8b565b91506128c083611a8b565b92508282019050808211156128d8576128d7612839565b5b92915050565b7f4e487b7100000000000000000000000000000000000000000000000000000000600052603260045260246000fd5b600061291882611a8b565b91507fffffffffffffffffffffffffffffffffffffffffffffffffffffffffffffffff820361294a57612949612839565b5b600182019050919050565b600060208201905061296a6000830184612400565b92915050565b6000602082840312156129865761298561197c565b5b600061299484828501612464565b91505092915050565b600081905092915050565b7f68747470733a2f2f6170692e636f76616c656e7468712e636f6d2f76312f383060008201527f3030312f616464726573732f0000000000000000000000000000000000000000602082015250565b6000612a04602c8361299d565b9150612a0f826129a8565b602c82019050919050565b6000612a2582611aee565b612a2f818561299d565b9350612a3f818560208601611b0a565b80840191505092915050565b7f2f62616c616e6365735f76322f3f71756f74652d63757272656e63793d55534460008201527f26666f726d61743d4a534f4e266e66743d74727565266e6f2d6e66742d66657460208201527f63683d66616c7365266b65793d636b65795f373963393937633765383038346560408201527f3066396466306166393832346300000000000000000000000000000000000000606082015250565b6000612af3606d8361299d565b9150612afe82612a4b565b606d82019050919050565b7f6974656d73000000000000000000000000000000000000000000000000000000815250565b6000612b3a826129f7565b9150612b468284612a1a565b9150612b5182612ae6565b9150612b5c82612b09565b60058201915081905092915050565b7f4e756d65726963417069526573706f6e73650000000000000000000000000000600082015250565b6000612ba1601283611af9565b9150612bac82612b6b565b602082019050919050565b60006040820190508181036000830152612bd081612b94565b90508181036020830152612be48184611eee565b905092915050565b6000612bf782611a8b565b9150612c0283611a8b565b9250828203905081811115612c1a57612c19612839565b5b92915050565b6000612c33612c2e84611f57565b611d6e565b905082815260208101848484011115612c4f57612c4e611d09565b5b612c5a848285611b0a565b509392505050565b600082601f830112612c7757612c76611d04565b5b8151612c87848260208601612c20565b91505092915050565b600080600060608486031215612ca957612ca861197c565b5b6000612cb78682870161244f565b935050602084015167ffffffffffffffff811115612cd857612cd7611981565b5b612ce486828701612c62565b9250506040612cf586828701612464565b9150509250925092565b600060208284031215612d1557612d1461197c565b5b600082015167ffffffffffffffff811115612d3357612d32611981565b5b612d3f84828501612c62565b91505092915050565b600081519050612d57816119b8565b92915050565b600060208284031215612d7357612d7261197c565b5b6000612d8184828501612d48565b91505092915050565b600081519050612d9981611bc7565b92915050565b600060208284031215612db557612db461197c565b5b6000612dc384828501612d8a565b91505092915050565b600081905092915050565b6000612de282611ed2565b612dec8185612dcc565b9350612dfc818560208601611b0a565b80840191505092915050565b6000612e148284612dd7565b91508190509291505056fea2646970667358221220be03d0047112df88ee94fe802183f4df52c1ad496c28267947b568efa0f358cf64736f6c63430008110033",
  "linkReferences": {},
  "deployedLinkReferences": {}
}