{
  "_format": "hh-sol-artifact-1",
  "contractName": "ReviewSys",
  "sourceName": "contracts/ReviewSys.sol",
  "abi": [
    {
      "inputs": [
        {
          "internalType": "contract IWorldID",
          "name": "_worldId",
          "type": "address"
        },
        {
          "internalType": "address payable",
          "name": "_tellorAddress",
          "type": "address"
        }
      ],
      "stateMutability": "nonpayable",
      "type": "constructor"
    },
    {
      "inputs": [],
      "name": "InvalidNullifier",
      "type": "error"
    },
    {
      "anonymous": false,
      "inputs": [
        {
          "indexed": true,
          "internalType": "address",
          "name": "_user",
          "type": "address"
        },
        {
          "indexed": false,
          "internalType": "string",
          "name": "_review",
          "type": "string"
        },
        {
          "indexed": true,
          "internalType": "uint256",
          "name": "_rating",
          "type": "uint256"
        }
      ],
      "name": "ReviewAdded",
      "type": "event"
    },
    {
      "inputs": [
        {
          "internalType": "bytes32",
          "name": "_queryId",
          "type": "bytes32"
        },
        {
          "internalType": "uint256",
          "name": "_timestamp",
          "type": "uint256"
        }
      ],
      "name": "getDataAfter",
      "outputs": [
        {
          "internalType": "bytes",
          "name": "_value",
          "type": "bytes"
        },
        {
          "internalType": "uint256",
          "name": "_timestampRetrieved",
          "type": "uint256"
        }
      ],
      "stateMutability": "view",
      "type": "function"
    },
    {
      "inputs": [
        {
          "internalType": "bytes32",
          "name": "_queryId",
          "type": "bytes32"
        },
        {
          "internalType": "uint256",
          "name": "_timestamp",
          "type": "uint256"
        }
      ],
      "name": "getDataBefore",
      "outputs": [
        {
          "internalType": "bytes",
          "name": "_value",
          "type": "bytes"
        },
        {
          "internalType": "uint256",
          "name": "_timestampRetrieved",
          "type": "uint256"
        }
      ],
      "stateMutability": "view",
      "type": "function"
    },
    {
      "inputs": [
        {
          "internalType": "bytes32",
          "name": "_queryId",
          "type": "bytes32"
        },
        {
          "internalType": "uint256",
          "name": "_timestamp",
          "type": "uint256"
        }
      ],
      "name": "getIndexForDataAfter",
      "outputs": [
        {
          "internalType": "bool",
          "name": "_found",
          "type": "bool"
        },
        {
          "internalType": "uint256",
          "name": "_index",
          "type": "uint256"
        }
      ],
      "stateMutability": "view",
      "type": "function"
    },
    {
      "inputs": [
        {
          "internalType": "bytes32",
          "name": "_queryId",
          "type": "bytes32"
        },
        {
          "internalType": "uint256",
          "name": "_timestamp",
          "type": "uint256"
        }
      ],
      "name": "getIndexForDataBefore",
      "outputs": [
        {
          "internalType": "bool",
          "name": "_found",
          "type": "bool"
        },
        {
          "internalType": "uint256",
          "name": "_index",
          "type": "uint256"
        }
      ],
      "stateMutability": "view",
      "type": "function"
    },
    {
      "inputs": [
        {
          "internalType": "bytes32",
          "name": "_queryId",
          "type": "bytes32"
        },
        {
          "internalType": "uint256",
          "name": "_timestamp",
          "type": "uint256"
        },
        {
          "internalType": "uint256",
          "name": "_maxAge",
          "type": "uint256"
        },
        {
          "internalType": "uint256",
          "name": "_maxCount",
          "type": "uint256"
        }
      ],
      "name": "getMultipleValuesBefore",
      "outputs": [
        {
          "internalType": "bytes[]",
          "name": "_values",
          "type": "bytes[]"
        },
        {
          "internalType": "uint256[]",
          "name": "_timestamps",
          "type": "uint256[]"
        }
      ],
      "stateMutability": "view",
      "type": "function"
    },
    {
      "inputs": [
        {
          "internalType": "bytes32",
          "name": "_queryId",
          "type": "bytes32"
        }
      ],
      "name": "getNewValueCountbyQueryId",
      "outputs": [
        {
          "internalType": "uint256",
          "name": "",
          "type": "uint256"
        }
      ],
      "stateMutability": "view",
      "type": "function"
    },
    {
      "inputs": [
        {
          "internalType": "bytes32",
          "name": "_queryId",
          "type": "bytes32"
        },
        {
          "internalType": "uint256",
          "name": "_timestamp",
          "type": "uint256"
        }
      ],
      "name": "getReporterByTimestamp",
      "outputs": [
        {
          "internalType": "address",
          "name": "",
          "type": "address"
        }
      ],
      "stateMutability": "view",
      "type": "function"
    },
    {
      "inputs": [
        {
          "internalType": "bytes32",
          "name": "_queryId",
          "type": "bytes32"
        },
        {
          "internalType": "uint256",
          "name": "_index",
          "type": "uint256"
        }
      ],
      "name": "getTimestampbyQueryIdandIndex",
      "outputs": [
        {
          "internalType": "uint256",
          "name": "",
          "type": "uint256"
        }
      ],
      "stateMutability": "view",
      "type": "function"
    },
    {
      "inputs": [
        {
          "internalType": "string",
          "name": "_review",
          "type": "string"
        },
        {
          "internalType": "uint256",
          "name": "_rating",
          "type": "uint256"
        }
      ],
      "name": "giveReview",
      "outputs": [
        {
          "internalType": "bool",
          "name": "",
          "type": "bool"
        }
      ],
      "stateMutability": "nonpayable",
      "type": "function"
    },
    {
      "inputs": [],
      "name": "idMappingContract",
      "outputs": [
        {
          "internalType": "contract IMappingContract",
          "name": "",
          "type": "address"
        }
      ],
      "stateMutability": "view",
      "type": "function"
    },
    {
      "inputs": [
        {
          "internalType": "bytes32",
          "name": "_queryId",
          "type": "bytes32"
        },
        {
          "internalType": "uint256",
          "name": "_timestamp",
          "type": "uint256"
        }
      ],
      "name": "isInDispute",
      "outputs": [
        {
          "internalType": "bool",
          "name": "",
          "type": "bool"
        }
      ],
      "stateMutability": "view",
      "type": "function"
    },
    {
      "inputs": [
        {
          "internalType": "address",
          "name": "",
          "type": "address"
        }
      ],
      "name": "isReviewGiven",
      "outputs": [
        {
          "internalType": "bool",
          "name": "",
          "type": "bool"
        }
      ],
      "stateMutability": "view",
      "type": "function"
    },
    {
      "inputs": [
        {
          "internalType": "address",
          "name": "",
          "type": "address"
        }
      ],
      "name": "isUserVerified",
      "outputs": [
        {
          "internalType": "bool",
          "name": "",
          "type": "bool"
        }
      ],
      "stateMutability": "view",
      "type": "function"
    },
    {
      "inputs": [
        {
          "internalType": "uint256",
          "name": "",
          "type": "uint256"
        }
      ],
      "name": "nullifierHashes",
      "outputs": [
        {
          "internalType": "string",
          "name": "name",
          "type": "string"
        },
        {
          "internalType": "address",
          "name": "owner",
          "type": "address"
        }
      ],
      "stateMutability": "view",
      "type": "function"
    },
    {
      "inputs": [
        {
          "internalType": "address",
          "name": "",
          "type": "address"
        }
      ],
      "name": "ratings",
      "outputs": [
        {
          "internalType": "uint256",
          "name": "",
          "type": "uint256"
        }
      ],
      "stateMutability": "view",
      "type": "function"
    },
    {
      "inputs": [],
      "name": "readValue",
      "outputs": [
        {
          "internalType": "uint256",
          "name": "",
          "type": "uint256"
        }
      ],
      "stateMutability": "view",
      "type": "function"
    },
    {
      "inputs": [
        {
          "internalType": "bytes32",
          "name": "_queryId",
          "type": "bytes32"
        },
        {
          "internalType": "uint256",
          "name": "_timestamp",
          "type": "uint256"
        }
      ],
      "name": "retrieveData",
      "outputs": [
        {
          "internalType": "bytes",
          "name": "",
          "type": "bytes"
        }
      ],
      "stateMutability": "view",
      "type": "function"
    },
    {
      "inputs": [
        {
          "internalType": "address",
          "name": "",
          "type": "address"
        }
      ],
      "name": "reviews",
      "outputs": [
        {
          "internalType": "string",
          "name": "",
          "type": "string"
        }
      ],
      "stateMutability": "view",
      "type": "function"
    },
    {
      "inputs": [
        {
          "internalType": "address",
          "name": "_addy",
          "type": "address"
        }
      ],
      "name": "setIdMappingContract",
      "outputs": [],
      "stateMutability": "nonpayable",
      "type": "function"
    },
    {
      "inputs": [],
      "name": "tellor",
      "outputs": [
        {
          "internalType": "contract ITellor",
          "name": "",
          "type": "address"
        }
      ],
      "stateMutability": "view",
      "type": "function"
    },
    {
      "inputs": [
        {
          "internalType": "bytes",
          "name": "data",
          "type": "bytes"
        }
      ],
      "name": "toString",
      "outputs": [
        {
          "internalType": "string",
          "name": "",
          "type": "string"
        }
      ],
      "stateMutability": "pure",
      "type": "function"
    },
    {
      "inputs": [
        {
          "internalType": "bytes32",
          "name": "_id",
          "type": "bytes32"
        }
      ],
      "name": "valueFor",
      "outputs": [
        {
          "internalType": "int256",
          "name": "_value",
          "type": "int256"
        },
        {
          "internalType": "uint256",
          "name": "_timestamp",
          "type": "uint256"
        },
        {
          "internalType": "uint256",
          "name": "_statusCode",
          "type": "uint256"
        }
      ],
      "stateMutability": "view",
      "type": "function"
    },
    {
      "inputs": [
        {
          "internalType": "address",
          "name": "signal",
          "type": "address"
        },
        {
          "internalType": "uint256",
          "name": "root",
          "type": "uint256"
        },
        {
          "internalType": "uint256",
          "name": "nullifierHash",
          "type": "uint256"
        },
        {
          "internalType": "uint256[8]",
          "name": "proof",
          "type": "uint256[8]"
        },
        {
          "internalType": "string",
          "name": "_ens",
          "type": "string"
        }
      ],
      "name": "verifyAndExecute",
      "outputs": [],
      "stateMutability": "nonpayable",
      "type": "function"
    }
  ],
  "bytecode": "0x60c0604052600160a0908152503480156200001957600080fd5b50604051620034dd380380620034dd83398181016040528101906200003f919062000184565b818180806000806101000a81548173ffffffffffffffffffffffffffffffffffffffff021916908373ffffffffffffffffffffffffffffffffffffffff160217905550508173ffffffffffffffffffffffffffffffffffffffff1660808173ffffffffffffffffffffffffffffffffffffffff168152505050505050620001cb565b600080fd5b600073ffffffffffffffffffffffffffffffffffffffff82169050919050565b6000620000f382620000c6565b9050919050565b60006200010782620000e6565b9050919050565b6200011981620000fa565b81146200012557600080fd5b50565b60008151905062000139816200010e565b92915050565b60006200014c82620000c6565b9050919050565b6200015e816200013f565b81146200016a57600080fd5b50565b6000815190506200017e8162000153565b92915050565b600080604083850312156200019e576200019d620000c1565b5b6000620001ae8582860162000128565b9250506020620001c1858286016200016d565b9150509250929050565b60805160a0516132ec620001f160003960006109cc0152600061098f01526132ec6000f3fe608060405234801561001057600080fd5b506004361061014d5760003560e01c806379706967116100c3578063c5958af91161007c578063c5958af914610428578063ce5e11bf14610458578063e07c548614610488578063f66f49c3146104b8578063f78eea83146104e9578063fcd4a5461461051b5761014d565b8063797069671461031957806382da2e57146103495780638e9abb14146103675780639e01dfbb14610397578063a792765f146103c7578063ace417e0146103f85761014d565b80632af8aae0116101155780632af8aae01461021e57806344e87f911461023c57806359dca71f1461026c57806364ee3c6d1461028857806371aad10d146102b957806377b03e0d146102e95761014d565b80630755464f14610152578063193b505b146101825780631959ad5b1461019e5780631f79a1e9146101bc57806329449085146101ed575b600080fd5b61016c60048036038101906101679190611d8d565b61054c565b6040516101799190611e4a565b60405180910390f35b61019c60048036038101906101979190611d8d565b6105ec565b005b6101a661068b565b6040516101b39190611ecb565b60405180910390f35b6101d660048036038101906101d19190611f1c565b6106af565b6040516101e4929190611f58565b60405180910390f35b61020760048036038101906102029190611fbe565b61077b565b604051610215929190612028565b60405180910390f35b610226610824565b6040516102339190612072565b60405180910390f35b61025660048036038101906102519190611fbe565b61084a565b604051610263919061208d565b60405180910390f35b61028660048036038101906102819190612204565b6108f1565b005b6102a2600480360381019061029d9190611fbe565b610b8b565b6040516102b09291906122f2565b60405180910390f35b6102d360048036038101906102ce91906123c3565b610be5565b6040516102e09190611e4a565b60405180910390f35b61030360048036038101906102fe919061240c565b610edf565b6040516103109190612439565b60405180910390f35b610333600480360381019061032e9190612454565b610f83565b604051610340919061208d565b60405180910390f35b610351611168565b60405161035e9190612439565b60405180910390f35b610381600480360381019061037c9190611d8d565b611239565b60405161038e919061208d565b60405180910390f35b6103b160048036038101906103ac9190611d8d565b611259565b6040516103be9190612439565b60405180910390f35b6103e160048036038101906103dc9190611fbe565b611271565b6040516103ef9291906122f2565b60405180910390f35b610412600480360381019061040d9190611d8d565b611329565b60405161041f919061208d565b60405180910390f35b610442600480360381019061043d9190611fbe565b611349565b60405161044f91906124b0565b60405180910390f35b610472600480360381019061046d9190611fbe565b6113f4565b60405161047f9190612439565b60405180910390f35b6104a2600480360381019061049d9190611fbe565b61149b565b6040516104af91906124d2565b60405180910390f35b6104d260048036038101906104cd9190611fbe565b611542565b6040516104e0929190612028565b60405180910390f35b61050360048036038101906104fe919061240c565b611833565b60405161051293929190612506565b60405180910390f35b6105356004803603810190610530919061253d565b611964565b60405161054392919061276e565b60405180910390f35b6005602052806000526040600020600091509050805461056b906127d4565b80601f0160208091040260200160405190810160405280929190818152602001828054610597906127d4565b80156105e45780601f106105b9576101008083540402835291602001916105e4565b820191906000526020600020905b8154815290600101906020018083116105c757829003601f168201915b505050505081565b600073ffffffffffffffffffffffffffffffffffffffff16600160009054906101000a900473ffffffffffffffffffffffffffffffffffffffff1673ffffffffffffffffffffffffffffffffffffffff161461064757600080fd5b80600160006101000a81548173ffffffffffffffffffffffffffffffffffffffff021916908373ffffffffffffffffffffffffffffffffffffffff16021790555050565b60008054906101000a900473ffffffffffffffffffffffffffffffffffffffff1681565b60036020528060005260406000206000915090508060000180546106d2906127d4565b80601f01602080910402602001604051908101604052809291908181526020018280546106fe906127d4565b801561074b5780601f106107205761010080835404028352916020019161074b565b820191906000526020600020905b81548152906001019060200180831161072e57829003601f168201915b5050505050908060010160009054906101000a900473ffffffffffffffffffffffffffffffffffffffff16905082565b60008060008054906101000a900473ffffffffffffffffffffffffffffffffffffffff1673ffffffffffffffffffffffffffffffffffffffff16632944908585856040518363ffffffff1660e01b81526004016107d9929190612814565b6040805180830381865afa1580156107f5573d6000803e3d6000fd5b505050506040513d601f19601f82011682018060405250810190610819919061287e565b915091509250929050565b600160009054906101000a900473ffffffffffffffffffffffffffffffffffffffff1681565b60008060009054906101000a900473ffffffffffffffffffffffffffffffffffffffff1673ffffffffffffffffffffffffffffffffffffffff166344e87f9184846040518363ffffffff1660e01b81526004016108a8929190612814565b602060405180830381865afa1580156108c5573d6000803e3d6000fd5b505050506040513d601f19601f820116820180604052508101906108e991906128be565b905092915050565b600073ffffffffffffffffffffffffffffffffffffffff166003600085815260200190815260200160002060010160009054906101000a900473ffffffffffffffffffffffffffffffffffffffff1673ffffffffffffffffffffffffffffffffffffffff161461098d576040517f5d904cb200000000000000000000000000000000000000000000000000000000815260040160405180910390fd5b7f000000000000000000000000000000000000000000000000000000000000000073ffffffffffffffffffffffffffffffffffffffff16633bc778e3857f0000000000000000000000000000000000000000000000000000000000000000610a13896040516020016109ff9190612933565b604051602081830303815290604052611c7c565b87610a3c30604051602001610a289190612933565b604051602081830303815290604052611c7c565b886040518763ffffffff1660e01b8152600401610a5e96959493929190612968565b60006040518083038186803b158015610a7657600080fd5b505afa158015610a8a573d6000803e3d6000fd5b5050505060405180604001604052808281526020013373ffffffffffffffffffffffffffffffffffffffff16815250600360008581526020019081526020016000206000820151816000019081610ae19190612b6c565b5060208201518160010160006101000a81548173ffffffffffffffffffffffffffffffffffffffff021916908373ffffffffffffffffffffffffffffffffffffffff1602179055509050506001600260003373ffffffffffffffffffffffffffffffffffffffff1673ffffffffffffffffffffffffffffffffffffffff16815260200190815260200160002060006101000a81548160ff0219169083151502179055505050505050565b60606000806000610b9c8686611542565b9150915081610bc35760006040518060200160405280600081525090935093505050610bde565b610bcd86826113f4565b9250610bd98684611349565b935050505b9250929050565b606060006040518060400160405280601081526020017f30313233343536373839616263646566000000000000000000000000000000008152509050600060028451610c319190612c6d565b6002610c3d9190612caf565b67ffffffffffffffff811115610c5657610c556120d9565b5b6040519080825280601f01601f191660200182016040528015610c885781602001600182028036833780820191505090505b5090507f300000000000000000000000000000000000000000000000000000000000000081600081518110610cc057610cbf612ce3565b5b60200101907effffffffffffffffffffffffffffffffffffffffffffffffffffffffffffff1916908160001a9053507f780000000000000000000000000000000000000000000000000000000000000081600181518110610d2457610d23612ce3565b5b60200101907effffffffffffffffffffffffffffffffffffffffffffffffffffffffffffff1916908160001a90535060005b8451811015610ed457826004868381518110610d7557610d74612ce3565b5b602001015160f81c60f81b7effffffffffffffffffffffffffffffffffffffffffffffffffffffffffffff1916901c60f81c60ff1681518110610dbb57610dba612ce3565b5b602001015160f81c60f81b82600283610dd49190612c6d565b6002610de09190612caf565b81518110610df157610df0612ce3565b5b60200101907effffffffffffffffffffffffffffffffffffffffffffffffffffffffffffff1916908160001a90535082600f60f81b868381518110610e3957610e38612ce3565b5b602001015160f81c60f81b1660f81c60ff1681518110610e5c57610e5b612ce3565b5b602001015160f81c60f81b82600283610e759190612c6d565b6003610e819190612caf565b81518110610e9257610e91612ce3565b5b60200101907effffffffffffffffffffffffffffffffffffffffffffffffffffffffffffff1916908160001a9053508080610ecc90612d12565b915050610d56565b508092505050919050565b60008060009054906101000a900473ffffffffffffffffffffffffffffffffffffffff1673ffffffffffffffffffffffffffffffffffffffff166377b03e0d836040518263ffffffff1660e01b8152600401610f3b9190612d5a565b602060405180830381865afa158015610f58573d6000803e3d6000fd5b505050506040513d601f19601f82011682018060405250810190610f7c9190612d75565b9050919050565b600060011515600260003373ffffffffffffffffffffffffffffffffffffffff1673ffffffffffffffffffffffffffffffffffffffff16815260200190815260200160002060009054906101000a900460ff16151514611018576040517f08c379a000000000000000000000000000000000000000000000000000000000815260040161100f90612e14565b60405180910390fd5b600582111561102657600080fd5b6001600460003373ffffffffffffffffffffffffffffffffffffffff1673ffffffffffffffffffffffffffffffffffffffff16815260200190815260200160002060006101000a81548160ff02191690831515021790555082600560003373ffffffffffffffffffffffffffffffffffffffff1673ffffffffffffffffffffffffffffffffffffffff16815260200190815260200160002090816110ca9190612b6c565b5081600660003373ffffffffffffffffffffffffffffffffffffffff1673ffffffffffffffffffffffffffffffffffffffff16815260200190815260200160002081905550813373ffffffffffffffffffffffffffffffffffffffff167f2e05cc61fbad3f09610cb5acfdcca33fd6a49fd4d53287600c0c27b36c999cf0856040516111569190611e4a565b60405180910390a36001905092915050565b6000806111933360405160200161117f9190612933565b604051602081830303815290604052610be5565b6040516020016111a39190612fc6565b6040516020818303038152906040526040516020016111c29190611e4a565b6040516020818303038152906040526040516020016111e1919061304e565b604051602081830303815290604052905060008180519060200120905060008061121883610384426112139190613083565b611271565b91509150818060200190518101906112309190612d75565b94505050505090565b60046020528060005260406000206000915054906101000a900460ff1681565b60066020528060005260406000206000915090505481565b606060008060009054906101000a900473ffffffffffffffffffffffffffffffffffffffff1673ffffffffffffffffffffffffffffffffffffffff1663a792765f85856040518363ffffffff1660e01b81526004016112d1929190612814565b600060405180830381865afa1580156112ee573d6000803e3d6000fd5b505050506040513d6000823e3d601f19601f820116820180604052508101906113179190613127565b90915080925081935050509250929050565b60026020528060005260406000206000915054906101000a900460ff1681565b606060008054906101000a900473ffffffffffffffffffffffffffffffffffffffff1673ffffffffffffffffffffffffffffffffffffffff1663c5958af984846040518363ffffffff1660e01b81526004016113a6929190612814565b600060405180830381865afa1580156113c3573d6000803e3d6000fd5b505050506040513d6000823e3d601f19601f820116820180604052508101906113ec9190613196565b905092915050565b60008060009054906101000a900473ffffffffffffffffffffffffffffffffffffffff1673ffffffffffffffffffffffffffffffffffffffff1663ce5e11bf84846040518363ffffffff1660e01b8152600401611452929190612814565b602060405180830381865afa15801561146f573d6000803e3d6000fd5b505050506040513d601f19601f820116820180604052508101906114939190612d75565b905092915050565b60008060009054906101000a900473ffffffffffffffffffffffffffffffffffffffff1673ffffffffffffffffffffffffffffffffffffffff1663e07c548684846040518363ffffffff1660e01b81526004016114f9929190612814565b602060405180830381865afa158015611516573d6000803e3d6000fd5b505050506040513d601f19601f8201168201806040525081019061153a91906131f4565b905092915050565b60008060008054906101000a900473ffffffffffffffffffffffffffffffffffffffff1673ffffffffffffffffffffffffffffffffffffffff16632944908585856040518363ffffffff1660e01b81526004016115a0929190612814565b6040805180830381865afa1580156115bc573d6000803e3d6000fd5b505050506040513d601f19601f820116820180604052508101906115e0919061287e565b809250819350505081156115fd5780806115f990612d12565b9150505b60008060009054906101000a900473ffffffffffffffffffffffffffffffffffffffff1673ffffffffffffffffffffffffffffffffffffffff166377b03e0d866040518263ffffffff1660e01b81526004016116599190612d5a565b602060405180830381865afa158015611676573d6000803e3d6000fd5b505050506040513d601f19601f8201168201806040525081019061169a9190612d75565b90508181116116b057600080925092505061182c565b60008060009054906101000a900473ffffffffffffffffffffffffffffffffffffffff1673ffffffffffffffffffffffffffffffffffffffff1663ce5e11bf87856040518363ffffffff1660e01b815260040161170e929190612814565b602060405180830381865afa15801561172b573d6000803e3d6000fd5b505050506040513d601f19601f8201168201806040525081019061174f9190612d75565b9050848111156117645760019350505061182c565b828061176f90612d12565b9350508282116117875760008093509350505061182c565b60008054906101000a900473ffffffffffffffffffffffffffffffffffffffff1673ffffffffffffffffffffffffffffffffffffffff1663ce5e11bf87856040518363ffffffff1660e01b81526004016117e2929190612814565b602060405180830381865afa1580156117ff573d6000803e3d6000fd5b505050506040513d601f19601f820116820180604052508101906118239190612d75565b90506001935050505b9250929050565b6000806000600160009054906101000a900473ffffffffffffffffffffffffffffffffffffffff1673ffffffffffffffffffffffffffffffffffffffff166387a475fd856040518263ffffffff1660e01b81526004016118939190612d5a565b602060405180830381865afa1580156118b0573d6000803e3d6000fd5b505050506040513d601f19601f820116820180604052508101906118d49190613236565b935060006118e185610edf565b9050600081036118fd576000806101949350935093505061195d565b6119138560018361190e9190613083565b6113f4565b925060006119218685611349565b9050600081510361193f57600080610194945094509450505061195d565b600061194a82611cb3565b9050809550858560c89550955095505050505b9193909250565b60608060008061197f88878961197a9190613083565b611542565b9150915081611a2c57600067ffffffffffffffff8111156119a3576119a26120d9565b5b6040519080825280602002602001820160405280156119d657816020015b60608152602001906001900390816119c15790505b50600067ffffffffffffffff8111156119f2576119f16120d9565b5b604051908082528060200260200182016040528015611a205781602001602082028036833780820191505090505b50935093505050611c73565b6000611a38898961077b565b809250819450505082611aea57600067ffffffffffffffff811115611a6057611a5f6120d9565b5b604051908082528060200260200182016040528015611a9357816020015b6060815260200190600190039081611a7e5790505b50600067ffffffffffffffff811115611aaf57611aae6120d9565b5b604051908082528060200260200182016040528015611add5781602001602082028036833780820191505090505b5094509450505050611c73565b600060018383611afa9190613083565b611b049190612caf565b905086811115611b2c5760018783611b1c9190613083565b611b269190612caf565b92508690505b60008167ffffffffffffffff811115611b4857611b476120d9565b5b604051908082528060200260200182016040528015611b7b57816020015b6060815260200190600190039081611b665790505b50905060008267ffffffffffffffff811115611b9a57611b996120d9565b5b604051908082528060200260200182016040528015611bc85781602001602082028036833780820191505090505b509050606060005b84811015611c6457611bed8e8289611be89190612caf565b6113f4565b838281518110611c0057611bff612ce3565b5b602002602001018181525050611c308e848381518110611c2357611c22612ce3565b5b6020026020010151611349565b915081848281518110611c4657611c45612ce3565b5b60200260200101819052508080611c5c90612d12565b915050611bd0565b50828298509850505050505050505b94509492505050565b6000600882604051602001611c91919061329f565b6040516020818303038152906040528051906020012060001c901c9050919050565b600080600090505b8251811015611d1557828181518110611cd757611cd6612ce3565b5b602001015160f81c60f81b60f81c60ff1661010083611cf69190612c6d565b611d009190612caf565b91508080611d0d90612d12565b915050611cbb565b50919050565b6000604051905090565b600080fd5b600080fd5b600073ffffffffffffffffffffffffffffffffffffffff82169050919050565b6000611d5a82611d2f565b9050919050565b611d6a81611d4f565b8114611d7557600080fd5b50565b600081359050611d8781611d61565b92915050565b600060208284031215611da357611da2611d25565b5b6000611db184828501611d78565b91505092915050565b600081519050919050565b600082825260208201905092915050565b60005b83811015611df4578082015181840152602081019050611dd9565b60008484015250505050565b6000601f19601f8301169050919050565b6000611e1c82611dba565b611e268185611dc5565b9350611e36818560208601611dd6565b611e3f81611e00565b840191505092915050565b60006020820190508181036000830152611e648184611e11565b905092915050565b6000819050919050565b6000611e91611e8c611e8784611d2f565b611e6c565b611d2f565b9050919050565b6000611ea382611e76565b9050919050565b6000611eb582611e98565b9050919050565b611ec581611eaa565b82525050565b6000602082019050611ee06000830184611ebc565b92915050565b6000819050919050565b611ef981611ee6565b8114611f0457600080fd5b50565b600081359050611f1681611ef0565b92915050565b600060208284031215611f3257611f31611d25565b5b6000611f4084828501611f07565b91505092915050565b611f5281611d4f565b82525050565b60006040820190508181036000830152611f728185611e11565b9050611f816020830184611f49565b9392505050565b6000819050919050565b611f9b81611f88565b8114611fa657600080fd5b50565b600081359050611fb881611f92565b92915050565b60008060408385031215611fd557611fd4611d25565b5b6000611fe385828601611fa9565b9250506020611ff485828601611f07565b9150509250929050565b60008115159050919050565b61201381611ffe565b82525050565b61202281611ee6565b82525050565b600060408201905061203d600083018561200a565b61204a6020830184612019565b9392505050565b600061205c82611e98565b9050919050565b61206c81612051565b82525050565b60006020820190506120876000830184612063565b92915050565b60006020820190506120a2600083018461200a565b92915050565b600080fd5b6000819050826020600802820111156120c9576120c86120a8565b5b92915050565b600080fd5b600080fd5b7f4e487b7100000000000000000000000000000000000000000000000000000000600052604160045260246000fd5b61211182611e00565b810181811067ffffffffffffffff821117156121305761212f6120d9565b5b80604052505050565b6000612143611d1b565b905061214f8282612108565b919050565b600067ffffffffffffffff82111561216f5761216e6120d9565b5b61217882611e00565b9050602081019050919050565b82818337600083830152505050565b60006121a76121a284612154565b612139565b9050828152602081018484840111156121c3576121c26120d4565b5b6121ce848285612185565b509392505050565b600082601f8301126121eb576121ea6120cf565b5b81356121fb848260208601612194565b91505092915050565b6000806000806000610180868803121561222157612220611d25565b5b600061222f88828901611d78565b955050602061224088828901611f07565b945050604061225188828901611f07565b9350506060612262888289016120ad565b92505061016086013567ffffffffffffffff81111561228457612283611d2a565b5b612290888289016121d6565b9150509295509295909350565b600081519050919050565b600082825260208201905092915050565b60006122c48261229d565b6122ce81856122a8565b93506122de818560208601611dd6565b6122e781611e00565b840191505092915050565b6000604082019050818103600083015261230c81856122b9565b905061231b6020830184612019565b9392505050565b600067ffffffffffffffff82111561233d5761233c6120d9565b5b61234682611e00565b9050602081019050919050565b600061236661236184612322565b612139565b905082815260208101848484011115612382576123816120d4565b5b61238d848285612185565b509392505050565b600082601f8301126123aa576123a96120cf565b5b81356123ba848260208601612353565b91505092915050565b6000602082840312156123d9576123d8611d25565b5b600082013567ffffffffffffffff8111156123f7576123f6611d2a565b5b61240384828501612395565b91505092915050565b60006020828403121561242257612421611d25565b5b600061243084828501611fa9565b91505092915050565b600060208201905061244e6000830184612019565b92915050565b6000806040838503121561246b5761246a611d25565b5b600083013567ffffffffffffffff81111561248957612488611d2a565b5b612495858286016121d6565b92505060206124a685828601611f07565b9150509250929050565b600060208201905081810360008301526124ca81846122b9565b905092915050565b60006020820190506124e76000830184611f49565b92915050565b6000819050919050565b612500816124ed565b82525050565b600060608201905061251b60008301866124f7565b6125286020830185612019565b6125356040830184612019565b949350505050565b6000806000806080858703121561255757612556611d25565b5b600061256587828801611fa9565b945050602061257687828801611f07565b935050604061258787828801611f07565b925050606061259887828801611f07565b91505092959194509250565b600081519050919050565b600082825260208201905092915050565b6000819050602082019050919050565b600082825260208201905092915050565b60006125ec8261229d565b6125f681856125d0565b9350612606818560208601611dd6565b61260f81611e00565b840191505092915050565b600061262683836125e1565b905092915050565b6000602082019050919050565b6000612646826125a4565b61265081856125af565b935083602082028501612662856125c0565b8060005b8581101561269e578484038952815161267f858261261a565b945061268a8361262e565b925060208a01995050600181019050612666565b50829750879550505050505092915050565b600081519050919050565b600082825260208201905092915050565b6000819050602082019050919050565b6126e581611ee6565b82525050565b60006126f783836126dc565b60208301905092915050565b6000602082019050919050565b600061271b826126b0565b61272581856126bb565b9350612730836126cc565b8060005b8381101561276157815161274888826126eb565b975061275383612703565b925050600181019050612734565b5085935050505092915050565b60006040820190508181036000830152612788818561263b565b9050818103602083015261279c8184612710565b90509392505050565b7f4e487b7100000000000000000000000000000000000000000000000000000000600052602260045260246000fd5b600060028204905060018216806127ec57607f821691505b6020821081036127ff576127fe6127a5565b5b50919050565b61280e81611f88565b82525050565b60006040820190506128296000830185612805565b6128366020830184612019565b9392505050565b61284681611ffe565b811461285157600080fd5b50565b6000815190506128638161283d565b92915050565b60008151905061287881611ef0565b92915050565b6000806040838503121561289557612894611d25565b5b60006128a385828601612854565b92505060206128b485828601612869565b9150509250929050565b6000602082840312156128d4576128d3611d25565b5b60006128e284828501612854565b91505092915050565b60008160601b9050919050565b6000612903826128eb565b9050919050565b6000612915826128f8565b9050919050565b61292d61292882611d4f565b61290a565b82525050565b600061293f828461291c565b60148201915081905092915050565b82818337505050565b612964610100838361294e565b5050565b60006101a08201905061297e6000830189612019565b61298b6020830188612019565b6129986040830187612019565b6129a56060830186612019565b6129b26080830185612019565b6129bf60a0830184612957565b979650505050505050565b60008190508160005260206000209050919050565b60006020601f8301049050919050565b600082821b905092915050565b600060088302612a2c7fffffffffffffffffffffffffffffffffffffffffffffffffffffffffffffffff826129ef565b612a3686836129ef565b95508019841693508086168417925050509392505050565b6000612a69612a64612a5f84611ee6565b611e6c565b611ee6565b9050919050565b6000819050919050565b612a8383612a4e565b612a97612a8f82612a70565b8484546129fc565b825550505050565b600090565b612aac612a9f565b612ab7818484612a7a565b505050565b5b81811015612adb57612ad0600082612aa4565b600181019050612abd565b5050565b601f821115612b2057612af1816129ca565b612afa846129df565b81016020851015612b09578190505b612b1d612b15856129df565b830182612abc565b50505b505050565b600082821c905092915050565b6000612b4360001984600802612b25565b1980831691505092915050565b6000612b5c8383612b32565b9150826002028217905092915050565b612b7582611dba565b67ffffffffffffffff811115612b8e57612b8d6120d9565b5b612b9882546127d4565b612ba3828285612adf565b600060209050601f831160018114612bd65760008415612bc4578287015190505b612bce8582612b50565b865550612c36565b601f198416612be4866129ca565b60005b82811015612c0c57848901518255600182019150602085019450602081019050612be7565b86831015612c295784890151612c25601f891682612b32565b8355505b6001600288020188555050505b505050505050565b7f4e487b7100000000000000000000000000000000000000000000000000000000600052601160045260246000fd5b6000612c7882611ee6565b9150612c8383611ee6565b9250828202612c9181611ee6565b91508282048414831517612ca857612ca7612c3e565b5b5092915050565b6000612cba82611ee6565b9150612cc583611ee6565b9250828201905080821115612cdd57612cdc612c3e565b5b92915050565b7f4e487b7100000000000000000000000000000000000000000000000000000000600052603260045260246000fd5b6000612d1d82611ee6565b91507fffffffffffffffffffffffffffffffffffffffffffffffffffffffffffffffff8203612d4f57612d4e612c3e565b5b600182019050919050565b6000602082019050612d6f6000830184612805565b92915050565b600060208284031215612d8b57612d8a611d25565b5b6000612d9984828501612869565b91505092915050565b7f66697273742076657269667920796f757220776f726c6420696420776974682060008201527f796f757220656e73000000000000000000000000000000000000000000000000602082015250565b6000612dfe602883611dc5565b9150612e0982612da2565b604082019050919050565b60006020820190508181036000830152612e2d81612df1565b9050919050565b600081905092915050565b7f68747470733a2f2f6170692e636f76616c656e7468712e636f6d2f76312f383060008201527f3030312f616464726573732f0000000000000000000000000000000000000000602082015250565b6000612e9b602c83612e34565b9150612ea682612e3f565b602c82019050919050565b6000612ebc82611dba565b612ec68185612e34565b9350612ed6818560208601611dd6565b80840191505092915050565b7f2f62616c616e6365735f76322f3f71756f74652d63757272656e63793d55534460008201527f26666f726d61743d4a534f4e266e66743d74727565266e6f2d6e66742d66657460208201527f63683d66616c7365266b65793d636b65795f373963393937633765383038346560408201527f3066396466306166393832346300000000000000000000000000000000000000606082015250565b6000612f8a606d83612e34565b9150612f9582612ee2565b606d82019050919050565b7f6974656d73000000000000000000000000000000000000000000000000000000815250565b6000612fd182612e8e565b9150612fdd8284612eb1565b9150612fe882612f7d565b9150612ff382612fa0565b60058201915081905092915050565b7f4e756d65726963417069526573706f6e73650000000000000000000000000000600082015250565b6000613038601283611dc5565b915061304382613002565b602082019050919050565b600060408201905081810360008301526130678161302b565b9050818103602083015261307b81846122b9565b905092915050565b600061308e82611ee6565b915061309983611ee6565b92508282039050818111156130b1576130b0612c3e565b5b92915050565b60006130ca6130c584612322565b612139565b9050828152602081018484840111156130e6576130e56120d4565b5b6130f1848285611dd6565b509392505050565b600082601f83011261310e5761310d6120cf565b5b815161311e8482602086016130b7565b91505092915050565b6000806000606084860312156131405761313f611d25565b5b600061314e86828701612854565b935050602084015167ffffffffffffffff81111561316f5761316e611d2a565b5b61317b868287016130f9565b925050604061318c86828701612869565b9150509250925092565b6000602082840312156131ac576131ab611d25565b5b600082015167ffffffffffffffff8111156131ca576131c9611d2a565b5b6131d6848285016130f9565b91505092915050565b6000815190506131ee81611d61565b92915050565b60006020828403121561320a57613209611d25565b5b6000613218848285016131df565b91505092915050565b60008151905061323081611f92565b92915050565b60006020828403121561324c5761324b611d25565b5b600061325a84828501613221565b91505092915050565b600081905092915050565b60006132798261229d565b6132838185613263565b9350613293818560208601611dd6565b80840191505092915050565b60006132ab828461326e565b91508190509291505056fea2646970667358221220060cda225a2d513776278c1f3b969ed31e6506221594521ea5a53d9738e28b0e64736f6c63430008110033",
  "linkReferences": {},
  "deployedLinkReferences": {}
}